:020000040800F2
:100000000050002041CC000805CB000807CB0008B9
:1000100009CB00080BCB00080DCB00080000000046
:100020000000000000000000000000000FCB0008EE
:1000300011CB00080000000013CB000815CB00080E
:1000400089CC000889CC000889CC0008816A0008A6
:1000500089CC000889CC0008696A000889CC0008AE
:1000600089CC000889CC000889CC000819CB00088D
:1000700089CC000889CC000889CC000889CC00080C
:1000800089CC000889CC000889CC000889CC0008FC
:1000900089CC000889CC000889CC000889CC0008EC
:1000A00089CC000889CC000889CC000825CB000841
:1000B00031CB000889CC000889CC000889CC000825
:1000C00089CC000889CC000889CC000889CC0008BC
:1000D00089CC000889CC000889CC000889CC0008AC
:1000E00089CC000889CC000889CC000800000000F9
:1000F0000000000000000000000000000000000000
:0C01000000000000000000005FF808F1A3
:1001100010B5054C237833B9044B13B10448AFF341
:1001200000800123237010BD540200200000000055
:10013000FCD9000808B5034B1BB103490348AFF3D2
:10014000008008BD0000000058020020FCD9000813
:1001500081F0004102E000BF83F0004330B54FEA78
:1001600041044FEA430594EA050F08BF90EA020FE5
:100170001FBF54EA000C55EA020C7FEA645C7FEA78
:10018000655C00F0E2804FEA5454D4EB5555B8BF9B
:100190006D420CDD2C4480EA020281EA030382EA0C
:1001A000000083EA010180EA020281EA0303362D9E
:1001B00088BF30BD11F0004F4FEA01314FF4801C71
:1001C0004CEA113102D0404261EB410113F0004F83
:1001D0004FEA03334CEA133302D0524263EB43033A
:1001E00094EA050F00F0A780A4F10104D5F1200ED8
:1001F0000DDB02FA0EFC22FA05F2801841F1000133
:1002000003FA0EF2801843FA05F359410EE0A5F106
:1002100020050EF1200E012A03FA0EFC28BF4CF037
:10022000020C43FA05F3C01851EBE37101F00045ED
:1002300007D54FF0000EDCF1000C7EEB00006EEBFA
:100240000101B1F5801F1BD3B1F5001F0CD3490884
:100250005FEA30004FEA3C0C04F101044FEA4452DB
:1002600012F5800F80F09A80BCF1004F08BF5FEA62
:10027000500C50F1000041EB045141EA050130BD42
:100280005FEA4C0C404141EB010111F4801FA4F1E5
:100290000104E9D191F0000F04BF01460020B1FA3A
:1002A00081F308BF2033A3F10B03B3F120020CDA72
:1002B0000C3208DD02F1140CC2F10C0201FA0CF050
:1002C00021FA02F10CE002F11402D8BFC2F1200CB5
:1002D00001FA02F120FA0CFCDCBF41EA0C0190406B
:1002E000E41AA2BF01EB0451294330BD6FEA0404B4
:1002F0001F3C1CDA0C340EDC04F11404C4F120029F
:1003000020FA04F001FA02F340EA030021FA04F3B0
:1003100045EA030130BDC4F10C04C4F1200220FA07
:1003200002F001FA04F340EA0300294630BD21FA45
:1003300004F0294630BD94F0000F83F4801306BF0B
:1003400081F480110134013D4EE77FEA645C18BFFF
:100350007FEA655C29D094EA050F08BF90EA020F96
:1003600005D054EA000C04BF1946104630BD91EA8E
:10037000030F1EBF0021002030BD5FEA545C05D191
:100380004000494128BF41F0004130BD14F58004D0
:100390003CBF01F5801130BD01F0004545F0FE4144
:1003A00041F470014FF0000030BD7FEA645C1ABF79
:1003B000194610467FEA655C1CBF0B46024650EAB0
:1003C000013406BF52EA033591EA030F41F40021DC
:1003D00030BD00BF90F0000F04BF0021704730B562
:1003E0004FF4806404F132044FF000054FF0000137
:1003F00050E700BF90F0000F04BF0021704730B5F8
:100400004FF4806404F1320410F0004548BF4042CC
:100410004FF000013EE700BF42004FEAE2014FEA21
:1004200031014FEA02701FBF12F07F4393F07F4FFC
:1004300081F06051704732F07F4208BF704793F0FF
:100440007F4F04BF41F40021704730B54FF4607412
:1004500001F0004521F000411CE700BF50EA010215
:1004600008BF704730B54FF000050AE050EA0102BE
:1004700008BF704730B511F0004502D5404261EB2E
:1004800041014FF4806404F132045FEA915C3FF46F
:10049000D8AE4FF003025FEADC0C18BF03325FEA0C
:1004A000DC0C18BF033202EBDC02C2F1200300FABD
:1004B00003FC20FA02F001FA03FE40EA0E0021FAE2
:1004C00002F11444BDE600BF70B54FF0FF0C4CF4D0
:1004D000E06C1CEA11541DBF1CEA135594EA0C0F82
:1004E00095EA0C0F00F0DEF82C4481EA030621EABD
:1004F0004C5123EA4C5350EA013518BF52EA0335F8
:1005000041F4801143F4801338D0A0FB02CE4FF0A9
:100510000005E1FB02E506F00042E0FB03E54FF0D9
:100520000006E1FB03569CF0000F18BF4EF0010ED1
:10053000A4F1FF04B6F5007F64F5407404D25FEACD
:100540004E0E6D4146EB060642EAC62141EA555180
:100550004FEAC52040EA5E504FEACE2EB4F1FD0CC2
:1005600088BFBCF5E06F1ED8BEF1004F08BF5FEA40
:10057000500E50F1000041EB045170BD06F00046F2
:1005800046EA010140EA020081EA0301B4EB5C049F
:10059000C2BFD4EB0C0541EA045170BD41F4801197
:1005A0004FF0000E013C00F3AB8014F1360FDEBFBC
:1005B000002001F0004170BDC4F10004203C35DA98
:1005C0000C341BDC04F11404C4F1200500FA05F31B
:1005D00020FA04F001FA05F240EA020001F00042BC
:1005E00021F0004110EBD37021FA04F642EB060132
:1005F0005EEA430E08BF20EAD37070BDC4F10C045C
:10060000C4F1200500FA04F320FA05F001FA04F21F
:1006100040EA020001F0004110EBD37041F100010B
:100620005EEA430E08BF20EAD37070BDC4F1200516
:1006300000FA05F24EEA020E20FA04F301FA05F27E
:1006400043EA020321FA04F001F0004121FA04F226
:1006500020EA020000EBD3705EEA430E08BF20EAF6
:10066000D37070BD94F0000F0FD101F00046400030
:1006700041EB010111F4801F08BF013CF7D041EAB2
:10068000060195F0000F18BF704703F000465200B6
:1006900043EB030313F4801F08BF013DF7D043EA87
:1006A0000603704794EA0C0F0CEA135518BF95EA3D
:1006B0000C0F0CD050EA410618BF52EA4306D1D1C4
:1006C00081EA030101F000414FF0000070BD50EAE3
:1006D000410606BF1046194652EA430619D094EA6D
:1006E0000C0F02D150EA013613D195EA0C0F05D157
:1006F00052EA03361CBF104619460AD181EA0301AB
:1007000001F0004141F0FE4141F470014FF0000062
:1007100070BD41F0FE4141F4780170BD70B54FF0FD
:10072000FF0C4CF4E06C1CEA11541DBF1CEA13557D
:1007300094EA0C0F95EA0C0F00F0A7F8A4EB05045F
:1007400081EA030E52EA03354FEA013100F0888056
:100750004FEA03334FF0805545EA131343EA12631F
:100760004FEA022245EA111545EA10654FEA0026D4
:100770000EF000419D4208BF964244F1FD0404F58D
:10078000407402D25B084FEA3202B61A65EB0305E9
:100790005B084FEA32024FF480104FF4002CB6EBA6
:1007A000020E75EB030E22BFB61A754640EA0C0026
:1007B0005B084FEA3202B6EB020E75EB030E22BF66
:1007C000B61A754640EA5C005B084FEA3202B6EBA7
:1007D000020E75EB030E22BFB61A754640EA9C0066
:1007E0005B084FEA3202B6EB020E75EB030E22BF36
:1007F000B61A754640EADC0055EA060E18D04FEAF4
:10080000051545EA16754FEA06164FEAC30343EA93
:1008100052734FEAC2025FEA1C1CC0D111F4801F60
:100820000BD141EA00014FF000004FF0004CB6E759
:1008300011F4801F04BF01430020B4F1FD0C88BFF8
:10084000BCF5E06F3FF6AFAEB5EB030C04BFB6EB03
:10085000020C5FEA500C50F1000041EB045170BDF6
:100860000EF0004E4EEA113114EB5C04C2BFD4EB23
:100870000C0541EA045170BD41F480114FF0000EA7
:10088000013C90E645EA060E8DE60CEA135594EA23
:100890000C0F08BF95EA0C0F3FF43BAF94EA0C0F26
:1008A0000AD150EA01347FF434AF95EA0C0F7FF49B
:1008B00025AF104619462CE795EA0C0F06D152EAEF
:1008C00003353FF4FDAE1046194622E750EA4106D3
:1008D00018BF52EA43067FF4C5AE50EA41047FF4E4
:1008E0000DAF52EA43057FF4EBAE12E74A0011D296
:1008F00012F5001211D20DD56FF47873B3EB62527A
:100900000ED44FEAC12343F0004343EA505323FA85
:1009100002F070474FF00000704750EA013002D1FA
:100920004FF0FF3070474FF0000070474FEA410230
:10093000B2F1E04324BFB3F5001CDCF1FE5C0DD93D
:1009400001F0004C4FEAC0024CEA5070B2F1004F87
:1009500040EB830008BF20F00100704711F0804F8A
:1009600021D113F13872BCBF01F00040704741F44F
:1009700080114FEA5252C2F11802C2F1200C10FA53
:100980000CF320FA02F018BF40F001004FEAC12337
:100990004FEAD32303FA0CFC40EA0C0023FA02F3DB
:1009A0004FEA4303CCE77FEA625307D150EA0133B1
:1009B0001EBF4FF0FE4040F44000704701F0004081
:1009C00040F0FE4040F40000704700BF80F000405F
:1009D00002E000BF81F0004142001FBF5FEA410317
:1009E00092EA030F7FEA226C7FEA236C6AD04FEA17
:1009F0001262D2EB1363C1BFD2184140484041405C
:100A0000B8BF5B42192B88BF704710F0004F40F40D
:100A1000000020F07F4018BF404211F0004F41F429
:100A2000000121F07F4118BF494292EA030F3FD0F5
:100A3000A2F1010241FA03FC10EB0C00C3F1200308
:100A400001FA03F100F0004302D5494260EB400097
:100A5000B0F5000F13D3B0F1807F06D340084FEA02
:100A6000310102F10102FE2A51D2B1F1004F40EBF7
:100A7000C25008BF20F0010040EA0300704749005F
:100A800040EB000010F4000FA2F10102EDD1B0FA2A
:100A900080FCACF1080CB2EB0C0200FA0CF0AABF1F
:100AA00000EBC25052421843BCBFD04018437047BD
:100AB00092F0000F81F4000106BF80F400000132C3
:100AC000013BB5E74FEA41037FEA226C18BF7FEA9A
:100AD000236C21D092EA030F04D092F0000F08BFDC
:100AE0000846704790EA010F1CBF0020704712F0C3
:100AF0007F4F04D1400028BF40F00040704712F102
:100B000000723CBF00F50000704700F0004343F066
:100B1000FE4040F4000070477FEA226216BF08469C
:100B20007FEA23630146420206BF5FEA412390EA5F
:100B3000010F40F4800070474FF0000304E000BF55
:100B400010F0004348BF40425FEA000C08BF704706
:100B500043F0964301464FF000001CE050EA0102CA
:100B600008BF70474FF000030AE000BF50EA0102DF
:100B700008BF704711F0004302D5404261EB4101CC
:100B80005FEA010C02BF84460146002043F0B643F1
:100B900008BFA3F18053A3F50003BCFA8CF2083A16
:100BA000A3EBC25310DB01FA02FC634400FA02FC1F
:100BB000C2F12002BCF1004F20FA02F243EB020026
:100BC00008BF20F00100704702F1200201FA02FC88
:100BD000C2F1200250EA4C0021FA02F243EB02007B
:100BE00008BF20EADC7070474FF0FF0C1CEAD052BF
:100BF0001EBF1CEAD15392EA0C0F93EA0C0F6FD080
:100C00001A4480EA010C400218BF5FEA41211ED05D
:100C10004FF0006343EA501043EA5111A0FB013149
:100C20000CF00040B1F5000F3EBF490041EAD3711E
:100C30005B0040EA010062F17F02FD2A1DD8B3F19A
:100C4000004F40EBC25008BF20F00100704790F009
:100C5000000F0CF0004C08BF49024CEA502040EA5B
:100C600051207F3AC2BFD2F1FF0340EAC250704721
:100C700040F400004FF00003013A5DDC12F1190F5F
:100C8000DCBF00F000407047C2F10002410021FAD1
:100C900002F1C2F1200200FA02FC5FEA310040F1E9
:100CA000000053EA4C0308BF20EADC70704792F062
:100CB000000F00F0004C02BF400010F4000F013A9A
:100CC000F9D040EA0C0093F0000F01F0004C02BF95
:100CD000490011F4000F013BF9D041EA0C018FE704
:100CE0000CEAD15392EA0C0F18BF93EA0C0F0AD00A
:100CF00030F0004C18BF31F0004CD8D180EA010030
:100D000000F00040704790F0000F17BF90F0004FC8
:100D1000084691F0000F91F0004F14D092EA0C0FAA
:100D200001D142020FD193EA0C0F03D14B0218BF3D
:100D3000084608D180EA010000F0004040F0FE4083
:100D400040F40000704740F0FE4040F4400070471F
:100D50004FF0FF0C1CEAD0521EBF1CEAD15392EA9E
:100D60000C0F93EA0C0F69D0A2EB030280EA010C8E
:100D700049024FEA402037D04FF0805343EA111127
:100D800043EA10130CF000408B4238BF5B0042F185
:100D90007D024FF4000C8B4224BF5B1A40EA0C002A
:100DA000B3EB510F24BFA3EB510340EA5C00B3EB5C
:100DB000910F24BFA3EB910340EA9C00B3EBD10F4A
:100DC00024BFA3EBD10340EADC001B0118BF5FEA9C
:100DD0001C1CE0D1FD2A3FF650AF8B4240EBC250C5
:100DE00008BF20F0010070470CF0004C4CEA502086
:100DF0007F32C2BFD2F1FF0340EAC250704740F4D5
:100E000000004FF00003013A37E792F0000F00F0C6
:100E1000004C02BF400010F4000F013AF9D040EA44
:100E20000C0093F0000F01F0004C02BF490011F4D8
:100E3000000F013BF9D041EA0C0195E70CEAD153D0
:100E400092EA0C0F08D142027FF47DAF93EA0C0FB7
:100E50007FF470AF084676E793EA0C0F04D14B029B
:100E60003FF44CAF08466EE730F0004C18BF31F04D
:100E7000004CCAD130F000427FF45CAF31F0004347
:100E80007FF43CAF5FE700BF4FF0FF3C06E000BFE0
:100E90004FF0010C02E000BF4FF0010C4DF804CD03
:100EA0004FEA40024FEA41037FEA226C18BF7FEA13
:100EB000236C11D001B052EA530C18BF90EA010F15
:100EC00058BFB2EB030088BFC81738BF6FEAE170A4
:100ED00018BF40F0010070477FEA226C02D15FEA40
:100EE000402C05D17FEA236CE4D15FEA412CE1D0AC
:100EF0005DF8040B704700BF844608466146FFE773
:100F00000FB5FFF7C9FF002848BF10F1000F0FBD54
:100F10004DF808EDFFF7F4FF0CBF012000205DF84D
:100F200008FB00BF4DF808EDFFF7EAFF34BF0120D2
:100F300000205DF808FB00BF4DF808EDFFF7E0FF6B
:100F400094BF012000205DF808FB00BF4DF808EDBC
:100F5000FFF7D2FF94BF012000205DF808FB00BF1F
:100F60004DF808EDFFF7C8FF34BF012000205DF801
:100F700008FB00BF4FEA40024FEA41037FEA226CC0
:100F800002D15FEA402C08D17FEA236C02D15FEAEC
:100F9000412C02D14FF0000070474FF00100704724
:100FA0004FEA4002B2F1FE4F0FD34FF09E03B3EB76
:100FB00012620DD94FEA002343F0004310F0004FB6
:100FC00023FA02F018BF404270474FF0000070470C
:100FD00012F1610F01D1420205D110F0004008BFAB
:100FE0006FF0004070474FF000007047034613F861
:100FF000012B002AFBD1181A0138704738B50E4B67
:10100000054618784FF47A73B3FBF0F30B4A106877
:10101000B0FBF3F000F01CFC044658B90F2D09D8C2
:10102000024629464FF0FF3000F0BCFB2046044B3F
:101030001D6038BD0120FCE7E1010020E80100202F
:10104000E4010020074A08B51368032043F01003A9
:10105000136000F095FB0020FFF7D0FF0BF064FB5E
:10106000002008BD00200240034A044B11681B7891
:101070000B441360704700BF4C100020E1010020BA
:10108000014B1868704700BF4C10002038B504466B
:10109000FFF7F6FF0546631C1EBF044B1B78E418E0
:1010A000FFF7EEFF401BA042FAD338BDE10100205C
:1010B000436A10B59A6A12F0500F1BD19A6A42F433
:1010C00000729A621A68926802F46022B2F5602F88
:1010D0000CD11A7B52B99A6A22F480729A629A6A87
:1010E000D2045EBF9A6A42F001029A62184605F085
:1010F000FBFB10BD1B6ABDE810401B6B1847704717
:1011000008B5406AFFF7FBFF08BD406A08B5836A6F
:1011100043F040038362C36A43F00403C36205F0F3
:10112000A1FC08BD002373B5019390F82430012B76
:101130006DD001234D6880F82430062D026805EB40
:1011400085030C6823D81F26556B053B9E4025EA76
:10115000060504FA03F32B435363092C8B6804EB55
:1011600044054FF007012AD9D6681E3DA94026EA5A
:101170000101AB400B43D360A4F11003012B26D92E
:101180000023002280F82420184602B070BD0C2DE8
:101190004FF01F0509D8166B233B9D4026EA050535
:1011A00004FA03F32B431363D7E7D66A413B9D4010
:1011B00026EA050504FA03F32B43D362CDE716694B
:1011C000A94026EA0101AB400B431361D4E7114B60
:1011D0009A4216D193681B02D2D49368102C43F420
:1011E00000039360CCD10C4B0C4A1B68B3FBF2F2AA
:1011F0000A2353430193019B002BC1D0019B013B68
:10120000F8E7836A43F0200383620123B9E70223EE
:10121000BAE700BF00240140E801002040420F006F
:10122000002337B50193036804469A68D20702D5B4
:10123000002003B030BD9A6842F001029A60144B5E
:10124000144A1B68B3FBF2F30193019BE3B9FFF768
:1012500017FF054623689B68DB07E9D4FFF710FFFB
:10126000401B0228F6D923689B6813F00103F1D1D3
:10127000A26A84F8243042F01002A262E26A0120DD
:1012800042F00102E262D4E7019B013BDCE700BFD0
:10129000E801002040420F0090F8243010B5012BE7
:1012A000044654D0012380F82430FFF7B9FF00280A
:1012B00049D1A36A274A23F4407323F0010343F47E
:1012C0008073A3622368934204D123494A6812F4CD
:1012D000702F2ED1A26A22F48012A2625A6852059F
:1012E00041BFA26A22F4405242F48052A262A26A32
:1012F00012F480521CBFE26A22F00602E26200226F
:1013000084F824206FF002021A609A6802F46022C6
:10131000B2F5602F13D10F4A934205D1A2F5806236
:10132000526812F4702F0AD19A6842F4A0029A60AF
:1013300010BDA26A42F48012A2624A68CFE79A689E
:1013400042F48012F3E7002384F82430F0E702200F
:10135000EEE700BF002801400024014038B50368D3
:1013600004469A68D10701D4002038BD9A6822F05B
:1013700001029A60FFF784FE054623689B68DB073D
:10138000F2D5FFF77DFE401B0228F6D923689B6843
:10139000DA07F2D5A36A012043F01003A362E36ADF
:1013A00043F00103E362E0E770B50446002870D023
:1013B000836A23B9C36280F824300BF0D7F9204642
:1013C000FFF7CCFFA36A13F0100FA36A63D10028C4
:1013D00061D1E16923F48853626823F0020343F08A
:1013E00002030A43A168A362237BB1F5807F42EA2E
:1013F000430237D0012914BF06464FF48076257D7D
:10140000012D06D183BBA369013B46EA433545F470
:1014100000662368B1F5807F5D6825F4694545EA7B
:1014200006055D609E681E4D05EA060545EA020553
:101430009D6001D0012920D1216901390905DD6AAA
:1014400025F470052943D9629968164B0B409A42DE
:1014500015D10023E362A36A23F0030343F00103E1
:10146000A36270BD0E46CAE7A36A43F02003A362DD
:10147000E36A43F00103E362CBE70021DFE7A36AFD
:1014800023F0120343F01003A362E36A43F0010365
:10149000E3620120E5E743F01003A362F9E700BF30
:1014A000FDF7E1FFFE0E1FFF90F8243010B5012B71
:1014B000044611D0012380F82430FFF74FFF38B9DC
:1014C000A36A23F4885323F0010343F00103A362CA
:1014D000002384F8243010BD0220FCE7002373B5FC
:1014E000019390F824300446012B62D0012380F848
:1014F0002430FFF733FF0546002832D1A36A0220CB
:1015000023F4885323F0020343F00203A3622A4B1F
:101510001E6801F0D3FBB6FBF0F040000190019B88
:101520001BBB2046FFF77CFE2268936843F008034C
:101530009360FFF7A5FD064623689A68110718D443
:101540009A6842F004029A60FFF79AFD0646236803
:101550009B685B0723D4A36A23F0030343F00103D2
:10156000A362002384F8243016E0019B013B019321
:10157000D5E7FFF785FD801B0A28DDD923689B6826
:101580001807D9D5A36A012523F0120343F01003ED
:10159000A362002384F82430284602B070BDFFF710
:1015A0006FFD801B0A28D2D923689B685A07CED5C5
:1015B000E8E70225F0E700BFE8010020F0B50446A7
:1015C0008DB00E4617460021302268460BF0D5FD3F
:1015D00094F82430012B59D001252D4B84F8245048
:1015E00000939B6803F46023B3F5602F07D0A36AD0
:1015F00043F02003A362002384F8243043E0204614
:10160000FFF70EFE05460028F5D16846FFF708FEF5
:1016100005460028EFD1A26A1E4B2168134043F40F
:101620008073A3624B68206A5B0548BFA36A324699
:1016300042BF23F4405343F48053A3620023E36288
:1016400084F82430144B4C318362144BC362144B26
:1016500003636FF0020341F84C3C51F8443C43F4FF
:10166000807341F8443C3B4600F038F923689A689F
:1016700002F46022B2F5602F9A680CBF42F4A00217
:1016800042F480129A6028460DB0F0BD0225FAE7B8
:1016900000280140FEFCEFFFB11000080111000816
:1016A0000B11000870B504468CB03022002168464A
:1016B0000BF063FD94F82430012B30D00126204636
:1016C00084F82460FFF74AFE054620BB154B6846A8
:1016D0000093FFF743FE48B184F824503546A36ACF
:1016E00043F01003A36228460CB070BD2368206A43
:1016F0009A6822F480729A605A6822F470225A60C2
:1017000000F029F90546A36A23F4885323F0010366
:1017100043F00103A362002384F82430E3E70225A9
:10172000E1E700BF0028014090F8243010B5012BFC
:1017300002461FD00123046880F82430A368DB0729
:1017400012D40D4B9B6813F001030DD10B4884425A
:101750000AD16068096820F470200143184661606E
:10176000002382F8243010BD936A012043F0200347
:101770009362F5E70220F6E70028014000240140CB
:10178000074A0002D36800F4E06023F4E0631B041E
:101790001B0C43F0BF6343F400330343D360704733
:1017A00000ED00E0174B70B5DC684FF0FF36C4F376
:1017B0000224C4F10705042D04F1040328BF042505
:1017C000062B98BF002406FA05F388BF033C21EAE4
:1017D0000303A34006FA04F422EA0404002843EABF
:1017E0000403A8BF00F160404FEA0313B8BF064AE4
:1017F000DBB2ABBF00F5614000F00F0080F80033B2
:10180000135470BD00ED00E014ED00E0002808DB8B
:101810000123420900F01F0003FA00F0014B43F8D6
:101820002200704700E100E000280DDB012243099F
:1018300000F01F0002FA00F0044A203342F82300AF
:10184000BFF34F8FBFF36F8F704700BF00E100E021
:101850000138B0F1807F0AD2F021064B064A586069
:1018600082F823100020072298601A607047012038
:10187000704700BF10E000E000ED00E010B530B3AD
:1018800014220168134B0B44B3FBF2F39B00036477
:10189000114B0A68C363D0E901342343C46822F4BE
:1018A0007F522343046922F03002234344692343D7
:1018B00084692343C469234313430B60012200233B
:1018C00080F82120836380F82030184610BD012065
:1018D000FCE700BFF8FFFDBF00000240F0B590F844
:1018E0002040012C35D0012490F8215080F8204070
:1018F000A5424FF000064FF0020428D180F82140A5
:1019000004688663266826F001062660D0E90F6722
:10191000BD407560636043680568102BC36A0BBFE8
:10192000A260A160E160E2604BB1236843F00E0366
:10193000002023602B6843F001032B60F0BD236877
:1019400023F004032360236843F00A03F0E780F8E0
:1019500020600220F2E790F82130022B06D0042309
:101960008363002380F82030012070470368C16B37
:101970001A6822F00E021A601A6822F001021A6038
:101980000122036C02FA03F34B60002380F821204C
:1019900080F820301846704770B40425C66B026C7E
:1019A0003468036895402542196832D04D0730D518
:1019B0001A6896065EBF1A6822F004021A603E4A50
:1019C000934219D01432934218D01432934217D054
:1019D0001432934217D01432934217D014329342E8
:1019E0000CBF4FF480034FF08063344A5360C36AE6
:1019F000002B5ED070BC18470423F6E74023F4E7C1
:101A00004FF48063F1E74FF48043EEE74FF4802317
:101A1000EBE702259540254235D08D0733D51A686E
:101A2000940606D41A6822F00A021A60012280F88D
:101A30002120214A934219D01432934218D01432F3
:101A4000934217D01432934217D01432934217D0D6
:101A5000143293420CBF4FF400134FF00073174A37
:101A60005360002380F82030836AC1E70223F6E741
:101A70002023F4E74FF40073F1E74FF40053EEE74F
:101A80004FF40033EBE708259540254211D00907B4
:101A90000FD5196821F00E011960012303FA02F233
:101AA0007260836380F82130002380F82030036B5C
:101AB0009EE770BC704700BF080002400000024073
:101AC0002DE9F74F00242646654BDFF8A4C1DFF867
:101AD000A4E10A6832FA06F502D103B0BDE8F08F3E
:101AE0004FF0010808FA06F802EA080290457ED194
:101AF0004D68122D00F0A98000F28280022D00F0C6
:101B0000A18076D8002D00F08880012D00F098800B
:101B10004FF00F09FF2A93BF824606F18045083D2A
:101B2000D0F800B092BFB500D0F804B0AD0009FA0B
:101B300005F82BEA080804FA05F588BF00F1040A45
:101B400048EA0505CAF80050D1F804A01AF0805FF1
:101B50004DD0444F26F00308BD6908F1804845F098
:101B60000105BD61BD6908F5803805F001050195E5
:101B700006F0030B019D4FEA8B0BD8F8085009FAC9
:101B80000BF925EA0909384DA84263D005F58065AF
:101B9000A84261D005F58065A8425FD005F5806553
:101BA000A8420CBF0325042505FA0BF545EA0905F3
:101BB000C8F808501D681AF4803F14BF15439543B8
:101BC0001D605D681AF4003F14BF154395435D60C6
:101BD0009D681AF4801F14BF154395439D60DD680E
:101BE0001AF4001F14BF2A4325EA0202DA60013604
:101BF0006FE7032D22D0112D8AD1CC68043487E7FA
:101C00001A4FBD4209D012D8DFF86C904D4504D070
:101C100009F580394D457FF47BAF8C68C4B1012C48
:101C20000CBFC0F81080C0F81480082470E7654528
:101C3000F3D07545F1D0DFF84490EBE7002467E777
:101C4000CC6865E7CC68083462E7CC680C345FE7A1
:101C500004245DE70025A7E70125A5E70225A3E702
:101C60000004014000100240000801400000211063
:101C7000000031100000321000001110000022108E
:101C80008368194214BF0120002070470AB1016126
:101C900070470904FBE7016800224B6913F4806375
:101CA00010D06FF480634B612023026380F83D30D5
:101CB00080F83E20036C80F83C2043F0040303646A
:101CC00001207047184670472DE9F041044616463A
:101CD00098468FB22568686937EA000017D06B69AB
:101CE0005A0516D52B68202243F400732B606FF43D
:101CF00080636B610023236384F83D2084F83E30C9
:101D0000226C42F004020120226484F83C30BDE8D9
:101D1000F081731CDFD0FFF7B3F9A0EB0800B042ED
:101D200001D8002ED6D100232022236384F83D2041
:101D300084F83E30226C42F02002E4E770B504469D
:101D40000D46164623685B695B0701D5002070BD10
:101D50002046FFF7A0FFA8B96A1CF3D0FFF790F95F
:101D6000801BA84201D8002DECD100232022236340
:101D700084F83D2084F83E30226C84F83C3042F0F8
:101D8000200222640120E2E770B504460D461646A3
:101D90002068436913F0400301D0002010E042693D
:101DA000D2060ED56FF0100242612022236384F820
:101DB0003D2084F83E30226C0120226484F83C30BF
:101DC00070BDFFF75DF9801BA84201D8002DDFD15F
:101DD00000232022236384F83D2084F83E30226CC7
:101DE00042F02002E8E72DE9F843044690461F46FA
:101DF000089E4FEA11498DB22168B9F1010F0CBF5D
:101E00004B698B6935EA03030CBF01230023984516
:101E100001D0002016E07B1CEFD0FFF731F9801BCA
:101E2000B84201D8002FE7D10023202201202363EC
:101E300084F83D2084F83E30226C84F83C3042F037
:101E400020022264BDE8F88370B504460D461646AC
:101E500023685B691B0601D5002070BD2046FFF793
:101E60001AFFA8B96A1CF3D0FFF70AF9801BA84231
:101E700001D8002DECD100232022236384F83D20DB
:101E800084F83E30226C84F83C3042F02002226418
:101E90000120E2E72DE9FF411546026898461368E4
:101EA0000B9E43F4807313600F460A9B009600223A
:101EB0004FF001110446FFF796FF236838B11B6805
:101EC000DB0502D54FF40073236403200AE007F01A
:101ED000FE071F610A9A334618492046FFF7F4FEB1
:101EE00018B1012004B0BDE8F081236803905A695D
:101EF0000A9903929B69324603932046039BFFF79E
:101F0000A3FF40B1236C042B01BF2268136843F484
:101F100000731360E5E7B8F1010F236802D1EDB259
:101F20001D61DFE72A0A1A610A9932462046FFF747
:101F30008BFF0028E6D12368F1E700BF0200010013
:101F40002DE9FF419846036816461A680B9D42F436
:101F500080621A601A680F4642F480721A604FF06D
:101F600001110A9B009500220446FFF73CFF2368FD
:101F700048B11B68DB0502D54FF4007323640320CE
:101F800004B0BDE8F081FFB207F0FE021A612A49F1
:101F90002B460A9A2046FFF797FE08B10120EFE78B
:101FA000236803905A690A9903929B692A4603930E
:101FB0002046039BFFF748FF40B1236C042B01BF71
:101FC0002268136843F400731360E7E7B8F1010F68
:101FD000236825D1F6B21E612A460A992046FFF7EA
:101FE00033FF02460028E8D1216820460B6843F4FD
:101FF00080730B600A9B00954FF00111FFF7F3FE11
:1020000023680028B5D147F001071F610A9A2B46C3
:1020100009492046FFF758FE003018BF0120AFE7FE
:10202000320A1A610A992A462046FFF70DFF002856
:10203000C3D12368CEE700BF0200010070B504469B
:1020400008B9012070BD90F83D3003F0FF021BB9C4
:1020500080F83C200AF0F8FB242384F83D30236804
:102060001A6822F001021A601A6842F400421A60EB
:102070001A6822F400421A6000F088FD6368414A41
:1020800093424DD8404A9042DBD940492268B0FB88
:10209000F1F1556825F03F050D435560156A25F0AF
:1020A0003F05013129431162D169364D21F44F4179
:1020B000AB4221F0FF0100F1FF3048D85B00B0FBDC
:1020C000F3F0431CC3F30B03042B38BF04230B436F
:1020D000D3611168D4E9073021F0C00103430B43F9
:1020E00013609168D4E9030321F40341034321F011
:1020F000FF010B439360D168D4E9053021F0FF0163
:1021000003430B43D3601368002043F001031360C3
:102110002023206484F83D30206384F83E0091E75A
:102120001B4A90428DD9194E4FF49671B0FBF6F6CA
:1021300022687143556825F03F0535434FF47A76A0
:102140005560156AB1FBF6F125F03F05A9E7A568D2
:1021500055B903EB4303B0FBF3F0431CC3F30B038C
:102160006BB143F40043B2E719256B43B0FBF3F0C6
:10217000431CC3F30B0313B143F44043A7E701230C
:10218000A5E700BFA08601007F841E0040420F002B
:10219000FF083D002DE9F743044699460F46904657
:1021A0000C9EFEF76DFF94F83D300546202B03D0C2
:1021B000022003B0BDE8F0830090192301223B49BF
:1021C0002046FFF710FE0028F2D194F83C30012B96
:1021D000EED0012384F83C30236820461A68D107EA
:1021E00058BF1A6839465CBF42F001021A601A688B
:1021F00022F400621A60212384F83D30402384F8E1
:102200003E30002323640A9BCDE900656362BDF87C
:102210002C3042466385638D2385254BE3624B4614
:10222000FFF738FE00282AD00120C2E7FFF70CFE96
:1022300040B1236C042B01BF2268136843F4007380
:102240001360F1E7636A27681A4612F8011B3961C7
:102250006262628D218D013A92B262857A69481E6E
:1022600080B2520720850AD548B15A7802333A61C4
:102270006362638D0239013B9BB221856385238DA7
:102280002A4631462046002BD0D1FFF757FD0028C3
:10229000CFD12268136843F400731360202384F8BD
:1022A0003C0084F83D3084F83E0082E702001000D4
:1022B0000000FFFF2DE9F04399460023044689B052
:1022C00003930D469046129FFEF7DAFE94F83D30D8
:1022D0000646202B04D00225284609B0BDE8F0832D
:1022E0000090192301228E492046FFF77CFD00282B
:1022F000F1D194F83C30012BEDD0012384F83C302F
:10230000236829461A682046D2075EBF1A6842F041
:1023100001021A601A6822F400621A60222384F80B
:102320003D30402384F83E3000232364109BCDE9E8
:1023300000766362BDF8443042466385638D238531
:10234000784BE3624B46FFF7FBFD054608B10125DC
:10235000C2E7228D236892B904905A6904929A695F
:102360000492049A1A6842F400721A60202384F8D6
:102370003D30002384F83E3084F83C30ACE7012A3D
:1023800032D11A6822F480621A6072B6236805900E
:102390005A6905929A690592059A1A6842F4007280
:1023A0001A6062B6DFF88081DFF88091238D002B00
:1023B000DCD0032B00F29580012B31D13246394617
:1023C0002046FFF7E1FC0028C1D123681A69636A3F
:1023D0001A70636A01336362238D013B2385638D29
:1023E000013B9BB26385E1E7022A1A680ED142F4F1
:1023F00000621A6072B6236806905A6906929A695A
:102400000692069A1A6822F48062C9E742F4806252
:102410001A6007905A6907929B690793079BC1E767
:10242000022B00963B464FF000024146204618D151
:10243000FFF7D9FC00288AD172B623681A6842F4E3
:1024400000721A601A69636A1A70636A0133636200
:10245000238D013B2385638D013B9BB2638562B66F
:10246000B3E7FFF7C0FC00287FF471AF2268136860
:1024700023F48063136072B623681A69636A1A7062
:1024800046F2A812616A4B1C6362238D013B2385CF
:10249000638D013B9BB26385D9F80030B3FBF2F248
:1024A000232353430393039B013B0393039B6BB988
:1024B0002022236384F83D2084F83E30226C42F0D1
:1024C0002002226462B684F83C3040E723685A69EF
:1024D0005007E8D51A6842F400721A601B694B7005
:1024E000B3E7324639462046FFF74EFC00287FF41A
:1024F0002EAF23681A69636A1A70626A531C63629A
:10250000238D013B2385638D013B9BB2638523684B
:10251000596949077FF54AAF1B69537059E700BFF6
:10252000020010000000FFFF04000100E80100208D
:102530002DE9F04F044685B0984689469246FEF74D
:102540009FFD94F83D300546202B03D0022005B0B6
:10255000BDE8F08F0090192301224C492046FFF777
:1025600042FC0028F2D194F83C30012BEED001233C
:1025700084F83C30236801271A68DFF810B1D207CD
:1025800058BF1A6809F0FE095CBF42F001021A60E8
:102590001A6822F400621A60242384F83D30002374
:1025A0002364A3F58033E36222684FF001111368BE
:1025B000204643F480731360434600950022FFF7E2
:1025C00012FC236838B11B68DB0502D54FF4007399
:1025D00023640320BBE7C3F81090FEF751FDA0264B
:1025E000054623685A695B69C2F34002C3F380233E
:1025F00094F83D10A02901D002B9E3B12026236848
:1026000084F83D605A6912F0020F1A6842F40072B1
:102610001A6027D0002203925A691C4903929B69D1
:1026200001220393039B009519232046FFF7DBFB50
:1026300098B101208BE7FEF723FD401B404502D8EF
:10264000B8F1000F01D184F83D6023685A695B69D5
:10265000C2F34002C3F38023CAE784F83D6084F8E4
:102660003C0074E76FF4806259465A612046009539
:1026700019230122FFF7B7FB0028DAD101375745AC
:1026800092D384F83D6084F83C00D2E70200100049
:1026900090F83D00704700000122014B1A6070471E
:1026A00020000E422DE9F341054608B901203CE027
:1026B0000368DB0710D42B689F075DD42B681907CC
:1026C00000F194802B685A0700F1BE80E869002869
:1026D00040F02C81002028E08F4C636803F00C034D
:1026E000042B07D0636803F00C03082B09D163683F
:1026F000DE0306D523689C03DDD56B68002BDAD199
:10270000D4E76B68B3F5803F12D1236843F480337C
:102710002360FEF7B5FC064623689803CBD4FEF78A
:10272000AFFC801B6428F7D9032002B0BDE8F0811C
:102730009BB9236823F480332360236823F4802328
:102740002360FEF79DFC064623689903B3D5FEF788
:1027500097FC801B6428F7D9E6E7B3F5A02F236820
:1027600003D143F480232360CFE723F48033236035
:10277000236823F48023CBE7674C636813F00C0FC6
:1027800007D0636803F00C03082B10D16368DA03E9
:102790000DD423689B0702D52B69012B86D12368B2
:1027A0006A6923F0F80343EAC203236086E72A69D3
:1027B0005A4B6AB101221A60FEF762FC0646236892
:1027C0009F07ECD4FEF75CFC801B0228F7D9ABE72F
:1027D0001A60FEF755FC0646236898077FF56EAF32
:1027E000FEF74EFC801B0228F6D99DE7AA694A4CE9
:1027F0004B4BDAB101221A60FEF742FC0646636ACF
:102800009B070DD54FF4FA52464B1B68B3FBF2F30E
:10281000019300BF019B5A1E0192002BF9D151E791
:10282000FEF72EFC801B0228E9D97DE71A60FEF72F
:1028300027FC0646636A9F077FF544AFFEF720FC3E
:10284000801B0228F6D96FE7334CE369D80024D403
:102850000127E36943F08053E361E36903F08053A8
:102860000093009B304E3368D90518D5EB68012BD7
:1028700026D1236A43F001032362FEF701FC41F2F3
:1028800088368046236A9B073FD5002F3FF41EAF52
:10289000E36923F08053E36118E70027E2E7336838
:1028A00043F480733360FEF7EBFB80463368DA0550
:1028B000DCD4FEF7E5FBA0EB08006428F6D933E78B
:1028C000ABB9236A41F2883823F001032362236AFB
:1028D00023F004032362FEF7D3FB0646236A98071E
:1028E000D3D5FEF7CDFB801B4045F7D91CE7052B60
:1028F000236A03D143F004032362BAE723F0010300
:102900002362236A23F00403B6E7FEF7B9FBA0EBCA
:102910000800B042B6D907E700100240000042426A
:1029200080044242E8010020007000402A4B5A68AF
:102930001C4602F00C02082A3DD00023274E022834
:1029400033602BD1FEF79CFB0746236899011FD407
:102950002B6AB3F5803F05D16268A96822F4003282
:102960000A436260696A62680B4322F4741213437B
:10297000636001233360FEF783FB054623689A01F9
:102980003FF5A8AEFEF77CFB401B0228F6D9CBE64C
:10299000FEF776FBC01B0228D7D9C5E6FEF770FB11
:1029A000054623689B017FF595AEFEF769FB401B4A
:1029B0000228F6D9B8E601283FF4B7AE58682B6A6A
:1029C00000F480329A427FF471AE6B6A00F47010AA
:1029D000C01A18BF0120A8E6001002406000424261
:1029E00030B5184B87B002AC03F1100522461868C9
:1029F0005968083303C2AB421446F7D140F20123B1
:102A00001149ADF804304B6803F00C02082A17D1C5
:102A1000C3F3834206A80244DB0312F8102C0CD542
:102A20004B680A48C3F34043504306AA134413F8C3
:102A3000143CB0FBF3F007B030BD05485043FAE753
:102A40000248F8E714DA00080010024000127A0089
:102A500000093D002DE9F0410D46044610B9012062
:102A6000BDE8F081444A136803F007038B4228D382
:102A700021688E0730D4CA0743D43F4A136803F055
:102A80000703AB4265D822683C4D12F0040F6CD1AD
:102A9000130706D56B68226923F4605343EAC20327
:102AA0006B60FFF79DFF6B68354AC3F30313D35C7C
:102AB000D840344B1860344B1868FEF79FFA00205A
:102AC000CEE7136823F007030B431360136803F08A
:102AD00007038B42C3D1CBE7284B11F0040F1EBF75
:102AE0005A6842F4E0625A60080742BF5A6842F4EA
:102AF00060525A605A68A06822F0F00202435A609D
:102B0000B9E762681D4E012A33681AD113F4003FF9
:102B1000A5D0736841F2883823F003031343736030
:102B2000FEF7AEFA07467368626803F00C03B3EB76
:102B3000820FA2D0FEF7A4FAC01B4045F3D90320B0
:102B40008EE7022A02D113F0007FE1E713F0020FB3
:102B5000DEE7136823F007032B431360136803F0C9
:102B60000703AB427FF47BAF8DE76B68E16823F42A
:102B7000E0630B436B608BE70020024000100240D3
:102B80006BE70008E8010020E4010020044B054A3F
:102B90005B68C3F30223D35C034A1068D8407047D4
:102BA000001002407BE70008E8010020044B054AC2
:102BB0005B68C3F3C223D35C034A1068D8407047F4
:102BC000001002407BE70008E801002003682DE9BF
:102BD000F341D907054620D5354CE369DA0032D4F4
:102BE0000127E36943F08053E361E36903F0805315
:102BF0000193019B2F4E3368DB0526D5236A13F41E
:102C0000407336D1236A6A6823F440731343236206
:102C10001FB1E36923F08053E3612868830706D579
:102C2000234AA968536823F440430B43536010F0D0
:102C300010001BD01E4AE9685368002023F480036B
:102C40000B43536012E00027D4E7336843F48073EA
:102C50003360FEF715FA80463368D805CED4FEF708
:102C60000FFAA0EB08006428F6D9032002B0BDE8F3
:102C7000F0816A6802F440729A42C3D001200E4A81
:102C8000236A1060002023F4407110602162D9078C
:102C9000B8D5FEF7F5F941F288380646236A9A0757
:102CA000B0D4FEF7EDF9801B4045F7D9DDE700BF52
:102CB00000100240007000404004424270B50446DB
:102CC000344B86B002AD03F110062A4618685968E5
:102CD000083303C2B3421546F7D140F20123022C58
:102CE000ADF8043047D0102C17D0012C4FD140F252
:102CF0000231294A136A1940B1F5817F44D003F4A7
:102D00004073B3F5007F2DD149F64040536A13F06C
:102D1000020F08BF002006B070BD1F4B596818682D
:102D200010F08070F7D0C1F3834206A8024412F875
:102D3000100CCA0341BF5A6806A9C2F34042521898
:102D400044BF12F8141C154A5B684CBFB2FBF1F289
:102D5000134A5B0202FB00F0DDD403234000B0FB0A
:102D6000F3F0D8E7B3F5407F11D113684FF2244058
:102D700013F4003FCDE7FFF719FF074B5B68C3F380
:102D8000813301335B00EAE74FF40040C3E70020E2
:102D9000C1E700BF24DA00080010024000127A00E8
:102DA00000093D00036830B59A69D869996995B200
:102DB0008CB2A54217BFD86980B280B240EA014008
:102DC00008BF40EA024030BD0368186A5B6A9BB2E4
:102DD00043EA004070470023092803D840EA031063
:102DE000C0B270470A380133C0B2F5E70A220309BE
:102DF00000F00F0002FB0300C0B2704730B517258A
:102E000009234D43022900F5FA64B5FBF3F517D801
:102E1000043200F2CF7310194FF4C872B3FBF2F210
:102E2000284400EB930010446422B3FBF2F3C01A71
:102E30000723B0FBF3F3C3EBC303C01AC0B230BD2A
:102E40004FF4C873901C64222044B4FBF3F328446D
:102E500000EB9400B4FBF2F41844001BE8E738B52B
:102E60000446FEF70DF9054623685A68920605D513
:102E700000205A6842F010025A6038BDFEF700F98F
:102E8000401BB0F57A7FEFD90320F6E7026838B52A
:102E90005368044623F010035360FEF7F1F805462B
:102EA00023685B689B0601D5002038BDFEF7E8F873
:102EB000401BB0F57A7FF3D90320F6E738B5054615
:102EC0000C46FFF7CCFF58B92B68220CA4B29A61CC
:102ED0002846DC61FFF7DAFF003018BF012038BD5B
:102EE0000120FCE738B505460C46FFF7B8FF58B996
:102EF0002B68220CA4B21A6228465C62FFF7C6FF58
:102F0000003018BF012038BD0120FCE770B5044631
:102F1000E0B1D9B1037C0226012B46D001234674CF
:102F2000037408784E78897892B93C254FF4616330
:102F3000754303FB0050451829462046FFF7BEFFA6
:102F40000646B0B1042363740023237401262CE0E9
:102F5000FFF74CFF05463046FFF748FF3C23584338
:102F60004FF4616303FB05050846FFF73FFF054487
:102F7000E2E722682046536823F005035360FFF719
:102F800023FF431C0DD085420BD900F5A83101F574
:102F9000C0712046FFF7A6FF18B10423267463749E
:102FA000D4E70123637400232374304670BD00000E
:102FB0002DE9F8430D469046044610B90120BDE8BE
:102FC000F8830029FAD003685B685E07F6D4FFF740
:102FD000E9FE4FF46162B0FBF2F3074602FB130215
:102FE0003C20B2FBF0F100FB1122172B6970AA7094
:102FF00040F28D801821B3FBF1F201FB1233204621
:103000002B70FFF7E1FE411C064604D087422CBF1F
:103010004FF0FF36C61B404B2046B7FBF3F903FBCE
:1030200019794946FFF74AFF0028C7D1721C2ED0F4
:1030300009EB06012046FFF755FF0028BED1364BAD
:103040000026B7FBF3F74FF0640C4FF4C87E40F254
:10305000D529E07B617BA27BB7421AD8C9B2D2B234
:10306000E0736173A273FFF7C9FE2073B8F1000F1C
:103070000BD02878FFF7AFFE28706878FFF7ABFE1B
:103080006870A878FFF7A7FEA870002097E7314680
:10309000D0E74B1E092B0ED829FA03F3DB0738D4EF
:1030A00021F00203042B01D0092B0DD11D2A0FD9C9
:1030B0000131012206E00C29F2D11E2A08D9012291
:1030C000114601300136C7E70229FBD11B2A01D87E
:1030D0000132F7E71C2A13D182B2930712D1B2FB57
:1030E000FCF30CFB13239BB27BB9B2FBFEF30EFB8C
:1030F00013239BB2002B0EBF1D2201220321E1E707
:103100001D2ADFD101220321DCE71D22DAE72B7023
:10311000ACE71E2ACBE700BF805101002DE9F34741
:10312000924600228846ADF804208DF80620044619
:1031300018B9012002B0BDE8F0870029F9D0037C5E
:10314000012B4FF0020355D001214374017401A9F2
:10315000FFF72EFF0028ECD13C264FF461699DF863
:1031600005309DF80450734309FB05359DF8063082
:1031700098F8000098F801701D4498F80280BAF1A0
:10318000000F13D17E4309FB006000EB0801A94248
:103190003CBF01F5A83101F5C0712046FFF7A2FE42
:1031A00090B10423637400232374C2E7FFF71EFE6B
:1031B00001463846FFF71AFE704309FB01014046FD
:1031C000FFF714FE0144E2E723685A6822F0020286
:1031D0005A601A6842F002021A60074B1A6842F4F9
:1031E00000321A609A6842F400329A600123207417
:1031F00063749FE718469DE70004014070B50446DC
:10320000A0B1037C012B4FF002032DD001250268F1
:1032100043741368057423F002031360FFF71FFE65
:10322000064628B1042363740023237401201AE0A6
:10323000236820465A6822F002025A604FF6FF7255
:103240001A625A6202F1804202F20142136823F4C8
:1032500000331360FFF71AFE18B104232674637459
:10326000E4E76574207470BD1846FCE738B5044681
:10327000A8B10268536823F008035360FDF700FF0C
:10328000054623685B681B0701D5002038BDFDF7A4
:10329000F7FE401BB0F57A7FF3D90320F6E7012053
:1032A000F4E7000010B5044670B1437C03F0FF0260
:1032B00013B9027409F0FAFA022320466374FFF787
:1032C000D5FF18B104236374012037E02046FFF7CF
:1032D000C6FD0028F6D12268A068536823F00703D2
:1032E0005360174A18B1116B21F001011163D36AC1
:1032F00023F460730343D3626068431C05D101204B
:10330000FFF7DCFC0028DDD001382268936823F049
:103310000F0343EA10439360D36880B21B0C1B0475
:103320001843D0602046FFF7B1FD012310B10422FD
:103330006274C9E7E0736373A373637410BD00BF65
:10334000006C004070B5044648B102234374FFF797
:1033500086FD064628B104236374002323740125E7
:103360001EE04FF400422368D8619861DA609860EB
:10337000186058602046FFF789FD054618B1042300
:1033800026746374EBE72046FFF770FF226820463F
:10339000536823F00803536009F0B0FA657425748C
:1033A000284670BD70477047036810B51A68044618
:1033B000D10712D55A68D2070FD55B685B070DD5C8
:1033C000FFF7F1FF6FF0040223685A6004232268BC
:1033D0006374536823F00103536010BDFFF7E2FFED
:1033E0000123F4E72DE9F3411C4616460F46054636
:1033F000FDF746FE3444241AFDF742FE8046234B77
:103400001B68C3F3CB3363432A680193936837EA9D
:10341000030301D000202EE0731CF7D0FDF730FE2F
:10342000A0EB0800A04229D32B685A6822F0E002E2
:103430005A606A68B2F5827F0AD1AA68B2F5004F75
:1034400002D0B2F5806F03D11A6822F040021A60F0
:10345000AA6AB2F5005F07D11A6822F400521A6016
:103460001A6842F400521A60012385F85130002393
:10347000032085F8503002B0BDE8F081019B002B9D
:10348000019B08BF0024013BBEE700BFE80100200C
:1034900010B513460A4680210446FFF7A3FF20B16A
:1034A0000320636D43F02003636510BD10B504462F
:1034B000002851D0436A002B4AD14268B2F5827F7E
:1034C00000D0C3610023A36294F8513003F0FF02DF
:1034D00023B984F85020204609F020FA02232268FC
:1034E00084F851301368A06823F0400313606368C8
:1034F00000F4044003F482730343E068A16900F41C
:1035000000600343206900F002000343606900F09B
:103510000100034301F400700343E069090C00F06B
:1035200038000343206A01F0040100F080000343E7
:10353000A06A00F40050034313605160D369002077
:1035400023F40063D3610123606584F8513010BD1A
:103550000023C0E90433B5E70120F8E72DE9F34182
:103560001E4690F850300446012B0D46904600F060
:103570009E80012380F85030FDF782FD074694F8C5
:103580005100C0B2012840F09080002D60D0B8F109
:10359000000F5DD00323002084F85130A3686065DC
:1035A000B3F5004FA4F83680A063A087E087C4E994
:1035B00010002563A4F83480206807D1036823F045
:1035C00040030360036843F4804303600368E268D8
:1035D0005B065EBF036843F040030360B2F5006F13
:1035E00063683ED113B1B8F1010F07D135F8023B42
:1035F000C3602563E38E013B9BB2E386E38E9BB2FF
:10360000A3B93A4631462046FFF742FF002849D188
:10361000A36833B901932368DA6801929B68019328
:10362000019B606D003018BF012011E02268936893
:10363000980705D5236B33F8021BD1602363D9E7C4
:10364000FDF71EFDC01BB042D8D3711CD6D003209D
:10365000012384F85130002384F8503002B0BDE8D3
:10366000F08113B1B8F1010F08D12B780373236BEC
:1036700001332363E38E013B9BB2E386E38E9BB26F
:10368000002BBED023689A68920703D5226B12786C
:103690001A73ECE7FDF7F4FCC01BB042EED3731CC9
:1036A000ECD0D4E720236365B2E70220D0E7022004
:1036B000D4E790F851007047036A70B523F0010316
:1036C0000362036A446882690D6822F073022A4328
:1036D0008D6823F002032B430A4DA8420BD1CD681D
:1036E00023F008032B4324F44074D1E905563543F5
:1036F00023F004032C43446082614A6842630362FE
:1037000070BD00BF002C0140036A70B523F48073C4
:103710000362036A4468C2690D6822F073022A4397
:103720008D6823F4007343EA05230B4DA8420DD1A5
:10373000CD6823F4006343EA052324F44054D1E91F
:103740000556354323F4806344EA05144460C2619E
:103750004A68C263036270BD002C0140036A30B541
:1037600023F480530362036A4468C2690D6822F43B
:10377000E64242EA05228D6823F4005343EA05330A
:10378000064DA84202BF4D6924F4804444EA8514E2
:103790004460C2614A680264036230BD002C01408B
:1037A00090F83D30012B1CD102230F4A80F83D30A8
:1037B000036893420AD0B3F1804F07D0A2F5943248
:1037C000934203D002F58062934204D19A6802F0DA
:1037D0000702062A03D01A6842F001021A6000208C
:1037E00070470120704700BF002C014041F21112C8
:1037F0000368196A114208D140F24442196A114221
:1038000002BF1A6822F001021A60012380F83D30DD
:103810000020704770477047704770477047704787
:10382000036810B51A69044691070ED5DA68920745
:103830000BD56FF002021A6101229B6902779B0788
:1038400077D0FFF7EAFF0023237723681A69500730
:1038500010D5DA6851070DD56FF004021A61022203
:103860009B69227713F4407F204668D0FFF7D5FF8D
:103870000023237723681A6912070FD5DA68100727
:103880000CD56FF008021A610422DB6922779907D0
:1038900020465AD0FFF7C1FF0023237723681A6917
:1038A000D20610D5DA68D0060DD56FF010021A6175
:1038B0000822DB69227713F4407F20464BD0FFF7C4
:1038C000ACFF0023237723681A69D10708D5DA688B
:1038D000D20705D56FF0010220461A61FFF79CFF61
:1038E00023681A69100608D5DA68110605D56FF045
:1038F000800220461A6100F05EFB23681A695206B6
:1039000008D5DA68500605D56FF0400220461A61E6
:10391000FFF785FF23681A69910622D5DA689206B7
:103920001FD56FF020022046BDE810401A6100F05C
:1039300041BB02F0AFFF2046FFF770FF83E702F0C4
:10394000A9FF2046FFF76AFF92E702F0A3FF204697
:10395000FFF764FFA0E702F09DFF2046FFF75EFF40
:10396000AFE710BD1A4A036890420AD0B0F1804F09
:1039700007D0A2F59432904203D002F580629042C3
:1039800015D14A6823F070031343114A90420AD0BC
:10399000B0F1804F07D0A2F59432904203D002F5E7
:1039A0008062904203D1CA6823F4407313434A698A
:1039B00023F08003134303608B68C3620B68836248
:1039C000034B984204BF0B690363012343617047B3
:1039D000002C014010B5044630B390F83D3003F0A0
:1039E000FF021BB980F83C2008F0CAFF02232068C0
:1039F00084F83D30211DFFF7B5FF0123002084F836
:103A0000463084F83E3084F83F3084F8403084F803
:103A1000413084F8423084F8433084F8443084F8EC
:103A2000453084F83D3010BD0120FCE710B5044658
:103A300030B390F83D3003F0FF021BB980F83C2012
:103A4000FFF7E8FE0223206884F83D30211DFFF7D0
:103A500089FF0123002084F8463084F83E3084F842
:103A60003F3084F8403084F8413084F8423084F8A4
:103A7000433084F8443084F8453084F83D3010BD3C
:103A80000120FCE710B5044630B390F83D3003F058
:103A9000FF021BB980F83C20FFF7BDFE022320681F
:103AA00084F83D30211DFFF75DFF0123002084F8DD
:103AB000463084F83E3084F83F3084F8403084F853
:103AC000413084F8423084F8433084F8443084F83C
:103AD000453084F83D3010BD0120FCE7036A70B525
:103AE00023F010030362036A446882690D6822F4BC
:103AF000E64242EA05228D6823F0200343EA0513DB
:103B00000B4DA8420DD1CD6823F0800343EA051385
:103B100024F44064D1E90556354323F0400344EAD8
:103B20008504446082614A688263036270BD00BF9D
:103B3000002C014090F83C3010B5012B044620D0F9
:103B4000012380F83C300C2A0BD8DFE802F0070A8A
:103B50000A0A0E0A0A0A120A0A0A16000068FFF781
:103B6000ABFD002084F83C0010BD0068FFF7B6FFF5
:103B7000F7E70068FFF7C8FDF3E70068FFF7EEFD21
:103B8000EFE70220F0E738B590F83C300446012B0F
:103B900054D0012380F83C300C2A18D8DFE802F01A
:103BA000071717171B1717172C1717173D00006853
:103BB000FFF782FD236809699A6942F008029A6159
:103BC0009A6922F004029A619A690A439A61002074
:103BD00084F83C0038BD0068FFF780FF236809695E
:103BE0009A6942F400629A619A6922F480629A6149
:103BF0009A6942EA0122E9E70068FFF785FD236838
:103C00000969DA6942F00802DA61DA6922F004022D
:103C1000DA61DA690A43DA61D9E70068FFF79EFDE5
:103C200023680969DA6942F40062DA61DA6922F428
:103C30008062DA61DA6942EA0122ECE70220C9E730
:103C400010B584680A4324F47F4442EA03232343E3
:103C5000836010BD90F83C3070B5012B04464FF0E6
:103C6000020019D0012384F83D00206884F83C301C
:103C7000836823F47F4323F0770383600B68402B32
:103C800065D015D8102B0CD007D853B101230020D4
:103C900084F83D3084F83C0070BD202B01D0302BDF
:103CA000F4D1826843F0070322F0700213431AE054
:103CB000602B34D019D8502BE8D14A68CE68016AFD
:103CC000056A21F00A0125F00105056283690A43AE
:103CD00023F0F00343EA061383610262836823F052
:103CE000700343F057038360D0E7702B0CD0B3F51B
:103CF000005FCBD1CB68D1E90121FFF7A1FF22689A
:103D0000936843F4804308E0CB68D1E90121FFF7D1
:103D100097FF2268936843F077039360B6E74D6896
:103D2000CE68016A21F0100101628269036A22F4FF
:103D3000704223F0A00343EA051342EA063282618F
:103D40000362836823F0700343F06703CBE74A689C
:103D5000CE68016A056A21F00A0125F001050562B5
:103D600083690A4323F0F00343EA06138361026286
:103D7000836823F0700343F04703B4E710B50124D0
:103D8000036A01F01F018C4023EA04030362036A03
:103D90008A401A43026210BD10B5044629B990F852
:103DA0003E30012B1DD0012010BD042907D190F811
:103DB0003F30012BF7D1022380F83F3014E008296F
:103DC00007D190F84030012BEDD1022380F840302C
:103DD0000AE090F84130012BE5D1022380F8413010
:103DE00002E0022380F83E3001222068FFF7C6FF80
:103DF00023680E4A93420AD15A6C42F400425A6434
:103E00009A6802F00702062A0BD10020CCE7B3F132
:103E1000804FF5D0064A9342F2D002F58062934279
:103E2000EED01A6842F001021A60EEE7002C014061
:103E300000040040FFF7B0BF10B5044629B990F860
:103E40003E30012B3ED0012010BD04290BD190F84B
:103E50003F30012BF7D1022380F83F302268D3682E
:103E600043F004030CE008290CD190F84030012BFA
:103E7000E9D10223026880F84030D36843F0080398
:103E8000D3600CE090F84130012BDCD102230429EF
:103E900080F841300268E1D00C291BD0A9B1012281
:103EA0002068FFF76BFF2368144A934216D15A6CBF
:103EB00042F400425A649A6802F00702062A17D1B7
:103EC0000020C1E7022380F83E302268D36843F027
:103ED0000203D5E7D36843F01003D1E7B3F1804F75
:103EE000E9D0074A9342E6D002F580629342E2D0DD
:103EF0001A6842F001021A60E2E700BF002C01409C
:103F00000004004090F83C3030B5012B4FF0020324
:103F100025D0012280F83D3003680D685C6880F888
:103F20003C2024F070042C439A685C600D4CA34242
:103F30000AD0B3F1804F07D0A4F59434A34203D044
:103F400004F58064A34204D1496822F080020A4348
:103F50009A60012380F83D30002380F83C301846F9
:103F600030BD00BF002C014090F83C30012B1FD029
:103F7000CB688A6823F4407313434A6823F4806350
:103F800013430A6823F4006313430A6923F480533C
:103F900013434A6923F400531343CA6923F480434B
:103FA000134302685364002380F83C30184670477E
:103FB00002207047704770472DE9F74F0B44DFB27E
:103FC000531CDBB290F8868000933B4605460C46B6
:103FD0009146DDF830A000F022FD30B180264FF090
:103FE000000BA74204D185F8868003B0BDE8F08FAE
:103FF0009AF800301E4212D085F88680CDF800B0C5
:1040000001234A462146284600F06CFC760804F15C
:104010000104E4B204BF0AF1010A8026E1E795F841
:104020008520002AF2D1B8FA88F35B0985F886303A
:104030000092E5E72DE9F3479DF82850DE00F6B23F
:1040400015449946EDB273180095DBB28246884656
:1040500014460B9F00F0E3FC60B902B0BDE8F087A6
:1040600000972246334641465046FFF7A5FF0134EC
:104070004F44E4B2A542F3D1EFE72DE9F7439DF8B1
:1040800028501F461544EDB2CB180095DBB2804690
:104090000E46144600F0C3FC18B14FF00009A542CB
:1040A00002D103B0BDE8F0832246CDF800903B4634
:1040B00031464046013400F015FCE4B2EFE72DE94B
:1040C000F74305460026036890F83C9090F83D7051
:1040D00093F811802B68B1B21B7CF4B2D800414335
:1040E000A86B89B201443A1901340091D2B200217F
:1040F0002846E4B201F0E5F8A14504D90136BB1920
:10410000DBB29845E6D803B0BDE8F0830368002130
:104110001A7C90F83C30806BDB005A4309F02DB8D4
:1041200010B50446FFF7CBFF2046BDE8104001F074
:10413000F1B810B50446436B80F83D101B689847F2
:10414000636B2046BDE810405B68184710B590F8D7
:10415000873004460BB1FFF7D9FF2046BDE8104079
:104160000021FFF7E6BF38B50446FFF7A8FF94F833
:104170003D5094F83C1023680D445B7CEDB2AB429B
:1041800004D8204601F0C6F8002038BD94F88730E6
:1041900013B12046FFF7BAFF20462946FFF7C9FFB3
:1041A0000120F2E72DE9F0479DF82490804619F0B0
:1041B000010F0C4616461D469DF8207010D0531C6A
:1041C0006918BA1ADBB2D2B2C9B200F0FAFB631CAA
:1041D0003A1BA919DBB2D2B2C9B2404600F0F1FBDA
:1041E00019F0020F11D0731CBA1B291BDBB2D2B21B
:1041F000C9B2404600F0E5FB631C3A1BA91BDBB2C9
:10420000D2B2C9B2404600F0DCFB19F0080F0FD063
:10421000731C2919DBB23A46C9B2404600F0D1FB03
:10422000631CA919DBB23A46C9B2404600F0C9FB8B
:1042300019F0040F11D0731C291B3A464046DBB21B
:10424000C9B200F0BEFB631CA91B3A464046BDE85C
:10425000F047DBB2C9B200F0B4BBBDE8F0872DE98E
:10426000F74F91461C4609F10105013325440B44E3
:104270008846121B091BEDB20095DBB2D2B2C9B25F
:1042800082469DF830B000F0CAFB88B1CDE9009BB2
:104290004346224600215046FFF784FF0026C4EB28
:1042A000C417C4F101057F006DB27FB2B44202D8D9
:1042B00003B0BDE8F08F002D06DB0237FBB2013CF6
:1042C0001D44E4B25FB26DB20136F6B205EB4605AD
:1042D0000135CDE9009B43462246314650466DB23A
:1042E000FFF760FFE2E710B50446FFF72FFF204617
:1042F000FFF739FF01460028F9D12046BDE81040FC
:10430000FFF717BF08230370004870473D0C0020DB
:1043100030B585B00D46009309491346094A044655
:1043200001F01CF80DF10F00FFF7ECFF9DF80F20D6
:1043300001460095044B204600F044FE05B030BD18
:104340002152000803510008434B00084218435C07
:10435000507800EB032080B27047012B07D003D3C5
:10436000022B06D0401A00E01044C0B27047084447
:10437000FBE7801AF9E7012B07D003D3022B06D005
:10438000104400E00844C0B27047801AFBE7401AAE
:10439000F9E70020704738B50B780D4603704B786D
:1043A000044643708B788370CB78C3700B790371AC
:1043B0004B7943718B798371CB79C3710B7A03721B
:1043C0004B7A43728B7A8372CB7AC3720B7B037303
:1043D0004B7B43738B7B8373CB7BC3730B7C112130
:1043E00003742846FFF7B2FF132160822846FFF7C7
:1043F000ADFF1521A0822846FFF7A8FFE08238BD57
:1044000070B5847A066862183378D2B2072A43FA04
:1044100004F507D8EBB282724FF0FF30884023EAF0
:10442000000070BD731C03607378C4F10804E4B22B
:10443000A3402B43083ADBB2D2B2ECE738B50023F5
:1044400000F15805044680F86230816590F86C10E0
:104450002846FFF7D5FF94F86D1084F860002846D1
:10446000FFF7CEFF94F8863084F8610084F864305A
:10447000B3FA83F35B0984F8653038BD10B5FFF7F4
:10448000BFFF01234C1EE4B2A340C01A40B210BDCE
:104490002DE9F04F04460E4687B090F85E8090F804
:1044A0005F70059294F860503346A5EB0805EDB2B5
:1044B000AE4228BF2B4694F86690029394F85D3084
:1044C0004FFA88FA4FFA87FB5A46049351464B46F7
:1044D00094F85C00FFF74FFF03900498FFF73DFF4F
:1044E000059B02469BB194F8643084F88630CDF881
:1044F0000090DDE90231204600F0F4F9AE420DD320
:10450000761B0137F6B2FFB24FF00008CAE794F805
:104510006330002BF2D194F86530E6E7464484F826
:104520005E6084F85FB007B0BDE8F08F2DE9F04F12
:10453000044685B000F15809FFF780FF94F9613017
:1045400094F86E1048460293FFF798FF94F86F10A6
:1045500083464846FFF792FF94F87010804648461D
:10456000FFF78CFF94F960600390002E52DD9DF8F8
:10457000085094F866A0A844C8F100084FFA88F8DB
:1045800053464246594694F85C00FFF7F4FE84F81F
:104590005C00074694F85D00FFF7DFFE84F85D00DD
:1045A000BAF1030F58D8DFE80AF00239424EBB19BE
:1045B0000544DBB2E9B2009102463946204600F0DC
:1045C0002EFA38B30023A4F85E3094F86A104846F7
:1045D000FFF716FF94F86B1006464846FFF710FFEA
:1045E0000546002231462046FFF752FF2946204665
:1045F0000122FFF74DFF01214846FFF701FF002888
:10460000EFD194F95F30029A9342DEDB94F8643084
:1046100084F88630039805B0BDE8F08FC5F1010538
:104620007A1906440137FBB2F1B2D7B2C3E7C6F13B
:104630000106C5F10105411CBA1905440137FBB259
:10464000C9B2E8B2F1E7C6F10106411CEB19064414
:10465000DBB2C9B2F0B2AEE701463B46ABE7036D51
:10466000FF2970B503F117030D4612D8602909D947
:10467000B0F87C201344587818B11A78AA4206D1B1
:10468000981C70BD4029F6D9B0F87A20F2E70344AF
:10469000F1E7B0F87E401C44264600213046FFF783
:1046A00055FE022104443046FFF750FE854206F1D4
:1046B0000406F2D8208840BA80B20028E1D08542B2
:1046C00001D1E01CDDE7A3781C44F3E738B50446CC
:1046D000FFF7C5FF0146B8B104F158052046FFF7C2
:1046E000ADFE94F86E102846FFF7C8FE94F86F10E0
:1046F00084F884002846FFF7C1FE94F8701028461D
:10470000BDE83840FFF7BABE38BD2DE9F8430025B3
:104710000F4680F8605006462C4600F07BFC4FF6B2
:10472000FF784FF6FE79013F17F8011F7368304696
:1047300098474045014608D04845F5D03046FFF738
:10474000C5FFC5B22C44E4B2EEE796F9602032B161
:1047500096F8843013441C44641B04F0FF04204684
:10476000BDE8F883F8B51F4690F8663004460E465B
:104770001546032B07D8DFE803F002151A1E436D18
:1047800098470544EDB284F85C6084F85D50394682
:104790002046FFF764FF20B101462046FFF7C6FE22
:1047A000C0B2F8BD436D9847361AF6B2EBE7436DD9
:1047B00098472D1AE6E7436D98470644F5E72DE93B
:1047C000F0471E4607460C4615464FF0000A00F01B
:1047D00021FC4FF6FF784FF6FE79013E7B6816F814
:1047E000011F38469847404503461BD04845F5D041
:1047F0002A4621463846FFF7B5FF97F86630032B67
:1048000005D8DFE803F002080B0D0444E4B250447D
:104810005FFA80FAE2E70544EDB2F8E7241AF5E71B
:104820002D1AF9E75046BDE8F087000010B4024C9D
:10483000446010BCFFF7C3BF05500008036D10B5FE
:10484000C3B190F9754090F9761090F8813080F8F6
:10485000824080F883106BB1012B0CD190F9773036
:104860009C42B8BF80F8823090F97830994201DDDF
:1048700080F8833010BD90F9742090F972301344A1
:104880009C42B8BF80F882309142C8BF80F8832034
:10489000F0E70000014B4365704700BF93430008F9
:1048A000026D10B58A42044608D021656830FFF7D2
:1048B00072FD2046BDE81040FFF7C0BF10BD0000EC
:1048C000014B4360FFF721BF0550000870B490F81A
:1048D00040409DF80C60121B046B0396A44670BC0C
:1048E000D2B2604770B490F880409DF80C50002C14
:1048F0003AD0002B38D0012B04D9022D2BD1013115
:10490000C91AC9B215F0010530D190F84740944258
:104910002AD890F84840944226D90B44DBB28B4207
:1049200090F8456090F846401CD28C4219D9631E1D
:10493000DBB29E4218D2B14238BF31469C4294BF8E
:10494000C1EB0404C1EB0304E3B2446B0395A46818
:10495000A44670BC6047032D02BF0132D21AD2B206
:10496000D0E731468C42E4D870BC704790F845409F
:104970008C42F9D890F846408C42F5D91344DBB20A
:10498000934290F8476090F8484010D294420DD975
:10499000631EDBB29E42E7D2B24238BF32469C422F
:1049A00094BFC2EB0404C2EB0304CDE73246944249
:1049B000DAD9EFE713B500240094FFF793FF02B0B4
:1049C00010BD13B501240094FFF78CFF02B010BD99
:1049D00073B590F84760964210D890F848609642B8
:1049E0000CD990F845508D4208D890F846308B424B
:1049F00004D9002300930123FFF774FF02B070BDB8
:104A00008A4206D2834208D89A4294BF00200120ED
:104A100070478342F8D8002070470120704770B576
:104A200004460D461E4690F848109DF8103090F848
:104A30004700FFF7E5FF48B133462A4694F8461091
:104A400094F84500BDE87040FFF7DABF70BD2DE96E
:104A5000F74F1D469DF83030A9428CBF4F1B6F1A8F
:104A60009A4201900C461646FFB20AD9A2EB0308FF
:104A70005FFA88F8474524D3A9424AD84FF0000985
:104A80000FE0A3EB02085FFA88F847454CD23A469C
:104A9000474690462A4634461D460E4613464FF07A
:104AA00001099E4234BF4FF0010A4FF0FF3A47F32D
:104AB000470BFF2D08BFFE25A5420BD203B0BDE872
:104AC000F08F3A464746904632461C462E460B46E5
:104AD0001546E4E7B9F1000F18D132462146ABEB99
:104AE000080B0198FFF774FF5FFA8BF24FFA82FB15
:104AF000BBF1000FBCBF564402EB070B04F10104ED
:104B0000BCBFF6B24FFA8BFBE4B2D5E72246314682
:104B1000E5E71E46234647F3470B2C464FF00009B6
:104B20001D464FF0010AC4E7A942A7D91E462346F5
:104B300047F3470B2C464FF000091D464FF0FF3A54
:104B4000B7E7F0B5012490F8865002F00706B440AC
:104B5000012D9DF81470E4B217D8254617D002F045
:104B6000F80C026892F810E0826B0EFB0C111144F5
:104B70007FB9013BDBB201330B440A782A43624020
:104B800001F8012B9942F8D1F0BD0025E7E7002498
:104B9000E5E70A7801362A436240013B16F0070632
:104BA0000A70DBB20CD190F83E20114490F88620B8
:104BB000012A0AD80BD001242546002BE9D1E3E7CE
:104BC0006D006400EDB2E4B2F7E70124F5E71546A5
:104BD000F3E7B0F90810B0F90A3010B58B4216DDD2
:104BE00082898388C4881A44C38992B223449BB2C1
:104BF0001CB2002C8281C48105DD0488224482819C
:104C000042889B1AC38101310181012010BD00201F
:104C1000FCE7007E0131C9B288428CBF0846002003
:104C20007047037E0139C9B28B429CBF03F1FF314B
:104C3000C9B20846704700002DE9F84318254543DE
:104C40001D4EAC19217DA6F11C0909EB8103B3F9B6
:104C500002804846236939F92170984709EB80039F
:104C6000B3F902C039F92030ACEB0802DB1B9BB270
:104C700019B292B22075002910B26080A4F80AC05F
:104C8000A4F80880A7810EDB0123AB530023E38146
:104C90000B4693FBF0F291FBF0F100FB1233A18085
:104CA000E380BDE8F8834FF6FF775B42C2F1010273
:104CB000AF531BB2E281ECE76C100020F8B518246A
:104CC0000A4D06462F4604FB015494F83010E36A5F
:104CD0003846984705EB8003B3F902300146B342EA
:104CE00002D184F83000F2E7F8BD00BF5010002078
:104CF00000222DE9F041504B504C06466364504B66
:104D00000121E362B4F9023017461D4694F818E019
:104D100084F830205FFA81FCF44561D30AB184F84D
:104D200030705B1B1BB26383002B6DD094F8303066
:104D30000121284684F84830FFF7C0FF00212846AB
:104D4000FFF7BCFF012394F83020637694F84830D5
:104D500034F9222034F923309A424FD0002363766D
:104D60000020B4F91A50FFF767FF0120FFF764FF36
:104D7000637E2BB13348FFF72CFF3348FFF729FF41
:104D8000304F07F11808B4F93C20002A1BDB96F8D5
:104D900044309A4217DAB4F92830B4F9400083421B
:104DA00034DA00280FDB96F843108B420BDA23EA43
:104DB000E3738142D8BF08B2D9B2431ADBB2D2B290
:104DC0003046FFF7F7FD3846FFF703FF68B340466C
:104DD000FFF7FFFE60B3013D2DB2002DD3DC13E0E1
:104DE00004EB8100B0F9020001318342B8BF0346F1
:104DF000A842BEBF6746054601228BE7638B013B95
:104E00001BB26383002BABD1BDE8F081002BDADB52
:104E100096F843108842D6DA0028B8BF002399429A
:104E2000D8BF0BB2C1B25B1AC8E7FFF705FFCAE7EC
:104E30000120FFF701FFCAE7134C000850100020C3
:104E4000234C00086C10002084100020F0B4094CA2
:104E5000BDF91070A3800323BDF91460BDF918508B
:104E600021806280E780268165812376F0BCFFF790
:104E70003FBF00BF5010002070B590F83C40016863
:104E8000E30080F83F300A7C90F83D501F2A28BF8D
:104E90001F22EB00DBB2D20080F8403080F83E20C9
:104EA0004A7C66199642C4BF541BE4B280F8413074
:104EB00003EBC40380F84230F02380F843308B8A40
:104EC000F02B98BF80F84330CB8A80F8443070BD17
:104ED00030B490F844409DF80850A21A90F843402E
:104EE000D2B2611AC9B23DB9013AC91AD2B2C9B235
:104EF000029530BCFFF7EABC012D01BF01F1FF3183
:104F0000D21AC9B2D2B2F3E737B590F84C5090F844
:104F10004A3090F84B2090F8491000950446FFF76E
:104F20007EFD18B984F8800003B030BD012394F8E9
:104F3000452084F8803094F849309A4238BF84F88C
:104F4000453094F8462094F84A309A4288BF84F855
:104F5000463094F8472094F84B309A4238BF84F892
:104F6000473094F8482094F84C309A4288BF84F82F
:104F70004830D9E7002390F8432080F8473080F884
:104F8000453080F8462090F8443090F84220934213
:104F900024BF9A1A80F8472090F841209B1A80F885
:104FA0004830FFF7B1BFFFF767BF002280F8492004
:104FB00080F84B20FF22436B80F84A2080F84C2079
:104FC0005B68184770B50025036301230446049EFF
:104FD00080F83C2080F83D5080F8635080F8855080
:104FE00080F8863080F887308163336805654663D2
:104FF00098472046FFF7D9FF2046FFF74BFC84F87F
:10500000665070BD19B10A2901D088B270474FF6B9
:10501000FF707047002380F82730704710B4046990
:105020000A46A4460023202110BC604710B404693E
:105030001346A4460A4610BC1721604707B502AACA
:1050400002F8011D0121FFF7F1FF03B05DF804FB39
:1050500010B4C4680A46A4460023152110BC60475A
:1050600010B4C4680A46A4460023162110BC604749
:1050700010B4C4681346A4460A4610BC1721604702
:10508000002310B4C4681A46A446182110BC604717
:10509000002310B4C4681A46A446192110BC604706
:1050A00073B505460C462178172919D003D8152960
:1050B0000DD202B070BD19291CD9FE29F9D1627830
:1050C000292128468DF8072000F02CF906E06278A7
:1050D000EE688DF8072000232846B0470234E2E747
:1050E00063780DF10702012128468DF80730FFF79C
:1050F000BFFFF3E70023EE681A4628460134B047A5
:10510000D1E72DE9F0411646A1F1140204460D46FF
:105110009846052A1AD8DFE802F01003030D101094
:105120000021FFF77BFF31462046FFF787FF012074
:10513000BDE8F0810121FFF771FF27694346324640
:1051400029462046BC46BDE8F04160470020EFE715
:105150000B39F8B5044615461F46042955D8DFE833
:1051600001F003540C1B29002AB929492046FFF7F6
:1051700097FF0120F8BD2749F8E73AB92649FFF71C
:105180008FFF23689B7C84F82230F2E72349FFF7E6
:1051900087FF2368DB7CF6E7FFF772FF812120465B
:1051A000FFF756FF29462046FFF75AFF2046FFF734
:1051B0006FFFDEE7FFF764FF7B7994F82260402100
:1051C00006EBC30606F0FF062046FFF741FF310954
:1051D00041F010012046FFF73BFF06F00F0120468B
:1051E000FFF73EFFB979204641F0B001FFF738FFE5
:1051F00039793A68C90001F0F8012046013DFFF70E
:1052000037FF15F0FF05F3D1D0E70020B2E700BF6C
:10521000D3E20008D8E2000890E2000897E2000814
:1052200038B504460D46FFF793FF50B9092D0AD053
:105230000A2D07D1204600F014F805492046FFF753
:105240002FFF012038BD0349204600F005F8F8E79C
:105250009EE20008E0E2000801608B7C80F82230CA
:10526000704738B5002345691A4628210446A847E7
:105270000023E5681A4614212046A847204601224B
:105280004B2100F04FF8236820461A79292100F0BD
:1052900049F8204600224B2100F044F823682046BC
:1052A0001A79292100F03EF8204601224B2100F016
:1052B00039F8236820465A792921BDE8384000F0A2
:1052C00031B813B58DF80620049A8DF8043002AB7E
:1052D0008DF8051043F8082D846801220F21A0479E
:1052E00002B010BD002310B484681A46A4460921F8
:1052F00010BC6047002310B484681A46A4460A21F3
:1053000010BC604710B484680A46A44600230B21F1
:1053100010BC6047002310B484681A46A4461021CC
:1053200010BC604710B444690023A44610BC604719
:10533000002070470023036080F82330C38483611A
:10534000FF23054A80F82430C0E90222C0E9042284
:1053500080F82930704700BF31530008F8B5069D2A
:1053600017461E46FFF7E6FFC0E90217C0E90465CD
:10537000BDE8F840FFF7B6BF012300220370014BE0
:105380001A6470470008004010B5054C4B1E4910C8
:10539000E36210462164FBF779FE0023236410BD0D
:1053A00000080040037823B1A0224FF48E71FFF76C
:1053B000EBBF7047037810B504467BB1A0224FF4D1
:1053C0008E71FFF7E1FF6420FBF760FE2046BDE829
:1053D0001040A0224FF48E71FFF7D6BF10BD0378A6
:1053E00023B1A02240F61831FFF7CEBF70470378F3
:1053F00010B50446C3B1A0224FF48E71FFF7C4FF6D
:105400003220FBF743FE3C2240F618312046FFF7DE
:10541000BBFF3220FBF73AFE2046BDE81040A02239
:1054200040F28C51FFF7B0BF10BD90F88C3013B92B
:1054300090F8510070470020704790F88C3073B599
:1054400004460E46D3B1B0F896502A463146B4F819
:105450004C0007F0DFFB0A2294F88C30A4F84C00D3
:1054600002FB0344B4F874302A460093314600230B
:1054700080B207F0A3FB80B202B070BDB0F88E50CE
:10548000E3E71FB54FF6FF73144643850A466946A6
:1054900003F00EF940B909231DF80310E25C9142B4
:1054A00005D101330E2BF7D1012004B010BD00202F
:1054B000FBE72DE9F04304460026012785B000F103
:1054C0003408404603F076FEF5B2854224DAD4F87B
:1054D000A0304FEA450903EB090213F81530FF2B02
:1054E00001D10136EDE7527802F00302032AF8D128
:1054F0002A466946204603F0DBF80028F1D1D4F8AB
:10550000A0308DF808704B445F702A4669462046EB
:1055100003F007F90028E4D005B0BDE8F0832DE9D9
:10552000F043002407460E464FF0FF09254685B09C
:1055300000F13408404603F03DFE631CE4B28442AF
:1055400006DA06EB440206F8149055701C46F1E7A3
:1055500000252C46384602F061FFA84221DD5FFAA3
:1055600085F94A466946384603F0A2F818B1012881
:1055700017D00135EEE70DF10901404603F026FE94
:105580000028F6DB9DF80830002BF2D016F810103A
:1055900006EB4002FF2902BF06F810900134537059
:1055A000E7E7E0B205B0BDE8F083000070B5343045
:1055B0000C461146164603F0FFFD0546C0B116B174
:1055C00003784E2B08D105222946204607F0CEFE4F
:1055D00000236371204670BD0849204607F0ACFEE9
:1055E00005222946201D07F0C1FE00236372F1E762
:1055F0000349204607F0A0FEECE700BFF8E20008F0
:10560000FDE2000890F88C3023B990F8512002494F
:10561000FFF7CCBF0022FAE7700200202DE9F84F17
:105620009846D0F8A03007460D4616469DF82890BB
:1056300053B9911C0C2202FB08660E360C318E42C7
:105640005AD001F80C3CF9E74A1E5100002A2BDD24
:10565000B9F1000F04D05C186478881EE40725D5E2
:10566000D2B23270D7F8A030384619444B78B11C0A
:105670007370FFF79BFF01244FF00C0B07F1340A06
:10568000504603F097FD854213DB00230C22184699
:1056900002FB04F5E118C9B288452AD902FB03517F
:1056A000314488700133F5E70024E5E7013A01460B
:1056B000CCE7DDB16800B9F1000F05D0D7F8A02024
:1056C00002445378DB0711D50BFB04F3F554F118B2
:1056D000D7F8A030013403445B782A464B70384633
:1056E0000231E4B2FFF762FF444502D20135EDB268
:1056F000C6E72046BDE8F88F0020FBE7C288C38CD0
:105700009A422BD10289038D9A4227D14289438D37
:105710009A4223D1028B038F9A421FD1827E90F846
:105720003A309A421AD1427F90F83D309A4215D1D0
:10573000827F90F83E309A4210D1C27F90F83F307D
:105740009A420BD1C27E90F83B309A4206D1037F39
:1057500090F83C001B1A584258417047002070478F
:105760002DE9F0410546002600F13408284602F0F4
:1057700055FEF4B284421ADB0026404603F01AFDBF
:10578000F4B2844223DAD5F8A03003EB440213F8D4
:105790001430FF2B09D0537813F0010305D1FF21FA
:1057A000537011702046BDE8F0810136E5E700270F
:1057B000404603F0FFFCFBB28342F3DAD5F8A020A9
:1057C000013712F81330A342F2D10136CEE7FF249D
:1057D000E8E7F0B5D0F8A03085B004460E4613B91E
:1057E000002005B0F0BD13F811704D00FF2F2BD134
:1057F000FFF7B6FFFF280746F2D0314604F1340028
:1058000003F0DAFC01460028EAD005220DF1090078
:1058100007F0ACFD01233A46694620468DF8083072
:1058200002F07FFF0028DBD16A4639462046FFF7A9
:1058300028FE0028D4D0D4F8A03003F816701D44F8
:105840009DF808306B70CCE73A46694602F030FFAD
:105850000028C5D19DF808303A4683F00103694617
:1058600020468DF8083002F05CFF0028B8D1D4F84B
:10587000A0309DF808201D446A700120B1E7EB2399
:10588000C3804FF4967303814FF49663438140F6CF
:10589000FC0383813223C38140F2DF230382C823C8
:1058A000438240238382C323C382002303830523CF
:1058B00043834FF4807383834FF44073C3837047F3
:1058C00010B5044602F05EFE04F134010846FFF70D
:1058D000D6FF204602F0A0FE2046BDE81040FFF7AC
:1058E000E8BD0000F8B5CB7F0746DA070C46CE8846
:1058F0000D8907D430B207F09DF986B228B207F0BF
:1059000099F985B2194B30461A88194B198807F056
:1059100081F9184B06461A88174B2846198807F054
:1059200079F9E37F0546DB0717D5B6B280B2A37FCE
:1059300020811E2B88BF1E23E68088BFA3773846B0
:10594000657F03F037FC8542C4BF01236377E37EA4
:105950003C2B84BF3C23E376F8BD30B207F062F9FC
:1059600086B228B207F05EF980B2E0E732DE0008C6
:1059700034DE00082EDE000830DE00082DE9F84392
:1059800081779DF838109146C176C27FBDF83010FE
:1059900002F0010201839DF834109A4204469DF8FA
:1059A00020809DF824709DF828609DF82C50817609
:1059B00035D0B0F906004BB107F03CF9E080B4F9FE
:1059C000080007F037F92081012308E007F02AF9E1
:1059D000E080B4F9080007F025F920810023E3777F
:1059E000B9F1000F03D0E37F43F00203E377B8F18E
:1059F000000F03D0E37F43F00403E3771FB1E37F9D
:105A000043F00803E3771EB1E37F63F07F03E3779E
:105A10001DB1E37F43F01003E377BDE8F883002A6C
:105A2000DCD0D1E7C180704701814281704700F12D
:105A300020031A4650F8041B984242F8041BF9D17F
:105A4000704738B500F1340405462046FFF756FE8E
:105A500040B92146284602F0DFFD2046BDE8384027
:105A6000FFF7E5BF38BD38B50D888C880B897AB152
:105A7000A0F84050A0F84240A0F8443000F13404AF
:105A8000214602F0C9FD2046BDE83840FFF7CFBFF0
:105A9000A0F84650A0F84840A0F84A30EEE700F1E0
:105AA000200303F1200253F8041B934240F8041B27
:105AB000F9D17047007F001100EB80007047007F34
:105AC00000F00F00013000EB8000800070474B2990
:105AD00028BF4B21052A134638BF0523B3F5A07F05
