:020000040800F2
:10000000005000201DD6000889D400088DD40008B7
:1000100091D4000895D4000899D40008000000008D
:100020000000000000000000000000009DD4000857
:10003000A1D4000800000000A5D40008A9D400083D
:1000400065D6000865D6000865D6000865D60008A4
:1000500065D6000865D60008AD6A000865D60008B8
:1000600065D6000865D6000865D60008ADD400083E
:1000700065D6000865D6000865D6000865D6000874
:1000800065D6000865D6000865D6000865D6000864
:1000900065D6000865D6000865D6000865D6000854
:1000A00065D6000865D6000865D60008B9D40008F2
:1000B000C5D4000865D6000865D6000865D60008D6
:1000C00065D6000865D6000865D6000865D6000824
:1000D00065D6000865D6000865D6000865D6000814
:1000E00065D6000865D6000865D600080000000047
:1000F0000000000000000000000000000000000000
:0C01000000000000000000005FF808F1A3
:1001100010B5054C237833B9044B13B10448AFF341
:1001200000800123237010BD5C020020000000004D
:10013000C8E3000808B5034B1BB103490348AFF3FC
:10014000008008BD0000000060020020C8E3000835
:1001500081F0004102E000BF83F0004330B54FEA78
:1001600041044FEA430594EA050F08BF90EA020FE5
:100170001FBF54EA000C55EA020C7FEA645C7FEA78
:10018000655C00F0E2804FEA5454D4EB5555B8BF9B
:100190006D420CDD2C4480EA020281EA030382EA0C
:1001A000000083EA010180EA020281EA0303362D9E
:1001B00088BF30BD11F0004F4FEA01314FF4801C71
:1001C0004CEA113102D0404261EB410113F0004F83
:1001D0004FEA03334CEA133302D0524263EB43033A
:1001E00094EA050F00F0A780A4F10104D5F1200ED8
:1001F0000DDB02FA0EFC22FA05F2801841F1000133
:1002000003FA0EF2801843FA05F359410EE0A5F106
:1002100020050EF1200E012A03FA0EFC28BF4CF037
:10022000020C43FA05F3C01851EBE37101F00045ED
:1002300007D54FF0000EDCF1000C7EEB00006EEBFA
:100240000101B1F5801F1BD3B1F5001F0CD3490884
:100250005FEA30004FEA3C0C04F101044FEA4452DB
:1002600012F5800F80F09A80BCF1004F08BF5FEA62
:10027000500C50F1000041EB045141EA050130BD42
:100280005FEA4C0C404141EB010111F4801FA4F1E5
:100290000104E9D191F0000F04BF01460020B1FA3A
:1002A00081F308BF2033A3F10B03B3F120020CDA72
:1002B0000C3208DD02F1140CC2F10C0201FA0CF050
:1002C00021FA02F10CE002F11402D8BFC2F1200CB5
:1002D00001FA02F120FA0CFCDCBF41EA0C0190406B
:1002E000E41AA2BF01EB0451294330BD6FEA0404B4
:1002F0001F3C1CDA0C340EDC04F11404C4F120029F
:1003000020FA04F001FA02F340EA030021FA04F3B0
:1003100045EA030130BDC4F10C04C4F1200220FA07
:1003200002F001FA04F340EA0300294630BD21FA45
:1003300004F0294630BD94F0000F83F4801306BF0B
:1003400081F480110134013D4EE77FEA645C18BFFF
:100350007FEA655C29D094EA050F08BF90EA020F96
:1003600005D054EA000C04BF1946104630BD91EA8E
:10037000030F1EBF0021002030BD5FEA545C05D191
:100380004000494128BF41F0004130BD14F58004D0
:100390003CBF01F5801130BD01F0004545F0FE4144
:1003A00041F470014FF0000030BD7FEA645C1ABF79
:1003B000194610467FEA655C1CBF0B46024650EAB0
:1003C000013406BF52EA033591EA030F41F40021DC
:1003D00030BD00BF90F0000F04BF0021704730B562
:1003E0004FF4806404F132044FF000054FF0000137
:1003F00050E700BF90F0000F04BF0021704730B5F8
:100400004FF4806404F1320410F0004548BF4042CC
:100410004FF000013EE700BF42004FEAE2014FEA21
:1004200031014FEA02701FBF12F07F4393F07F4FFC
:1004300081F06051704732F07F4208BF704793F0FF
:100440007F4F04BF41F40021704730B54FF4607412
:1004500001F0004521F000411CE700BF50EA010215
:1004600008BF704730B54FF000050AE050EA0102BE
:1004700008BF704730B511F0004502D5404261EB2E
:1004800041014FF4806404F132045FEA915C3FF46F
:10049000D8AE4FF003025FEADC0C18BF03325FEA0C
:1004A000DC0C18BF033202EBDC02C2F1200300FABD
:1004B00003FC20FA02F001FA03FE40EA0E0021FAE2
:1004C00002F11444BDE600BF70B54FF0FF0C4CF4D0
:1004D000E06C1CEA11541DBF1CEA135594EA0C0F82
:1004E00095EA0C0F00F0DEF82C4481EA030621EABD
:1004F0004C5123EA4C5350EA013518BF52EA0335F8
:1005000041F4801143F4801338D0A0FB02CE4FF0A9
:100510000005E1FB02E506F00042E0FB03E54FF0D9
:100520000006E1FB03569CF0000F18BF4EF0010ED1
:10053000A4F1FF04B6F5007F64F5407404D25FEACD
:100540004E0E6D4146EB060642EAC62141EA555180
:100550004FEAC52040EA5E504FEACE2EB4F1FD0CC2
:1005600088BFBCF5E06F1ED8BEF1004F08BF5FEA40
:10057000500E50F1000041EB045170BD06F00046F2
:1005800046EA010140EA020081EA0301B4EB5C049F
:10059000C2BFD4EB0C0541EA045170BD41F4801197
:1005A0004FF0000E013C00F3AB8014F1360FDEBFBC
:1005B000002001F0004170BDC4F10004203C35DA98
:1005C0000C341BDC04F11404C4F1200500FA05F31B
:1005D00020FA04F001FA05F240EA020001F00042BC
:1005E00021F0004110EBD37021FA04F642EB060132
:1005F0005EEA430E08BF20EAD37070BDC4F10C045C
:10060000C4F1200500FA04F320FA05F001FA04F21F
:1006100040EA020001F0004110EBD37041F100010B
:100620005EEA430E08BF20EAD37070BDC4F1200516
:1006300000FA05F24EEA020E20FA04F301FA05F27E
:1006400043EA020321FA04F001F0004121FA04F226
:1006500020EA020000EBD3705EEA430E08BF20EAF6
:10066000D37070BD94F0000F0FD101F00046400030
:1006700041EB010111F4801F08BF013CF7D041EAB2
:10068000060195F0000F18BF704703F000465200B6
:1006900043EB030313F4801F08BF013DF7D043EA87
:1006A0000603704794EA0C0F0CEA135518BF95EA3D
:1006B0000C0F0CD050EA410618BF52EA4306D1D1C4
:1006C00081EA030101F000414FF0000070BD50EAE3
:1006D000410606BF1046194652EA430619D094EA6D
:1006E0000C0F02D150EA013613D195EA0C0F05D157
:1006F00052EA03361CBF104619460AD181EA0301AB
:1007000001F0004141F0FE4141F470014FF0000062
:1007100070BD41F0FE4141F4780170BD70B54FF0FD
:10072000FF0C4CF4E06C1CEA11541DBF1CEA13557D
:1007300094EA0C0F95EA0C0F00F0A7F8A4EB05045F
:1007400081EA030E52EA03354FEA013100F0888056
:100750004FEA03334FF0805545EA131343EA12631F
:100760004FEA022245EA111545EA10654FEA0026D4
:100770000EF000419D4208BF964244F1FD0404F58D
:10078000407402D25B084FEA3202B61A65EB0305E9
:100790005B084FEA32024FF480104FF4002CB6EBA6
:1007A000020E75EB030E22BFB61A754640EA0C0026
:1007B0005B084FEA3202B6EB020E75EB030E22BF66
:1007C000B61A754640EA5C005B084FEA3202B6EBA7
:1007D000020E75EB030E22BFB61A754640EA9C0066
:1007E0005B084FEA3202B6EB020E75EB030E22BF36
:1007F000B61A754640EADC0055EA060E18D04FEAF4
:10080000051545EA16754FEA06164FEAC30343EA93
:1008100052734FEAC2025FEA1C1CC0D111F4801F60
:100820000BD141EA00014FF000004FF0004CB6E759
:1008300011F4801F04BF01430020B4F1FD0C88BFF8
:10084000BCF5E06F3FF6AFAEB5EB030C04BFB6EB03
:10085000020C5FEA500C50F1000041EB045170BDF6
:100860000EF0004E4EEA113114EB5C04C2BFD4EB23
:100870000C0541EA045170BD41F480114FF0000EA7
:10088000013C90E645EA060E8DE60CEA135594EA23
:100890000C0F08BF95EA0C0F3FF43BAF94EA0C0F26
:1008A0000AD150EA01347FF434AF95EA0C0F7FF49B
:1008B00025AF104619462CE795EA0C0F06D152EAEF
:1008C00003353FF4FDAE1046194622E750EA4106D3
:1008D00018BF52EA43067FF4C5AE50EA41047FF4E4
:1008E0000DAF52EA43057FF4EBAE12E74A0011D296
:1008F00012F5001211D20DD56FF47873B3EB62527A
:100900000ED44FEAC12343F0004343EA505323FA85
:1009100002F070474FF00000704750EA013002D1FA
:100920004FF0FF3070474FF0000070474FEA410230
:10093000B2F1E04324BFB3F5001CDCF1FE5C0DD93D
:1009400001F0004C4FEAC0024CEA5070B2F1004F87
:1009500040EB830008BF20F00100704711F0804F8A
:1009600021D113F13872BCBF01F00040704741F44F
:1009700080114FEA5252C2F11802C2F1200C10FA53
:100980000CF320FA02F018BF40F001004FEAC12337
:100990004FEAD32303FA0CFC40EA0C0023FA02F3DB
:1009A0004FEA4303CCE77FEA625307D150EA0133B1
:1009B0001EBF4FF0FE4040F44000704701F0004081
:1009C00040F0FE4040F40000704700BF80F000405F
:1009D00002E000BF81F0004142001FBF5FEA410317
:1009E00092EA030F7FEA226C7FEA236C6AD04FEA17
:1009F0001262D2EB1363C1BFD2184140484041405C
:100A0000B8BF5B42192B88BF704710F0004F40F40D
:100A1000000020F07F4018BF404211F0004F41F429
:100A2000000121F07F4118BF494292EA030F3FD0F5
:100A3000A2F1010241FA03FC10EB0C00C3F1200308
:100A400001FA03F100F0004302D5494260EB400097
:100A5000B0F5000F13D3B0F1807F06D340084FEA02
:100A6000310102F10102FE2A51D2B1F1004F40EBF7
:100A7000C25008BF20F0010040EA0300704749005F
:100A800040EB000010F4000FA2F10102EDD1B0FA2A
:100A900080FCACF1080CB2EB0C0200FA0CF0AABF1F
:100AA00000EBC25052421843BCBFD04018437047BD
:100AB00092F0000F81F4000106BF80F400000132C3
:100AC000013BB5E74FEA41037FEA226C18BF7FEA9A
:100AD000236C21D092EA030F04D092F0000F08BFDC
:100AE0000846704790EA010F1CBF0020704712F0C3
:100AF0007F4F04D1400028BF40F00040704712F102
:100B000000723CBF00F50000704700F0004343F066
:100B1000FE4040F4000070477FEA226216BF08469C
:100B20007FEA23630146420206BF5FEA412390EA5F
:100B3000010F40F4800070474FF0000304E000BF55
:100B400010F0004348BF40425FEA000C08BF704706
:100B500043F0964301464FF000001CE050EA0102CA
:100B600008BF70474FF000030AE000BF50EA0102DF
:100B700008BF704711F0004302D5404261EB4101CC
:100B80005FEA010C02BF84460146002043F0B643F1
:100B900008BFA3F18053A3F50003BCFA8CF2083A16
:100BA000A3EBC25310DB01FA02FC634400FA02FC1F
:100BB000C2F12002BCF1004F20FA02F243EB020026
:100BC00008BF20F00100704702F1200201FA02FC88
:100BD000C2F1200250EA4C0021FA02F243EB02007B
:100BE00008BF20EADC7070474FF0FF0C1CEAD052BF
:100BF0001EBF1CEAD15392EA0C0F93EA0C0F6FD080
:100C00001A4480EA010C400218BF5FEA41211ED05D
:100C10004FF0006343EA501043EA5111A0FB013149
:100C20000CF00040B1F5000F3EBF490041EAD3711E
:100C30005B0040EA010062F17F02FD2A1DD8B3F19A
:100C4000004F40EBC25008BF20F00100704790F009
:100C5000000F0CF0004C08BF49024CEA502040EA5B
:100C600051207F3AC2BFD2F1FF0340EAC250704721
:100C700040F400004FF00003013A5DDC12F1190F5F
:100C8000DCBF00F000407047C2F10002410021FAD1
:100C900002F1C2F1200200FA02FC5FEA310040F1E9
:100CA000000053EA4C0308BF20EADC70704792F062
:100CB000000F00F0004C02BF400010F4000F013A9A
:100CC000F9D040EA0C0093F0000F01F0004C02BF95
:100CD000490011F4000F013BF9D041EA0C018FE704
:100CE0000CEAD15392EA0C0F18BF93EA0C0F0AD00A
:100CF00030F0004C18BF31F0004CD8D180EA010030
:100D000000F00040704790F0000F17BF90F0004FC8
:100D1000084691F0000F91F0004F14D092EA0C0FAA
:100D200001D142020FD193EA0C0F03D14B0218BF3D
:100D3000084608D180EA010000F0004040F0FE4083
:100D400040F40000704740F0FE4040F4400070471F
:100D50004FF0FF0C1CEAD0521EBF1CEAD15392EA9E
:100D60000C0F93EA0C0F69D0A2EB030280EA010C8E
:100D700049024FEA402037D04FF0805343EA111127
:100D800043EA10130CF000408B4238BF5B0042F185
:100D90007D024FF4000C8B4224BF5B1A40EA0C002A
:100DA000B3EB510F24BFA3EB510340EA5C00B3EB5C
:100DB000910F24BFA3EB910340EA9C00B3EBD10F4A
:100DC00024BFA3EBD10340EADC001B0118BF5FEA9C
:100DD0001C1CE0D1FD2A3FF650AF8B4240EBC250C5
:100DE00008BF20F0010070470CF0004C4CEA502086
:100DF0007F32C2BFD2F1FF0340EAC250704740F4D5
:100E000000004FF00003013A37E792F0000F00F0C6
:100E1000004C02BF400010F4000F013AF9D040EA44
:100E20000C0093F0000F01F0004C02BF490011F4D8
:100E3000000F013BF9D041EA0C0195E70CEAD153D0
:100E400092EA0C0F08D142027FF47DAF93EA0C0FB7
:100E50007FF470AF084676E793EA0C0F04D14B029B
:100E60003FF44CAF08466EE730F0004C18BF31F04D
:100E7000004CCAD130F000427FF45CAF31F0004347
:100E80007FF43CAF5FE700BF4FF0FF3C06E000BFE0
:100E90004FF0010C02E000BF4FF0010C4DF804CD03
:100EA0004FEA40024FEA41037FEA226C18BF7FEA13
:100EB000236C11D001B052EA530C18BF90EA010F15
:100EC00058BFB2EB030088BFC81738BF6FEAE170A4
:100ED00018BF40F0010070477FEA226C02D15FEA40
:100EE000402C05D17FEA236CE4D15FEA412CE1D0AC
:100EF0005DF8040B704700BF844608466146FFE773
:100F00000FB5FFF7C9FF002848BF10F1000F0FBD54
:100F10004DF808EDFFF7F4FF0CBF012000205DF84D
:100F200008FB00BF4DF808EDFFF7EAFF34BF0120D2
:100F300000205DF808FB00BF4DF808EDFFF7E0FF6B
:100F400094BF012000205DF808FB00BF4DF808EDBC
:100F5000FFF7D2FF94BF012000205DF808FB00BF1F
:100F60004DF808EDFFF7C8FF34BF012000205DF801
:100F700008FB00BF4FEA40024FEA41037FEA226CC0
:100F800002D15FEA402C08D17FEA236C02D15FEAEC
:100F9000412C02D14FF0000070474FF00100704724
:100FA0004FEA4002B2F1FE4F0FD34FF09E03B3EB76
:100FB00012620DD94FEA002343F0004310F0004FB6
:100FC00023FA02F018BF404270474FF0000070470C
:100FD00012F1610F01D1420205D110F0004008BFAB
:100FE0006FF0004070474FF000007047034613F861
:100FF000012B002AFBD1181A0138704738B54FF47D
:101000007A730D490D4A09781268B3FBF1F305466E
:10101000B2FBF3F000F054FC08B90F2D01D9012008
:1010200038BD0446024629464FF0FF3000F004FC6C
:10103000034B20461D6038BDE9010020F00100206F
:10104000EC010020074A08B51368032043F01003A1
:10105000136000F0DFFB0020FFF7D0FF0CF058F822
:10106000002008BD00200240034A044B11681B7891
:101070000B441360704700BF50100020E9010020AE
:10108000014B1868704700BF5010002038B5044667
:10109000FFF7F6FF631C054602D0044B1B781C4487
:1010A000FFF7EEFF401BA042FAD338BDE901002054
:1010B000436A9A6A12F0500F02D01B6A1B6B1847E2
:1010C0009A6A196842F4007210B59A628A6802F44A
:1010D0006022B2F5602F03D0184605F00FFC10BD5A
:1010E0001A7B002AF8D19A6A22F480729A629A6A6C
:1010F000D204F1D49A6A42F001029A62ECE700BF8E
:10110000704700BF08B5406AFFF7FAFF08BD00BF8F
:1011100008B5436A9A6A184642F040029A62DA6A4F
:1011200042F00402DA6205F0BFFC08BD002270B490
:1011300090F8243083B0012B01925FD001234D68D9
:101140000468062D80F824300A6805EB85034FF00B
:101150001F0625D90C2D47D8233B256B9E4025EA39
:10116000060502FA03F32B432363092A8B684FF029
:10117000070602EB420123D91E39E5688E408B40F9
:1011800025EA06010B43E360A2F11003012B22D9EB
:101190000023002280F82420184603B070BC70475A
:1011A000053B656B9E4025EA060502FA03F32B43D7
:1011B000092A63634FF007068B6802EB4201DBD814
:1011C00025698E408B4025EA06010B432361A2F17D
:1011D0001003012BDCD81A4B9C4214D0826A0123E5
:1011E00042F020028262D4E7413BE56A9E4025EA54
:1011F000060502FA03F32B43E362B6E7022318461F
:1012000003B070BC7047A3681B02C1D4A368102A46
:1012100043F40003A360BBD10A4B0B4A1B68A2FB3B
:1012200003239B0C03EB83035B000193019B002BC7
:10123000AED0019B013B0193019B002BF9D1A7E7A5
:1012400000240140F001002083DE1B43002370B521
:10125000026882B001939368DB0721D4184B194CC4
:101260001B689168A4FB034341F001019B0C916052
:101270000193019B2BB1019B013B0193019B002B2F
:10128000F9D10546FFF7FCFE064604E0FFF7F8FE3D
:10129000801B022807D82B689C6814F00104F5D045
:1012A000002002B070BD0120AB6A85F8244043F0F5
:1012B0001003AB62EB6A0343EB6202B070BD00BF88
:1012C000F001002083DE1B4390F82430012B38D03E
:1012D000012310B580F824300446FFF7B7FF60BB48
:1012E000A36A226823F44073284923F0010343F4DE
:1012F00080738A42A36226D0A36A23F48013A36278
:10130000536859052BD4A36A002113F4805318BFE6
:10131000E36A84F8241018BF23F00603E3626FF039
:1013200002031360936803F46023B3F5602F1DD0AC
:10133000936843F48013936010BD002384F8243035
:1013400010BD02207047124B596811F4702FD3D092
:10135000A16A41F48011A1625B685B05D3D5A36AE1
:1013600023F4405343F48053A362CCE7074B9A42E3
:1013700004D0936843F4A003936010BDA3F5806389
:101380005B6813F4702FD3D1F3E700BF002801404E
:101390000024014038B503689A68D20701D40020C0
:1013A00038BD9A68044622F001029A60FFF768FE91
:1013B000054623689B68DB07F1D5FFF761FE401BFC
:1013C0000228F6D90120A36A43F01003A362E36A5E
:1013D0000343E36238BD00BF002857D0F8B5836AE5
:1013E0000446002B45D02046FFF7D4FFA36A13F034
:1013F000100338D1002836D1A26AE669616822F468
:101400008852A56822F00202277B42F00202314393
:10141000B5F5807FA26241EA4701267D226837D078
:10142000012D4FD0012E52D055683C4B25F4694513
:1014300055600546966833400B439360D36A384E37
:1014400023F470032B43D36293681E40B14230D023
:101450000120A36A23F0120343F01003A362E36A9E
:101460000343E362F8BDA36A012043F01003A362C3
:10147000F8BDC36280F824300BF06CFE2046FFF705
:1014800089FFA36A13F01003EDD1B3E70120704781
:10149000012E3FD05568214B25F4694545F48075F0
:1014A000556095682B400B4393602369013B1D05F4
:1014B000C4E70023E362A36A23F0030343F00103BC
:1014C000A362F8BD012E08BF4FF48073E2D1D7B1FB
:1014D000A66A46F02006A662E66A46F00106E662C3
:1014E00057680E4E27F469473B4353609368B5F540
:1014F000807F06EA030646EA01069660D5D0012DF4
:10150000D3D000259AE7A669013E43EA463343F467
:101510000063E5E72B46002FDAD1F4E7FDF7E1FFA2
:10152000FE0E1FFF90F82430012B13D0012310B5BD
:1015300080F824300446FFF72DFF38B9A36A23F45E
:10154000885323F0010343F00103A362002384F8CE
:10155000243010BD02207047002270B590F824306E
:1015600082B0012B019253D0012380F8243004462D
:10157000FFF710FF054628B10023284684F82430E1
:1015800002B070BDA36A2B4A23F4885323F00203F0
:1015900043F00203A3620220166801F09DFCB6FB33
:1015A000F0F040000190019B2BB1019B013B0193A6
:1015B000019B002BF9D12046FFF748FE2268936873
:1015C00043F008039360FFF75BFD064604E0FFF776
:1015D00057FD801B0A281FD823689A681207F6D483
:1015E0009A6842F004029A60FFF74AFD064604E05A
:1015F000FFF746FD801B0A280ED823689B685B070F
:10160000F6D4A36A23F0030343F00103A362B3E714
:101610000225284602B070BD012500222846A36A93
:1016200084F8242023F0120343F01003A36202B0D5
:1016300070BD00BFF0010020F0B590F824508DB0CF
:10164000012D15D00125324F0446BE6880F8245084
:1016500006F46026B6F5602F00970DD00022836A4D
:1016600080F8242043F02003836228460DB0F0BDAB
:10167000022528460DB0F0BD17460E46FFF7E6FDE1
:10168000054618B1002384F82430EEE76846FFF7DA
:10169000DDFD05460028F5D1A26A1E4B21681340E6
:1016A00043F48073A3624B685B0505D5A36A23F4FA
:1016B000405343F48053A36200236FF00202206A78
:1016C000DFF858C0E36284F82430C0F828C0124B19
:1016D000DFF84CC04C31C0E90BC341F84C2C51F839
:1016E000442C3B4642F4807741F8447C324600F07B
:1016F00033F92268936803F46023B3F5602F93688D
:101700000CBF43F4A00343F480139360ADE700BF24
:1017100000280140FEFCEFFF11110008B110000885
:101720000511000870B590F824208CB0012A1ED055
:10173000012680F824600546FFF72CFE044628B1F8
:101740000023204685F824300CB070BD154B0CA842
:1017500040F8303DFFF71EFE68B185F8244034465E
:101760002046AB6A43F01003AB620CB070BD02249C
:1017700020460CB070BD2B68286A9A6822F48072EB
:101780009A605A6822F470225A6000F029F9AB6A14
:10179000044623F4885323F0010343F00103AB62B2
:1017A000CEE700BF0028014090F82420012A2AD06B
:1017B000034601201A6883F824009068C00712D4F9
:1017C0001248806810F001000DD130B4104CA242D4
:1017D00012D001209A6A42F020029A62002230BCA4
:1017E00083F8242070479A6A012042F020029A620E
:1017F000002283F82420704754680D6824F4702177
:1018000029435160EAE70220704700BF00280140E9
:10181000002401404FF6FF01064A0002D36800F49D
:10182000E0600B4043F0BF6343F400330343D360F5
:10183000704700BF00ED00E0184B30B4DB68C3F325
:101840000223C3F10705042D03F1040428BF042576
:10185000062C19D94FF0FF34033B9C4022EA0404C4
:101860004FF0FF32AA4021EA020101FA03F22243BB
:1018700012010028D2B20ADB00F1604000F561409D
:1018800080F8002330BC704700242346E8E7044B6F
:1018900000F00F0003441A7630BC704700ED00E002
:1018A000FCEC00E0002807DB012300F01F01034AE5
:1018B0008B40400942F82030704700BF00E100E053
:1018C0000138B0F1807F0DD230B4F025002207211D
:1018D000054B064C586084F82350104630BC9A6083
:1018E000196070470120704710E000E000ED00E053
:1018F00050B30246F0B4D0E9013600240125334349
:10190000D6680068334311491669114F01443343C7
:101910005669A7FB017133439669D769334306685B
:101920000909890026F47F563B4326F030061164EE
:1019300008493343D16303602046946382F8204012
:1019400082F82150F0BC704701207047F8FFFDBFBE
:10195000CDCCCCCC00000240F0B590F82040012C5A
:1019600032D0012490F8215080F82040A54225D1A2
:1019700000264FF0020E046886632668076CD0F8D4
:101980003CC0BD4026F00106476880F821E0266093
:10199000CCF804506360C36A102F0BBFA260A16033
:1019A000E160E2609BB1236843F00E0323600023F3
:1019B0002268184642F001022260F0BD0022022394
:1019C00080F820201846F0BD02231846F0BD236899
:1019D00023F004032360236843F00A032360E6E74F
:1019E00090F821200346022A06D0042100228163B8
:1019F00080F820200120704770B4012600251A6865
:101A00002846116821F00E0111601468196C24F049
:101A100001041460DA6B06FA01F1516083F8216069
:101A200083F8205070BC7047042270B4D0E90F6175
:101A3000346803688A4022421D681FD06A071DD59A
:101A40001A68910603D41A6822F004021A603F4A09
:101A500093425CD01432934261D01432934268D0E6
:101A6000143293426BD0143293425DD014329342BD
:101A70000CBF4FF480034FF0806349E002228A409C
:101A8000224222D0AA0720D51A68910606D4012145
:101A90001A6822F00A021A6080F821102B4A934239
:101AA0002BD01432934242D01432934244D0143299
:101AB000934236D01432934244D0143293420CBF36
:101AC0004FF400134FF0007318E008228A402242BE
:101AD0001BD02A0719D5012200251C6802FA01F142
:101AE00024F00E041C60036B7160826380F8212077
:101AF00080F820504BB170BC184702230021144CD1
:101B0000826A636080F820103AB970BC7047042381
:101B10000F49C26A4B60002AF7D070BC10474023BF
:101B2000F6E74FF40053E9E74FF48023F0E7202372
:101B3000E4E74FF48063EBE74FF40073DEE74FF424
:101B40008043E5E74FF40033D8E700BF08000240C8
:101B5000000002400A68002A00F0DC802DE9F04F06
:101B60004FF0000A85B05546DFF8D0C1DFF8D0E16C
:101B70006D4FDFF8D08103E0013532FA05F379D0FB
:101B80000123AB4002EA0304A342F5D14A68122ABA
:101B900000F09F8000F28880022A00F09E807DD9AC
:101BA000032A6AD0112A02D1CB6803F1040AFF2C60
:101BB00067D881460368AA000F2606FA02FB23EACB
:101BC0000B030AFA02F21343C9F800304A68D30043
:101BD00062D5DCF8189025F0030349F00109CCF830
:101BE0001890DCF8189003F1804309F00109CDF852
:101BF0000C9003F5803305F00309DDF80CB04FEAD3
:101C00008909D3F808B006FA09F62BEA06067045EA
:101C1000019611D0404564D0444EB0427BD0444E32
:101C2000B0420CBF4FF0030B4FF0040B019E0BFAB8
:101C300009F946EA09060196019E9E603B68D603B3
:101C40004CBF2343A3433B607B6896034CBF2343B5
:101C5000A3437B60BB68D6024CBF2343A343BB6056
:101C60009202FB6815D51C43FC600A68013532FA04
:101C700005F385D105B0BDE8F08FFF2C4FF0000AC9
:101C800097D905F18042083A4368920000F10409AF
:101C900092E723EA0404FC600A686DE7A2B1012A16
:101CA00085D1D1F80CA082E7224EB2420CD020D9C7
:101CB000214EB24208D006F58036B24204D0A6F5D5
:101CC0008016B2427FF473AF8A68E2B94FF0040A1B
:101CD0006DE7CB6803F10C0A69E7CB6803F1080AEA
:101CE00065E74FF0010B0BFA09F946EA0906019680
:101CF000A2E7A6F58016B242E6D006F58036B242DB
:101D00007FF455AFE0E7012A0CBF036143614FF058
:101D1000080A4CE770474FF0020B019E0BFA09F9D5
:101D200046EA0906019687E70004014000100140D9
:101D3000001401400000211000003110001002408A
:101D400000080140000C01408368194214BF0120C3
:101D50000020704702B90904016170472DE9F04184
:101D60000746164698468DB23C6804E061694A050C
:101D700007D4731C1CD1606935EA0000F6D1BDE8B8
:101D8000F08100226FF480602021236843F4007307
:101D9000236060613A6387F83D1087F83E203B6C12
:101DA00087F83C2043F004033B640120BDE8F08148
:101DB000FFF766F9A0EB0800B04201D8002ED3D19E
:101DC000002220233A6387F83D3087F83E203B6CA1
:101DD00087F83C2043F020033B640120CFE700BF9D
:101DE000F8B506460D461746306804E044696205BA
:101DF00007D46B1C16D1436913F00403F6D00020FE
:101E0000F8BD6FF4806120224161336386F83D2084
:101E100086F83E30326C86F83C3042F00402326480
:101E20000120F8BDFFF72CF9C01BA84201D8002DF6
:101E3000DAD100222023326386F83D3086F83E2036
:101E4000336C86F83C2043F0200333640120F8BD56
:101E500070B505460C46164608E05169C9061BD404
:101E6000FFF70EF9801BA04207D834B12A685369E6
:101E700013F04003F1D0002070BD002220232A631C
:101E800085F83D3085F83E202B6C85F83C2043F0EA
:101E900020032B64012070BD6FF0100020215061E1
:101EA0002B6385F83D1085F83E302A6C85F83C3070
:101EB0002A64012070BD00BF2DE9F8438146904699
:101EC0001E460F0C8CB2D9F8005009E0A96934EA1B
:101ED00001030CBF0120002080450BD1731C0CD1E5
:101EE000012FF3D16B6934EA03030CBF01200020FA
:101EF0008045F3D00020BDE8F883FFF7C1F8089BC8
:101F0000C01AB04201D8002EDDD100222023C9F82A
:101F1000302089F83D3089F83E20D9F8403089F8E2
:101F20003C2043F02003C9F840300120E3E700BF24
:101F3000F8B506460D461746306804E04469620568
:101F400007D46B1C16D1436913F08003F6D0002030
:101F5000F8BD6FF4806120224161336386F83D2033
:101F600086F83E30326C86F83C3042F0040232642F
:101F70000120F8BDFFF784F8C01BA84201D8002D4E
:101F8000DAD100222023326386F83D3086F83E20E5
:101F9000336C86F83C2043F0200333640120F8BD05
:101FA0002DE9F047066884B034680D9F44F48074CE
:101FB000884691469A4634600C9B009700224FF069
:101FC00001110546FFF778FF18B1012004B0BDE804
:101FD000F0872A6808F0FE0313611A493B460C9A01
:101FE0002846FFF7BBFE0028EFD12B680390596904
:101FF0003A4603919B690C9903932846039BFFF78C
:1020000097FF88B9BAF1010F296817D04FEA192351
:102010000B613A460C992846FFF78AFF20B92A68D7
:102020005FFA89F31361D1E72B6C042BCDD12A68B9
:102030000120136843F400731360C7E75FFA89F364
:102040000B61C3E7020001002DE9F047046884B08A
:1020500025680D9F45F4806525602568884645F410
:10206000807591469A4625600C9B009700224FF0A0
:1020700001110646FFF720FF18B1012004B0BDE8AA
:10208000F08733685FFA88F808F0FE021A612C497D
:102090003B460C9A3046FFF761FE0028EDD13368CD
:1020A000039059693A4603919B690C990393304612
:1020B000039BFFF73DFF48BBBAF1010F33682FD1F7
:1020C0005FFA89F21A613A460C993046FFF730FF01
:1020D000E0B93468024621680C9B41F480712160AC
:1020E00030464FF001110097FFF7E6FE0028C4D1FB
:1020F000316848F001020A613B4630460C9A1049AB
:10210000FFF72CFE003018BF0120B7E7336C042B1B
:10211000B3D132680120136843F400731360ADE754
:102120004FEA19221A610C993A463046FFF700FF30
:102130000028EBD132685FFA89F31361C3E700BF6F
:1021400002000100002800F09780F8B590F83D30BB
:10215000044603F0FF02002B00F08780242322684E
:1021600084F83D30136823F00103136000F012FE81
:1021700062684B4B9A424BD84A4B98427AD9431EDD
:102180005200B3FBF2F248492368A1FB00105968E2
:10219000800C21F03F0101435960196A013021F0A0
:1021A0003F0108431862501CC0F30B00042838BFDD
:1021B0000420D96921F44F4121F0FF010025202698
:1021C0000843D8611968D4E9072021F0C00102430F
:1021D0000A431A609968D4E9030221F4034121F00B
:1021E000FF0102430A439A60D968D4E9052021F02F
:1021F000FF0102430A43DA601A68284642F00102EE
:102200001A60256484F83D60256384F83E50F8BD6B
:10221000264B98422ED94FF49671234D2368A5FB87
:102220000065AD0C01FB05F15E68214F26F03F060D
:10223000A7FB017135435D601D6A890925F03F05E3
:10224000013129431962D969A56821F44F41013848
:1022500021F0FF0195B902EB4202B0FBF2F0013030
:10226000C0F30B00C0B90120A8E780F83C200AF0B9
:10227000DFFF73E70120F8BD0120704702EB820207
:1022800002EB8202B0FBF2F00130C0F30B00002839
:10229000E9D040F4404091E740F400408EE700BFB1
:1022A000A08601007F841E0083DE1B43FF083D00E3
:1022B000D34D62102DE9F043044683B099460E4693
:1022C0001746BDF82C80FEF7DBFE94F83D30202B3E
:1022D00003D0022003B0BDE8F08305460090192327
:1022E000012240492046FFF7E7FD0028F1D194F88C
:1022F0003C30012BEDD00123226884F83C30136878
:10230000D90703D4136843F0010313604FF0400C66
:1023100000204FF0210E11684B4621F4006111603E
:1023200031460A9E84F83DE084F83EC02064A4F85B
:102330002A80B4F82AC066620C9EA0F58030019510
:1023400000963A46E062A4F828C02046FFF728FE2F
:1023500018BB238DC3B12A460C992046FFF7E8FD30
:10236000C0B9666A2068314611F8013B278D0361C8
:10237000628D7B1E013A92B2628542699BB252071E
:1023800061622385E6D563B92A460C992046FFF79A
:1023900027FD90B1236C042B1CD0012003B0BDE8B5
:1023A000F0837278BB1E0261628D9BB2013A0236E5
:1023B00092B2238566626285CCE720212268136889
:1023C00043F40073136084F83D1084F83C0084F8F3
:1023D0003E007FE722680120136843F40073136016
:1023E00078E700BF020010002DE9F043044687B0F3
:1023F00099460E461746BDF83C80FEF741FE94F81C
:102400003D30202B04D00226304607B0BDE8F083D3
:10241000054600901923012297492046FFF74CFDFD
:102420000028F0D194F83C30012BECD00123226835
:1024300084F83C301368DB0703D4136843F00103CE
:1024400013604FF0220E4FF0400C002011684B46F5
:1024500021F40061116031460E9E84F83DE084F85D
:102460003EC02064A4F82A80B4F82AC06662109E98
:10247000A0F58030009601953A46E062A4F828C0A5
:102480002046FFF7E1FD0646A8B9238D2268BBB9B7
:1024900002905369029393690293029B136843F479
:1024A000007313600023202284F83C3084F83D2020
:1024B00084F83E30A8E70126304607B0BDE8F08337
:1024C000012B61D0022B00F0C480116841F48061BF
:1024D000116005905169059192690592059A674FBF
:1024E000002BDFD0032B62D8012B00F0A580022B3C
:1024F0000095109B4FF000023946204600F0838083
:10250000FFF7DAFC0028D6D12268136823F4806331
:10251000136072B62268636A116902461970638D8E
:10252000606A218D013B013001399BB200956062E8
:10253000218563853946109B2046FFF7BDFC0028A6
:10254000B9D12368616A1A6842F400721A601B6983
:102550000B70638D616A228D013B9BB20131013AA0
:1025600063856162228562B62268636A12691A70A5
:10257000628D238D616A013A013B013192B29BB2B7
:10258000616262852385ABE7136823F4806313607F
:1025900072B6236803905A6903929A690392039A68
:1025A0001A6842F400721A6062B6238D97E72A46D1
:1025B00010992046FFF74CFC00287FF47CAF22687E
:1025C000636A12691A70628D2168013A92B2238D92
:1025D00062854869626A013B9BB202F1010C4007C7
:1025E0002385C4F824C07FF57BAF0B695370238D1E
:1025F000628D616A013B013A9BB292B2013123853F
:10260000628561626CE7FFF757FC00287FF453AFE7
:1026100072B62368616A1A6842F400721A601B6914
:102620000B70638D616A228D013B0131013A9BB2CF
:1026300061622285638596E72A4610992046FFF756
:1026400007FC00287FF437AF2268636A12691A70AA
:10265000CDE7136843F40063136072B623680490F7
:102660005A6904929A690492049A1A6822F4806260
:102670001A6062B6238D32E70200100004000100E8
:102680002DE9F04F044685B01D4689469246FEF777
:10269000F7FC94F83D30202B04D00223184605B0F7
:1026A000BDE8F08F06460090192301224E492046CE
:1026B000FFF702FC0028F0D194F83C30012BECD05D
:1026C0000123216884F83C300B68DA0763D52420A5
:1026D00000224FF001080B68DFF80CB123F400630F
:1026E0000B60424B84F83D0009F0FE092264E3626E
:1026F0000A682B4642F480720A6020460022009647
:102700004FF00111FFF7D8FB00285DD12368C3F813
:102710001090FEF7B5FC216806464B694A6994F8AB
:102720003D0003F00203A02802F4806218D0BBB978
:10273000B2B9A02701E09BB992B9FEF7A1FC801BBA
:10274000A84200D80DB984F83D7021684B694A69E8
:1027500094F83D0003F00203A02802F48062EAD15D
:10276000202784F83D704B699B0719D46FF4806073
:102770000A68192342F400720A604861012259462E
:1027800000962046FFF798FBF0B908F10108D04504
:1027900024D22168ACE70B6843F001030B6096E795
:1027A00000200A68192342F400720A600390486905
:1027B0000122039089692046039100960A49039DEE
:1027C000FFF77AFB034620B10123184605B0BDE8A8
:1027D000F08F84F83D7084F83C005FE7012384F8B3
:1027E0003D7084F83C0059E7020010000000FFFF34
:1027F00090F83D00704700BF002800F055812DE99A
:10280000F041036882B0DD07044635D5A8494A681F
:1028100002F00C02042A00F005814A6802F00C0262
:10282000082A00F0FB806368B3F5803F10D0002BCE
:1028300000F02081B3F5A02F00F078819C4B1A683E
:1028400022F480321A601A6822F480221A6004E0AE
:10285000974A136843F480331360FEF711FC944DDC
:10286000064605E0FEF70CFC801B642800F2F580AC
:102870002B689A03F6D523689F074DD41A0722D5F3
:10288000A369002B00F0BA8001228A4B884D1A60A0
:10289000FEF7F6FB064605E0FEF7F2FB801B02287A
:1028A00000F2DB806B6A9B07F6D5834B834A1B687B
:1028B000A2FB03235B0A019300BF019B5A1E0192F6
:1028C000002BF9D123685D0769D5794BDA69D0000F
:1028D00000F1EC800125DA6942F08052DA61DB69AF
:1028E00003F080530093009B754B1A68D10540F1AB
:1028F000A380E368012B37D0002B00F0E780052B85
:102900006B4B1A6A00F01F8122F001021A621A6AE8
:1029100022F004021A622CE0654A516811F00C0F93
:1029200061D0516801F00C01082959D02369002BAE
:1029300000F0EB800122634B5D4D1A60FEF7A0FBB7
:10294000064605E0FEF79CFB801B022800F285800E
:102950002B689807F6D52B68626923F0F80343EAE1
:10296000C2032B60236889E7514A136A43F00103CD
:102970001362FEF785FB4E4E804641F2883705E034
:10298000FEF77EFBA0EB0800B84266D8336A9B07CF
:10299000F6D525B1464AD36923F08053D361E06967
:1029A000D0B1434D6A6802F00C02082A00F0D380CF
:1029B00002284FF00001444A00F0DE801160FEF76B
:1029C0005FFB2C46054604E0FEF75AFB401B02283D
:1029D00043D823689B01F7D4002002B0BDE8F08102
:1029E0005268D603A2D4324A1268950739D52269B3
:1029F000012A36D0012002B0BDE8F0812D4A2C4DCD
:102A00001360FEF73DFB064604E0FEF739FB801B32
:102A1000022822D86B6A9F07F7D453E74A68D0038D
:102A20007FF501AF224A126891037FF525AF6268F6
:102A3000002A7FF421AFDDE71A681E4642F4807257
:102A40001A60FEF71DFB07463368DA053FF551AF04
:102A5000FEF716FBC01B6428F6D9032002B0BDE8C0
:102A6000F081134960690A6822F0F80242EAC00264
:102A70000A6003E703F1804303F504331A681D4637
:102A800022F480321A601A6822F480221A60FEF75B
:102A9000F7FA064604E0FEF7F3FA801B6428DCD858
:102AA0002B689B03F7D4E6E60120704700251BE75F
:102AB0000010024080044242F0010020D34D621019
:102AC00000700040000042426000424203F1804337
:102AD00003F504331A6A1E4622F001021A621A6ACA
:102AE00041F2883822F004021A62FEF7C9FA07465A
:102AF00004E0FEF7C5FAC01B4045AED8336A98071C
:102B0000F7D4002D3FF44BAF44E7344A344D136003
:102B1000FEF7B6FA064604E0FEF7B2FA801B02287A
:102B20009BD82B689907F7D42368A7E603F1804365
:102B3000A3F53C331A6842F480221A601A6842F402
:102B400080321A6089E642F004021A621A6A42F080
:102B500001021A620DE701283FF44DAF6B68226A4B
:102B600003F4803191427FF445AF606A03F470133F
:102B7000181A18BF01203EE71160FEF781FA0646D9
:102B800005E0FEF77DFA801B02283FF666AF2B6852
:102B90009901F6D4226AB2F5803F05D16B68A1682D
:102BA00023F400330B436B6001250D4B606A5968B9
:102BB000024321F474110B480A435A6005601C4615
:102BC000FEF75EFA054605E0FEF75AFA401B0228BA
:102BD0003FF643AF23689A01F6D5FDE60000424276
:102BE000001002406000424240F2012286B0154BC4
:102BF0000DF1180CADF804200FCB0CE90F001249B1
:102C00004B6803F00C02082A02D0104806B0704747
:102C1000C3F383426244DB0312F8102C04D40C4843
:102C200000FB02F006B070474B680848C3F340430E
:102C300000FB02F0634413F8143CB0FBF3F006B061
:102C4000704700BFE0E300080010024000127A0065
:102C500000093D0078B14A4A136803F007038B422C
:102C60000BD2136823F007030B431360136803F0C0
:102C700007038B4201D00120704703682DE9F04122
:102C80009D0714D55C0704D53E4C626842F4E062AF
:102C900062601A0704D53B4C626842F4605262607D
:102CA000384C8568626822F0F0022A436260DF07D0
:102CB00004460D4620D54268324B012A1B6856D087
:102CC000022A59D0990727D52E4E41F288387368C9
:102CD00023F0030313437360FEF7D2F9074604E0C1
:102CE000FEF7CEF9C01B404544D87368626803F014
:102CF0000C03B3EB820FF3D1214A136803F00703EF
:102D0000AB420CD9136823F007032B4313601368FD
:102D100003F00703AB4202D00120BDE8F081236835
:102D20005A0706D51749E0684A6822F4E062024370
:102D30004A601B0712D4FFF757FF124B124A5B6819
:102D40001249C3F30313D35C114A20FA03F3086852
:102D50001360FEF753F90020BDE8F081094A2169AC
:102D6000536823F4605343EAC1035360E3E79E03CF
:102D7000AAD4D1E70320EFE79801A5D4CCE700BFA0
:102D80000020024000100240C8F10008EC010020C1
:102D9000F0010020044B05495B68054AC3F3022398
:102DA000CB5C1068D840704700100240D8F1000892
:102DB000F0010020044B05495B68054AC3F3C223B8
:102DC000CB5C1068D840704700100240D8F1000872
:102DD000F00100202DE9F0410446006882B0C507EB
:102DE0002AD53A4BDA69D1003DD5394B00251A680E
:102DF000D20546D5354960680A6A12F440720FD090
:102E000000F4407393420BD0012700260B6A314A2D
:102E100023F44070176016600862D80745D46068D4
:102E20002A4A136A23F44073034313621DB1D36922
:102E300023F08053D3612068830706D5234AA16815
:102E4000536823F440430B43536010F0100007D045
:102E500000201E4AE168536823F480030B4353604B
:102E600002B0BDE8F081DA69012542F08052DA61F2
:102E7000DB6903F080530193019B154B1A68D2055F
:102E8000B8D41A681E4642F480721A60FEF7F8F849
:102E900007463368DB05ADD4FEF7F2F8C01B6428A3
:102EA000F7D9032002B0BDE8F0810E46FEF7E8F83E
:102EB00041F288378046336A9A07B0D4FEF7E0F8CB
:102EC000A0EB0800B842F6D9EBE700BF00100240C3
:102ED000007000404004424210B5044640F2012216
:102EE00086B0344B0DF1180C022CADF804200FCB3A
:102EF0000CE90F0042D0102C1CD0012C02D0002075
:102F000006B010BD40F202322B490B6A1A40B2F5EE
:102F1000817F4BD003F44073B3F5007F3AD0B3F513
:102F2000407FECD10B684FF2244013F4003F08BF00
:102F30000020E5E7204B5968186810F08070DFD05A
:102F400006A8C1F38342024412F8100CCA0329D523
:102F50005B6806A9C3F340430B44184A13F8143CBA
:102F6000B2FBF3F300FB03F0134B5B685B02C7D4C7
:102F7000134B4000A3FB00304008C1E7FFF71AFFE6
:102F80000D4B5B68C3F3813301335B00B0FBF3F09F
:102F900006B010BD4B6A49F6404013F0020F08BF5F
:102FA0000020ADE7074B03FB00F0DDE74FF40040E6
:102FB000A6E700BFF0E300080010024000127A000C
:102FC000ABAAAAAA00093D002DE9F04107460D462B
:102FD000164698463C6801E0731C06D1A06835EAA5
:102FE0000003F9D00020BDE8F081FEF749F8A0EB1E
:102FF00008008642EED8D7E900315A68B1F5827FE1
:1030000022F0E0025A6014D0BA6AB2F5005F07D02D
:103010000122002387F8512087F850300320E2E78F
:103020001A6822F400521A601A6842F400521A60B8
:10303000EEE7BA68B2F5004F02D0B2F5806FE3D187
:103040001A6822F040021A60DEE700BF00283BD079
:10305000F8B5002390F851100446836201F0FF0296
:1030600061B31A46D4E90136022700210125E06840
:1030700033432669034360693343E669D4F818C0D3
:103080000343206A3343266884F8517003430CF4E9
:103090000070034330684FEA1C4C134320F040009B
:1030A0000CF00402306033607260F369084623F468
:1030B0000063F361616584F85150F8BD80F85020D9
:1030C0000AF0E8F8A26ACDE7012070472DE9F04147
:1030D00090F8504082B0012C77D01D46012380F833
:1030E0005030044617468846FDF7CAFF064694F856
:1030F0005100C0B2012809D002200122002384F827
:10310000512084F8503002B0BDE8F081B8F1000FD2
:10311000F3D0002FF1D000230321A26884F85110CE
:10312000B2F5004F6365A363A387C4E91033E78654
:10313000C4F83080E387A786236803D11A6842F475
:1031400080421A601A68520643D5E2686168B2F597
:10315000006F4FD0002941D198F800201A73E38EF8
:10316000226B013B9BB20132E3862263E28E92B274
:103170008AB123689A68920733D5226B12781A7342
:10318000E28E216B013A92B2E286E28E013192B276
:103190002163002AEDD133462A4680212046FFF7DD
:1031A00013FF20B12022636D134363656265A3683A
:1031B00033B922680193D368019393680193019B0B
:1031C000606D003018BF012097E7022002B0BDE813
:1031D000F0811A6842F040021A60B6E7012FC5D1AB
:1031E000BAE7FDF74DFF801BA842BFD36B1CBDD0D3
:1031F000032082E711B3012F20D0E38E9BB2002B76
:10320000C9D023689A68900710D5226B32F8021B48
:10321000D960E38E2263013B9BB2E386E38E9BB2CF
:10322000002BB8D023689A689007EED4FDF728FFEA
:10323000801BA842E1D3691CDFD0D9E7414631F8B1
:10324000022BDA60E38E2163013B9BB2E386D4E775
:1032500090F85100704700BF026AF0B422F00102FA
:103260008D680262036A476823F0020382692B4378
:103270000D4D0C6822F07302A84242EA040206D007
:10328000496847608261F0BC416303627047CE6861
:1032900023F00803D1E9054527F4407733432C4355
:1032A00023F004032743EBE7002C0140026AF0B44B
:1032B00022F480728D680262036A476823F4007307
:1032C000C26943EA05230F4D0C6822F07302A8423D
:1032D00042EA040206D049684760C261F0BCC1639B
:1032E00003627047CE6823F40063D1E9054527F4F3
:1032F000405743EA06232C4323F4806347EA04172C
:10330000E9E700BF002C0140026A70B422F4805249
:103310008E680262036A456823F40053C26943EA77
:1033200006330A4E0C6822F4E642B04242EA042216
:1033300004D14C6925F4804545EA84154968456007
:10334000C26170BC01640362704700BF002C014081
:10335000704700BF0122036801F01F01186A02FADA
:1033600001F120EA01001862186A0A4A01439342F7
:1033700019620AD09A6802F00702062A03D01A6876
:1033800042F001021A60002070475A6C42F4004279
:103390005A64EFE7002C014003680C290CD8DFE8E1
:1033A00001F0070B0B0B2F0B0B0B2A0B0B0B250044
:1033B000DA6842F00202DA600122186A01F01F01A5
:1033C00002FA01F120EA01001862186A114A014369
:1033D0009342196219D09A6802F00702062A03D0B4
:1033E0001A6842F001021A6000207047DA6842F061
:1033F0001002DA60E0E7DA6842F00802DA60DBE740
:10340000DA6842F00402DA60D6E75A6C42F400420D
:103410005A64E0E7002C0140704700BFFFF79ABFF5
:1034200090F83C30012B5AD00222F0B401250368F9
:1034300080F83D209A680C6822F47F4222F07702DF
:10344000402C80F83C509A6074D04AD9602C2DD022
:1034500056D9702C1AD0B4F5005F0ED1D1E90152C3
:10346000CC6899682A4342EA042221F47F410A4346
:103470009A609A6842F480429A600023F0BC01226C
:1034800080F83C3080F83D2018467047D1E9015261
:10349000CC6899682A4342EA042221F47F410A4316
:1034A0009A609A6842F077029A60E6E71C6A4D6873
:1034B00024F01004CE681C6299691A6A21F47041E4
:1034C00022F0A00242EA051241EA063199611A622D
:1034D0009A6822F0700242F067029A60CDE70220FB
:1034E0007047102C04D03DD9202C01D0302CC4D1F1
:1034F0009A6844F0070422F0700214439C60BCE711
:10350000502CBAD11D6A1E6A4C6826F00106CF689D
:103510001E629A6925F00A0122F0F00242EA0712BF
:1035200021439A6119629A6822F0700242F05702B0
:103530009A60A2E71D6A1E6A4C6826F00106CF68F1
:103540001E629A6925F00A0122F0F00242EA07128F
:1035500021439A6119629A6822F0700242F0470290
:103560009A608AE7002CC3D087E700BF704700BF8E
:10357000704700BF704700BF704700BF036810B5B9
:103580001A690446910702D5DA6892075FD41A696E
:10359000500702D5DA68510746D41A69120702D5D6
:1035A000DA6810072ED41A69D20602D5DA68D00676
:1035B00018D41A69D10702D5DA68D2075DD41A691E
:1035C000100602D5DA6811065FD41A69520602D5D0
:1035D000DA68500661D41A69910602D5DA68920653
:1035E00043D410BD6FF0100108221961DB69204639
:1035F00013F4407F227764D0FFF7BAFF00222368DC
:103600002277D6E76FF0080104221961DB692046B2
:103610009907227752D103F017F92046FFF7AAFF46
:10362000002223682277BEE76FF0040102221961AD
:103630009B69204613F4407F22773CD103F004F9C4
:103640002046FFF797FF002223682277A5E76FF057
:103650000201012219619B6902779B0725D0FFF7C0
:1036600087FF00222368227791E76FF0200220462F
:10367000BDE810401A6100F0E1B96FF00102204688
:103680001A61FFF773FF236899E76FF08002204605
:103690001A6100F0D5F9236897E76FF040022046E1
:1036A0001A61FFF769FF236895E703F0CDF820461C
:1036B000FFF760FFD5E7FFF75BFFC4E7FFF758FFB1
:1036C000AEE703F0C1F82046FFF754FF96E700BFCE
:1036D00070B41C4E0368B0424D698C680A681DD0F6
:1036E000B0F1804F11D0A6F59436B0420DD006F55A
:1036F0008066B04209D023F080032B43036001238E
:10370000C462826270BC436170474E6823F07003EC
:103710003343C96823F440730B43ECE74E6823F04E
:1037200070033343CE6823F44073334323F08003A4
:103730002B430360C46282620B6970BC0363012384
:1037400043617047002C0140B8B190F83D3010B58E
:1037500003F0FF0204465BB10223206884F83D3089
:10376000211DFFF7B5FF0123002084F83D3010BD77
:1037700080F83C2009F0C2FDEEE70120704700BF51
:10378000B8B190F83D3010B503F0FF0204465BB1CC
:103790000223206884F83D30211DFFF799FF0123A3
:1037A000002084F83D3010BD80F83C20FFF7D0FDAC
:1037B000EEE70120704700BFB8B190F83D3010B57A
:1037C00003F0FF0204465BB10223206884F83D3019
:1037D000211DFFF77DFF0123002084F83D3010BD3F
:1037E00080F83C20FFF718FEEEE70120704700BF8D
:1037F000026AF0B422F010028D680262036A476820
:1038000023F02003826943EA05130F4D0C6822F46C
:10381000E642A84242EA042206D049684760826133
:10382000F0BC816303627047CE6823F08003D1E966
:10383000054527F4406743EA06132C4323F0400371
:1038400047EA8407E9E700BF002C014090F83C30CC
:10385000012B28D010B502230446012084F83D3006
:1038600084F83C000C2A0BD8DFE802F0070A0A0AA9
:10387000150A0A0A190A0A0A11002068FFF7ECFC67
:103880000123002084F83D3084F83C0010BD2068FE
:10389000FFF73AFDF4E72068FFF7AAFFF0E720689A
:1038A000FFF704FDECE70220704700BF38B590F841
:1038B0003C30012B74D00D4602230121044680F8D0
:1038C0003C1080F83D300C2A19D8DFE802F00718C8
:1038D000181838181818511818181F0029460068A9
:1038E000FFF7BAFC23682869996941F008019961DA
:1038F000996921F0040199619A6902439A6101234F
:10390000002084F83D3084F83C0038BD294600682A
:10391000FFF7FAFC23682869D96941F40061D9618D
:10392000D96921F48061D961DA6942EA0022DA6159
:103930000020012384F83C0084F83D30E5E7294667
:103940000068FFF755FF23682869996941F4006111
:103950009961996921F4806199619A6942EA00222A
:103960009A610020012384F83C0084F83D30CCE7C4
:1039700029460068FFF79AFC23682869D96941F055
:103980000801D961D96921F00401D961DA690243DA
:10399000DA610020012384F83C0084F83D30B4E76C
:1039A000022038BD90F83C20012A1AD00222F0B43F
:1039B000034600250126046880F83D206068D1E9AF
:1039C000002720F070011143A268284622F08002EF
:1039D0003A436160A26083F83D6083F83C50F0BCDC
:1039E00070470220704700BF90F83C30012B22D076
:1039F0000246D1E9020310B4002423F440730343C8
:103A0000486823F480630343086823F40063034396
:103A1000086923F480530343486923F400530343A4
:103A2000C86923F48043116803434B64204682F83D
:103A30003C4010BC70470220704700BF704700BF79
:103A4000704700BF2DE9F04F01EB0308551C83B010
:103A50005FFA88F8EDB29B46009543460C469146C6
:103A6000064690F886A00C9F00F006FE08B3BBF156
:103A7000000F1CD080254FF0000B0AE096F885302F
:103A8000D3B101346D08E4B204BF80250137A045ED
:103A90000DD03B781D42F1D086F886A0CDF800B05D
:103AA00001234A462146304600F09EFDE9E786F8AC
:103AB00086A003B0BDE8F08FBAFA8AF252090093EB
:103AC00086F88620ECE700BF2DE9F04F83B09DF823
:103AD00030B0DF00FFB202EB0B069946F6B27B185E
:103AE000DBB200961446884682460D9D00F0C4FD68
:103AF00070B1BBF1000F0BD02246013400953B465C
:103B000041465046E4B2FFF79DFFA6424D44F3D133
:103B100003B0BDE8F08F00BF2DE9F04383B09DF8FE
:103B200028901F4602EB0905CB18EDB20095DBB2D9
:103B300014460E46804600F09FFD80B1B9F1000F9B
:103B40000DD04FF0000922460134CDF800903B46DD
:103B500031464046E4B200F047FDA542F3D103B040
:103B6000BDE8F0832DE9F043036883B006460025E5
:103B700090F83C8093F8119090F83D7002E09945E0
:103B800017D933681B7CA9B2DA0002FB01F2B16BD2
:103B9000ECB292B211443A1901340091D2B2002130
:103BA00030460135E4B201F027FA7B19A045DBB2BB
:103BB000E5D803B0BDE8F083026890F83C30127C91
:103BC000DB0002FB03F2806B002109F0C4BF00BFE1
:103BD00010B50446FFF7C6FF2046BDE8104001F0CF
:103BE00037BA00BF10B50446436B80F83D101B6820
:103BF0009847636B2046BDE810405B68184700BFDC
:103C000010B590F88730044653B1026890F83C3004
:103C1000127CDB0002FB03F20021806B09F09BFFAA
:103C20002046BDE810400021FFF7DCBF38B505464F
:103C3000FFF798FF95F83D4095F83C302A681C4402
:103C4000517CE4B2A14216D995F8871029B92846CB
:103C50002146FFF7C7FF012038BD127CDB0002FBC5
:103C600003F20021A86B09F076FF28462146FFF7F2
:103C7000B9FF0120F0E7284601F0EAF9002038BD3D
:103C80002DE9F0479DF824501E46EB070C461746D9
:103C900081469DF820803FD4A90728D42A0715D44F
:103CA0006B0701D4BDE8F0877B1C311B42464846B8
:103CB000DBB2C9B200F0B4FC631CF11B42464846BB
:103CC000BDE8F047DBB2C9B200F0AABC7B1C3119D9
:103CD00042464846DBB2C9B200F0A2FC631CF119AF
:103CE000DBB2C9B24246484600F09AFCD8E77B1CDA
:103CF000A8EB0702311B4846DBB2D2B2C9B200F0D2
:103D00008FFC631CA8EB0402F11BDBB2D2B2C9B278
:103D1000484600F085FCC1E7531C7118A8EB02026D
:103D2000DBB2D2B2C9B200F07BFC631CA8EB040288
:103D3000F119DBB2D2B2C9B2484600F071FCABE770
:103D40002DE9F04F1C46551C1D44013383B00B4434
:103D500091468846EDB2121B091B0095DBB2D2B228
:103D6000C9B282469DF830B000F086FC10B903B0AD
:103D7000BDE8F08FC4EBC4167600C4F10107CDE9AD
:103D8000009B434622460021504676B27FB2FFF7A1
:103D900077FF002CEBD000250135EDB2002F434614
:103DA00029465046FAB206DB0236F6B23244013CEE
:103DB000D2B276B2E4B202EB4507CDE9009B2246CF
:103DC0000137FFF75DFFA5427FB2E5D303B0BDE841
:103DD000F08F00BF10B50446FFF712FF2046FFF733
:103DE00025FF0028FAD101462046BDE81040FFF724
:103DF000F9BE00BF0823037000487047440C002040
:103E000030B585B000930D4613460949094A04466A
:103E100001F02CF90DF10F00FFF7ECFF9DF80F20DA
:103E2000014600952046044B00F040FF05B030BD30
:103E3000154F0008114E0008CD47000843185B7865
:103E4000405C03EB002080B2704700BF012B0BD019
:103E500007D3022B02D1801AC0B27047401AC0B2F9
:103E600070471044C0B270470844C0B2704700BFEA
:103E7000012B0BD007D3022B02D1401AC0B27047DE
:103E80001044C0B270470844C0B27047801AC0B234
:103E9000704700BF002370B490F86C50816580F8C3
:103EA0006230072D0A7836D90131A5F10803816502
:103EB000DBB24FF0FF3490F86D60AC4022EA0402B0
:103EC00080F8623080F86020F4180D78E4B2072C96
:103ED00045FA03F521D94A1C8265C3F108034A78E3
:103EE000DBB202FA03F3083C2B43E4B2DBB290F8F6
:103EF00086504FF0FF31B5FA85F2B140520923EAFE
:103F0000010380F8624080F8645080F8652080F8F2
:103F1000613070BC70472B46CBE7EBB2E7E700BFE0
:103F200000207047024610B50C460B780846137007
:103F30004B7811215370A3789370E378D370237971
:103F4000137163795371A3799371E379D371237AF0
:103F50001372637A5372A37A9372E37AD372237BD8
:103F60001373637B5373A37B9373E37BD373237CC0
:103F70001374FFF763FF132150822046FFF75EFFA3
:103F8000152190822046FFF759FFD08210BD00BF57
:103F900070B4847A06680A193378D2B2072A43FAD1
:103FA00004F519D9731C0360C4F108047378E4B2F2
:103FB000A340083A2B43D2B2DBB24FF0FF350124C5
:103FC0008D400139C9B223EA050304FA01F1827276
:103FD0005B1A58B270BC7047EBB2EEE72DE9F04FB8
:103FE00087B005460F46059290F85E9090F85FA066
:103FF0000EE095F86320002A43D0A7420AF101039E
:10400000A7EB040435D34FF00009E7B25FFA83FA57
:1040100095F85D0095F866804FFA89F64FFA8AFBAD
:1040200043465A463146039095F85C00FFF720FF5F
:1040300095F860400490A4EB09040398FFF706FF8D
:10404000E4B2059AA7423B4628BF2346002AD0D0B7
:1040500095F86460CDF800800246049985F8866082
:10406000284600F0C1FAA7420AF10103A7EB0404B5
:10407000C9D24F4485F85E7085F85FB007B0BDE8DF
:10408000F08F95F86560E5E72DE9F04F044600F103
:10409000580785B0FFF7FEFE384694F86E1094F985
:1040A0006160FFF775FF94F86F1082463846FFF79E
:1040B0006FFF94F8701005463846FFF769FF94F9D2
:1040C00060708346002F27DDF3B21D446D4294F8E3
:1040D00066806DB22A4603935146434694F85C00CD
:1040E000FFF7C6FE84F85C00814694F85D00FFF798
:1040F000ADFE024684F85D00B8F1030F00F2B18016
:10410000DFE808F07077830E94F95F20B2421EDB7F
:1041100094F8643084F88630584605B0BDE8F08FD6
:10412000039BC7F1010101444B440130CAB2DBB229
:10413000C1B200912046494600F09EFA0028EBD01B
:1041400000224FF0FF3894F86230A4F85E2094F813
:104150006AC0A16D0CEB03020F78D2B2072A47FAAE
:1041600003F562D8EFB294F86B0084F862208318EC
:104170000D78DBB208FA0CFC072B27EA0C0745FA8E
:1041800002FC60D85FFA8CF508FA00F025EA000519
:1041900084F8623005E05FFA8CF2D20784F862306E
:1041A000B2D5002239462046FFF718FF01222946E2
:1041B0002046FFF713FF94F86210A06D4B1C0278A5
:1041C000DBB2072B42FA01FCE5D9431CA365427818
:1041D000C1F10803DBB29A4042EA0C02CB1FD2B213
:1041E000DBB2DAE7039909EB07030144DBB2C9B29A
:1041F0009FE7039BD119C3F10100484409F1010372
:10420000DBB25FFA80F9C9B293E7039BC7F10105FE
:10421000C3F10100511C09F101034D4410445FFA40
:1042200085F9DBB2C2B2C9B283E74F1CA7654878F3
:104230003946C3F10807FFB200FA07F7083A2F43DF
:10424000D2B2FFB28FE74D1CA5654D78C2F10802CE
:10425000D2B205FA02F2083B42EA0C05DBB2EDB23B
:1042600092E701464B4664E7026DFF2938B502F13B
:1042700017030ED8602930D9B0F87C201344587841
:1042800030B11A788A422ED0034458780028F8D1E9
:1042900038BDB0F87E200D461A4414460021204651
:1042A000FFF7CCFD022102442046FFF7C7FD8542FF
:1042B00004F10404F2D8108840BA80B20028E7D094
:1042C000854208D093781A44108840BA80B20028FA
:1042D000DED08542F6D1D01C38BD4029D5D9B0F802
:1042E0007A201344D1E7981C38BD00BF38B5044686
:1042F000FFF7BAFFC0B104F1580501462046FFF7A9
:10430000C9FD94F86E102846FFF742FE94F86F102E
:1043100084F884002846FFF73BFE284694F8701086
:10432000BDE83840FFF734BE38BD00BF2DE9F84383
:1043300000231F460D4680F8603004463E4600F0DC
:10434000E7FC4FF6FF784FF6FE79013D636815F8FC
:10435000011F20469847404509D04845F6D0014600
:104360002046FFF7C3FFC7B23E44F6B2EEE794F92A
:10437000602032B194F8843013441E44F61B06F0DA
:10438000FF063046BDE8F8832DE9F04190F86660FD
:1043900004460F4615469846032E07D8DFE806F078
:1043A000201B1602426D90470744FFB284F85C70F0
:1043B00084F85D5041462046FFF756FF20B1014684
:1043C0002046FFF761FEC0B2BDE8F081436D98471B
:1043D0002D1AEDB2EAE7436D98473F1AFFB2E5E7C1
:1043E000436D98470544EDB2E0E700BF2DE9F04783
:1043F0001D460F46164604464FF0000900F088FCA3
:104400004FF6FF784FF6FE7A013D636815F8011FFD
:104410002046984740451ED05045F6D003463246C8
:1044200039462046FFF7B0FF94F86630032B05D8D5
:10443000DFE803F00B080E02361AF6B281445FFA89
:1044400089F9E2E70644F6B2F8E70744FFB2F5E778
:104450003F1AFFB2F2E74846BDE8F08710B4024CBD
:10446000446010BCFFF7C2BF014D0008036DE3B10B
:1044700090F9752090F9763090F8811080F88220BC
:1044800080F8833089B1012910D010B490F97210EE
:1044900090F9744021448A42B8BF80F88210A34248
:1044A000C8BF80F8834010BC7047704790F9771000
:1044B0008A4290F97820B8BF80F882109342F4DDE8
:1044C00080F88320704700BF014B4365704700BFF1
:1044D000213F0008026D8A420AD010B504466830B8
:1044E0002165FFF71FFD2046BDE81040FFF7BEBF66
:1044F000704700BF014B4360FFF718BF014D000834
:1045000070B49DF80C40012B04F0010503D9022C76
:1045100028D0032C41D045B390F845408C423AD87E
:1045200090F846408C4236D91344DBB2934290F85F
:10453000476090F8484039D2944236D9631EDBB2C6
:104540009E4228D2B24238BF32469C4294BFC2EB50
:104550000403C2EB0303DBB2446B0395A468A446D7
:1045600070BC60470131C91AC9B290F84740944203
:1045700011D890F8484094420DD90B44DBB28B42DD
:1045800090F8456090F8464014D28C4211D9631ED1
:10459000DBB29E4211D370BC704790F845400132A7
:1045A000D21A8C42D2B2BBD9F5E732469442F2D944
:1045B000C6E731468C42EED9EBE7B14238BF31460F
:1045C0009C4294BFC1EB0403C1EB0303DBB2C3E71E
:1045D00070B490F840409DF80C60121B046B039679
:1045E000A44670BCD2B2604770B490F880409DF889
:1045F0000C6024B11BB1039670BCFFF781BF70BC87
:10460000704700BF30B590F8804083B004B10BB95B
:1046100003B030BD00240094FFF772FF03B030BD3B
:1046200030B590F8804083B004B10BB903B030BD11
:1046300001240094FFF764FF03B030BD70B590F81B
:10464000475082B095420ED890F8485095420AD90A
:1046500090F845408C4206D890F846408C4202D9EA
:1046600090F880300BB902B070BD00240123009493
:10467000FFF746FFF7E700BF70B490F8486090F886
:10468000475096429DF80C400FD9A5420FD290F8A2
:10469000464090F845208C420ED99A4213D3994255
:1046A00094BF0020012070BC7047A54201D2A242F5
:1046B000EDD8002070BC70479A42FAD2994294BF5C
:1046C00000200120EFE7012070BC70472DE9F04F7A
:1046D00083B09DF8308099428CBFA1EB0309A3EB16
:1046E000010942450C469A46834616465FFA89F907
:1046F0003ED9A2EB0807FFB2B94543D2484611465E
:1047000022461E460123B946444607468A4690463D
:104710000193464534BF4FF001084FF0FF3849F38D
:104720004705BAF1FF0F08BF4FF0FE0A544513D9F1
:104730001BE0324621465846FFF780FFED1BEAB2E8
:1047400055B20134002DE4B204DA464402EB090507
:10475000F6B26DB2A24508D3019B002BE9D02246E8
:1047600031465846FFF76AFFE8E703B0BDE8F08F2F
:10477000A8EB0207FFB2B9451CD399420FD800231A
:104780000193C6E79942FAD9224600234646544689
:1047900049F34705924601934FF00108C1E72246CD
:1047A00000234646544649F34705924601934FF08D
:1047B000FF38B6E748462246C24698460123B94626
:1047C0003446074601931646A3E700BFF0B501241F
:1047D00090F8865002F00706B440012DE4B29DF82F
:1047E00014703BD9002502F0F80C026892F810E032
:1047F000826B0EFB0C1111447FB95A1ED2B20132EA
:104800000A440B782B43634001F8013B9142F8D1F5
:10481000F0BDFDB2D4B2002BFAD00A7801362A439B
:104820006240013B16F007060A70DBB24FEA45070B
:104830004FEA4402EDD190F8862090F83E70012AAC
:10484000394403D90124002BE7D1E1E708BF15461D
:10485000E1D001242546002BDFD1D9E7254608BF4A
:104860000024C0E7B0F90810B0F90A308B4218DD17
:1048700030B4C389C588828984882B449BB2224482
:104880001CB292B2002CC481828105DD0588448867
:104890002A441B1B8281C3810131018130BC01206C
:1048A00070470020704700BF037E0131C8B28342C9
:1048B00098BF0020704700BF037E0139C8B2834211
:1048C0009CBF03F1FF30C0B2704700BF2DE9F84331
:1048D00000EB40001F4FC600F419227DA7F11C0514
:1048E00005EB820C11462369284635F92280BCF974
:1048F0000290984705EB8003B3F902C035F92030E8
:10490000ACEB0901A3EB08039BB289B21AB20DB25A
:10491000002AA4F80890A4F80C80A4F80AC0207516
:1049200065800EDB01230021F3531346E18193FBE5
:10493000F5F192FBF5F205FB1133A280E380BDE8AF
:10494000F8834FF6FF705B42C1F10101F0531BB2D7
:10495000E181ECE7701000202DE9F041334F8046F3
:104960000020B7F91A60FFF7B1FF0120FFF7AEFF93
:104970007B7E002B51D12E4DB7F93C20002A21DB44
:1049800098F844309A421DDAB7F92830B7F9400058
:1049900083422CDA002815DB98F843108B4211DA99
:1049A000814223EAE373D8BF08B2D9B2431ADBB21B
:1049B0004046D2B2FFF726FE2846FFF753FF30B934
:1049C000FFF784FF2846FFF74DFF0028F8D0194C69
:1049D00002E00120FFF77AFF2046FFF743FF00289F
:1049E000F7D0013E36B2002EC6DCBDE8F081002BC8
:1049F000E8DB98F843108842E4DA0028B6BF0024C8
:104A00001C462346A142D8BF0BB2C1B25B1ADBB22F
:104A1000D2B24046FFF7F6FDD4E707F11C00FFF7DE
:104A200021FF07F13400FFF71DFFA4E75410002019
:104A30007010002088100020F8B50C4D01EB4101EA
:104A400005EBC1010C4607462E4691F8301001E0F7
:104A500084F83000E36A3046984705EB8003B3F9E9
:104A600002300146BB42F3D0F8BD00BF5410002015
:104A70000020F8B5284D294A95F818C0284BBCF1FC
:104A8000010F85F830006A64EB62B5F9024035D950
:104A900001228646164629462746B1F906300132DC
:104AA0009C42B8BF1C46BB4201F1040102DAB64683
:104AB0001F460120D6B26645EFD348BBE41B20B2A7
:104AC000688300B9F8BD95F830300121384685F883
:104AD0004830FFF7B1FF38460021FFF7ADFF012056
:104AE00095F8302095F8483035F9222035F92330F3
:104AF00068769A4204D000236B76F8BD6883F8BDCF
:104B0000688B013800B26883003018BF0120F8BDFF
:104B100085F830E0D2E700BF54100020A948000813
:104B2000B9480008F8B503260B4CBDF918500746E4
:104B30002180BDF91C00BDF9201026766280A3807B
:104B4000E58020816181FFF793FF00B9F8BD384609
:104B5000BDE8F840FFF700BF5410002070B490F893
:104B60003C500468EB00DBB280F83F30217C90F8C9
:104B70003D601F2928BF1F21F200C900D2B280F872
:104B80003E1080F84020617C35448D4202DD8B1B55
:104B9000DB00DBB2F021134480F8431080F8423090
:104BA00080F84120A38A8B4298BF80F84330E38A83
:104BB00070BC80F84430704730B490F8445090F89E
:104BC0004340AA1A9DF80850611AD2B2C9B26DB119
:104BD000012D03D0029530BCFFF7FABC0139D21A7F
:104BE0000295C9B2D2B230BCFFF7F2BC013AC91A81
:104BF0000295D2B2C9B230BCFFF7EABC30B590F82A
:104C00004C5083B090F84A3090F84B2090F84910FF
:104C100000950446FFF730FD20B3012194F8493098
:104C200094F8452084F880109A4238BF84F84530C3
:104C300094F8462094F84A309A4288BF84F8463067
:104C400094F8472094F84B309A4238BF84F84730A4
:104C500094F8482094F84C309A4288BF84F8483041
:104C600003B030BD84F8800003B030BD034600209F
:104C700010B493F8421093F8442083F847008A4216
:104C800024BF511A83F8471093F8411093F843401A
:104C9000521A83F8450083F8464083F848201846A6
:104CA00010BCFFF7ABBF00BFFFF758BF70B50025C2
:104CB000012680F83C20049A80F83D5080F863502B
:104CC00080F8855080F8866080F8876004468163AC
:104CD00003634263136805659847FF23626B84F89A
:104CE000495084F84B5084F84A3084F84C3053686B
:104CF000204698472046FFF7E7FB84F8665070BDD2
:104D000019B10A2901D088B270474FF6FF70704779
:104D1000002380F82730704710B404690A46A4467F
:104D20000023202110BC604710B404691346A44638
:104D30000A4610BC1721604700B583B002AA02F8EA
:104D4000011D0121FFF7F0FF03B05DF804FB00BF78
:104D500010B4C4680A46A4460023152110BC60475D
:104D600010B4C4680A46A4460023162110BC60474C
:104D700010B4C4681346A4460A4610BC1721604705
:104D8000002310B4C4681A46A446182110BC60471A
:104D9000002310B4C4681A46A446192110BC604709
:104DA00070B505460C4682B02178172910D01AD963
:104DB000192925D9FE2921D1637829211A462846A7
:104DC00002348DF8073000F04BF921781729EED125
:104DD00063780DF10702012128468DF8073002346F
:104DE000FFF7C6FFE0E7152908D36278EE688DF873
:104DF0000720002328460234B047D5E702B070BD33
:104E00000023EE681A4628460134B047CCE700BFBD
:104E100070B50D46143982B00446164605291CD8D3
:104E2000DFE801F01203030D12120021FFF774FFF7
:104E300031462046FFF780FF012002B070BD0121FE
:104E40000193FFF769FF019B2946256932462046F9
:104E5000AC4602B0BDE8704060470020EDE700BFFF
:104E60000E29F8B5144605463CD00F290AD00B2967
:104E700001D00020F8BD002A43D12449FFF790FF5C
:104E80000120F8BD1E46FFF77BFF737995F822706D
:104E9000402107EBC30707F0FF072846FFF758FF3D
:104EA000390941F010012846FFF752FF07F00F01C2
:104EB0002846FFF755FFB179284641F0B001FFF7CA
:104EC0004FFF31793268C90001F0F8012846FFF739
:104ED0004FFF621E12F0FF04F3D12846FFF758FF80
:104EE0000120F8BDFFF74CFF81212846FFF730FF76
:104EF00021462846FFF734FF2846FFF749FF0120E7
:104F0000EFE70349FFF74CFF0120F8BDC0EC0008B4
:104F1000C8EC000870B505460C461646FFF7A0FF22
:104F200030B90A2C06D00D2C13D0092C0BD070BD33
:104F3000012070BD284600F02FF828460F49FFF7E2
:104F40002FFF012070BD28460D4900F01FF80120F9
:104F500070BD4EB928460B49FFF722FF2B68012090
:104F60009B7C85F8223070BD28460749FFF718FF63
:104F70002B680120DB7C85F8223070BD88EC0008AE
:104F8000D0EC000870EC00087CEC000801608B7C21
:104F900080F82230704700BF38B5002345691A46B3
:104FA00028210446A8470023E5681A462046142114
:104FB000A847204601224B2100F052F823682046E2
:104FC0001A79292100F04CF8204600224B2100F0EC
:104FD00047F8236820461A79292100F041F8204635
:104FE00001224B2100F03CF8236820465A79292100
:104FF000BDE8384000F034B830B583B0069D02AC4F
:1050000044F8085D8DF805108DF806208DF8043001
:105010008568234601220F21A84703B030BD00BF99
:10502000002310B484681A46A446092110BC6047C6
:10503000002310B484681A46A4460A2110BC6047B5
:1050400010B484680A46A44600230B2110BC6047B4
:10505000002310B484681A46A446102110BC60478F
:1050600010B444690023A44610BC604770B4002506
:10507000FF26C0E90212039A056080F82350C58418
:10508000856180F8246080F82960C0E9043270BC32
:10509000FFF7C6BF01210022014B01701A6470475F
:1050A00000080040037803B970478E2340F21B12BA
:1050B00010B5044CA020E2622364FBF7E7FF002355
:1050C000236410BD00080040F8B5037803B9F8BDAB
:1050D00040F21B178E260025084CA020E7622664AC
:1050E000FBF7D4FF64202564FBF7D0FFE762A02024
:1050F0002664FBF7CBFF2564F8BD00BF0008004025
:10510000037803B9704740F28C5340F6173210B55C
:10511000044CA020E2622364FBF7B8FF0023236461
:1051200010BD00BF0008004038B5037803B938BD92
:1051300040F21B128E230025104CA020E262236453
:10514000FBF7A4FF32202564FBF7A0FF40F61732DF
:1051500040F28C53E2623C202364FBF797FF32203D
:105160002564FBF793FF40F28B5240F2C623E262C4
:10517000A0202364FBF78AFF256438BD00080040A7
:10518000037E22B1A2F10203B3FA83F35B0900EBC1
:1051900041000BB9408B7047408C7047D0F8A0306D
:1051A000002B52D0F0B5B1FA81F513F8112085B07B
:1051B000FF2A04464FEA551529D0694603F0B2FC90
:1051C00028BB9DF808309A0741D5BDF80010BDF8FE
:1051D000022091423BD2BDF80400824237D2BDF892
:1051E0000670B84233D2AE0035449DF80E6004EB31
:1051F0004504A4F87800A4F87410A4F87620A4F864
:105200007A7084F87C3084F87D6001201BE040F2E5
:105210000A50AB002B4404EB43044FF42A774FF4BD
:1052200071764FF4C8610122A4F878000020174B72
:10523000A4F874701B78A4F87660A4F87A1084F847
:105240007D3084F87C2005B0F0BD184670470123FE
:1052500040F20A50AA00154404EB45044FF42A77A3
:105260004FF471764FF4C861A4F878001846074AE5
:10527000A4F874701278A4F87660A4F87A1084F810
:105280007D2084F87C3005B0F0BD00BF0CE800083C
:1052900090F88C3013B990F8510070470020704797
:1052A00070B590F88C3082B004460D46DBB9B0F88A
:1052B0008E6032462946B4F84C0008F08DF994F817
:1052C0008C30A4F84C0003EB830304EB4304B4F8E4
:1052D0007430324600932946002380B208F03EF92C
:1052E00080B202B070BDB0F89660E2E770B50B898D
:1052F00005460C888888E2B9A5F84640A5F848001C
:10530000A5F84A3005F134042146284603F09EFBF7
:105310006E6BA86BE96B2A6C6E65A865E9652A66F9
:105320006E6CA86CE96C2A6D6E66A866E9662A67E1
:1053300070BDA5F84040A5F84200A5F84430E1E76B
:105340004FF6FF7310B584B0144643850A4669468C
:1053500003F0E8FB68B90DF1090104F1090304F158
:105360000E0211F8014B13F8010B844204D1934251
:10537000F7D1012004B010BD002004B010BD00BF63
:105380002DE9F043064600254FF0010885B000F1F5
:105390003407384604F0BCF9ECB284424FEA4409C1
:1053A00021DAD6F8A030013513F814204B44FF2A37
:1053B000EFD05B7803F00303032BEAD12246694662
:1053C000304603F0AFFB0028E3D1D6F8A0308DF8CB
:1053D00008804B44224683F801806946304603F03A
:1053E000D3FB0028D5D005B0BDE8F0832DE9F84FF8
:1053F00004464FF0EB0B03F0CFFA4FF4967A4FF0E0
:10540000320E4FF440734FF4966940F6FC0840F2B8
:10541000DF2CC8274026C325002005214FF48072C9
:10542000A4F84C00A4F84E10A4F83AB0A4F83CA09C
:10543000A4F83E90A4F84080A4F842E0A4F844C048
:10544000A4F84670A4F84860A4F84A50A4F8502084
:10545000A4F8523004F13401204603F0F7FA204654
:10546000BDE8F84FFFF78CBF2DE9F043002485B06D
:1054700007460D46A1464FF0FF0800F1340603E051
:1054800005F8138082F80190304604F041F9E3B248
:10549000834204F1010405EB4302F1DB0024A14641
:1054A000384603F03FFAA0425FFA84F807DD42462F
:1054B0006946384603F036FB30B1012819D15FFA4E
:1054C00089F005B0BDE8F0830DF10901304604F024
:1054D0002BF900280DDB9DF8083005EB400243B1A5
:1054E00015F81010FF2904D105F8108009F1010901
:1054F00053700134D4E700BF38B534300C46114640
:10550000154604F007F9E0B115B103784E2B08D128
:1055100001460522204608F00FFC00236371204657
:1055200038BD23460A4A014610681279206003F804
:10553000042F1846052208F0FFFB00236372204663
:1055400038BD044B03CB20606160204638BD00BFEE
:10555000E8EC0008F0EC000890F88C3023B990F8E3
:1055600051200349FFF7C8BF00220149FFF7C4BF1C
:10557000780200202DE9F047D0F8A0701646994631
:105580009DF820A0002F6ED04C1E002C80460D46AA
:105590007BDD6000BAF1000F58D03B185B78DB0769
:1055A00054D46FF0030107EB4503C91B04E013F863
:1055B000032C023BD70749D4013C01EB0300F6D191
:1055C00008F134071EE0DDB14FEA450CBAF1000FD7
:1055D00005D0D8F8A00060444078C00710D506F880
:1055E0002250D8F8A0000134604490F801C02A4647
:1055F000404683F801C0E4B2FFF77EFF4C4522D25B
:105600000135EDB2384604F083F804EB440206EBB2
:105610008203854203F10201D5DB4C4513D2002001
:1056200009F1FF331B1BDBB2234403EB430206F1FA
:105630000C0104EB440301EB820206EB8303987038
:105640000C339342FBD12046BDE8F087E2B23270C2
:10565000D8F8A030B11C1844437840467370FFF767
:105660004BFF0124ACE76BB13B4609F1FF32D2B2EC
:1056700002EB420906F10C0202EB8902B3700C3610
:10568000B242FBD10020BDE8F087002498E700BFBC
:10569000C288C38C9A4201D0002070470289038DD2
:1056A0009A42F9D14289438D9A42F5D1028B038FF8
:1056B0009A42F1D1827E90F83A309A42ECD1427F00
:1056C00090F83D309A42E7D1827F90F83E309A427E
:1056D000E2D1C27F90F83F309A42DDD1C27E90F88D
:1056E0003B309A42D8D1037F90F83C001B1A5842B5
:1056F0005841704770B500F1340405462046FFF765
:10570000C7FF00B170BD2146284603F09FF96E6BBC
:10571000A86BE96B2A6C6E65A865E9652A666E6CF4
:10572000A86CE96C2A6D6E66A866E9662A6770BD8A
:1057300038B504460D46FFF731FD00B938BD84F891
:1057400051502046BDE83840FFF7D4BF2DE9F04165
:1057500006464FF0000800F13407304603F0E2F847
:105760005FFA88F585424FF0000406DB10E0D6F8BA
:10577000A02012F81330AB4223D0384603F0C8FF04
:10578000E3B2834204F10104F1DB2846BDE8F08175
:10579000384603F0BDFFE5B2854215DAD6F8A030F1
:1057A000013413F8152003EB4503FF2AF0D05A7893
:1057B00012F00102ECD1FF215A7019702846BDE8A1
:1057C000F08108F10108C8E7FF252846BDE8F0810F
:1057D000D0F8A030002B3DD0F0B513F8115085B0B3
:1057E000FF2D06460C464FEA410707D069462A4678
:1057F00003F098F980B3002005B0F0BDFFF7A6FFD5
:10580000FF280546F7D0214606F1340003F082FF59
:105810000028F0D0014605220DF1090008F08CFAAD
:10582000012369462A4630468DF8083003F0ACF96A
:105830000028E0D16A4629463046FFF781FD00285E
:10584000D9D0D6F8A03003F814509DF808203B4476
:105850005A70D1E7002070479DF808302A4683F03F
:105860000103694630468DF8083003F08DF90028B1
:10587000C1D1D6F8A0309DF808201F4401207A70CD
:10588000BAE700BF2DE9F0411E4605465388D0F81F
:10589000A00084B04FEA4108B2F800C000EB080451
:1058A000ADF8023090889DF92830D288ADF8040018
:1058B0008DF80860ADF800C0ADF806208DF80E3008
:1058C00005F1340066700F4603F024FF18B3BDF8ED
:1058D0000230BDF800209A421DD2BDF80420934248
:1058E00019D2BDF80630934215D9014605220DF1B3
:1058F000090008F021FAD5F8A03005F19E0413F84C
:105900001720FF2A0ED02846694603F03DF928B932
:105910002046FFF7C7FB04B0BDE8F0812046FFF743
:1059200003FCF8E72846FFF711FFFF280246F5D0F1
:10593000D5F8A030984403F8170088F80160E2E732
:10594000F8B5CB7F0C46DA070746CE880D892AD5F5
:105950001E4B1F4A19883046128807F03DFE1D4B2A
:105960001D4A198806461288284607F035FEE37F4F
:105970000546DB0720D5B6B285B2A37F25811E2B55
:1059800088BF1E23E68088BFA3773846657F03F073
:10599000BFFE8542C4BF01236377E37E3C2B84BFF7
:1059A0003C23E376F8BD30B207F02CFE86B228B275
:1059B00007F028FE85B2CBE730B207F015FE86B2BD
:1059C00028B207F011FE85B2D7E700BF14E800083F
:1059D00012E8000810E800080EE800082DE9F84F6A
:1059E00000236849684A0988128800F13405044692
:1059F000A0F88810A0F88A2080F88C30284603F0A0
:105A000087FE400008F08CF8C4F8A000204602F0A1
:105A10001FFF04F15406002868D0D4F8A010002914
:105A200058D02046FFF720FDB0FA80F729462046DF
:105A30007F0902F07BFF002853D14021A4F84810D1
:105A40004FF0C3014FF0EB0B4FF4967A4FF4966989
:105A500040F6FC084FF0320E40F2DF2C4FF480721B
:105A60004FF44073A4F84C00A4F84A104FF0C8005B
:105A70004FF00501A4F83AB0A4F83CA0A4F83E9079
:105A8000A4F84080A4F842E0A4F844C0A4F846007A
:105A9000A4F84E10A4F85020A4F85230002120465B
:105AA000FFF77CFB94F851102046FFF777FB28683E
:105AB0006968AA68EB6860657160B260F360286924
:105AC0006969AA69EB6930617161B261F361384655
:105AD000BDE8F88F29462046012702F027FF00285D
