:020000040800F2
:1000000000500020FDD6000871D5000875D5000805
:1000100079D500087DD5000881D5000800000000D2
:1000200000000000000000000000000085D500086E
:1000300089D50008000000008DD5000891D5000882
:1000400045D7000845D7000845D7000845D7000820
:1000500045D7000845D70008CD6A000845D70008F5
:1000600045D7000845D7000845D7000895D50008B2
:1000700045D7000845D7000845D7000845D70008F0
:1000800045D7000845D7000845D7000845D70008E0
:1000900045D7000845D7000845D7000845D70008D0
:1000A00045D7000845D7000845D70008A1D5000866
:1000B000ADD5000845D7000845D7000845D700084A
:1000C00045D7000845D7000845D7000845D70008A0
:1000D00045D7000845D7000845D7000845D7000890
:1000E00045D7000845D7000845D7000800000000A4
:1000F0000000000000000000000000000000000000
:0C01000000000000000000005FF808F1A3
:1001100010B5054C237833B9044B13B10448AFF341
:1001200000800123237010BD5C020020000000004D
:10013000A8E4000808B5034B1BB103490348AFF31B
:10014000008008BD0000000060020020A8E4000854
:1001500081F0004102E000BF83F0004330B54FEA78
:1001600041044FEA430594EA050F08BF90EA020FE5
:100170001FBF54EA000C55EA020C7FEA645C7FEA78
:10018000655C00F0E2804FEA5454D4EB5555B8BF9B
:100190006D420CDD2C4480EA020281EA030382EA0C
:1001A000000083EA010180EA020281EA0303362D9E
:1001B00088BF30BD11F0004F4FEA01314FF4801C71
:1001C0004CEA113102D0404261EB410113F0004F83
:1001D0004FEA03334CEA133302D0524263EB43033A
:1001E00094EA050F00F0A780A4F10104D5F1200ED8
:1001F0000DDB02FA0EFC22FA05F2801841F1000133
:1002000003FA0EF2801843FA05F359410EE0A5F106
:1002100020050EF1200E012A03FA0EFC28BF4CF037
:10022000020C43FA05F3C01851EBE37101F00045ED
:1002300007D54FF0000EDCF1000C7EEB00006EEBFA
:100240000101B1F5801F1BD3B1F5001F0CD3490884
:100250005FEA30004FEA3C0C04F101044FEA4452DB
:1002600012F5800F80F09A80BCF1004F08BF5FEA62
:10027000500C50F1000041EB045141EA050130BD42
:100280005FEA4C0C404141EB010111F4801FA4F1E5
:100290000104E9D191F0000F04BF01460020B1FA3A
:1002A00081F308BF2033A3F10B03B3F120020CDA72
:1002B0000C3208DD02F1140CC2F10C0201FA0CF050
:1002C00021FA02F10CE002F11402D8BFC2F1200CB5
:1002D00001FA02F120FA0CFCDCBF41EA0C0190406B
:1002E000E41AA2BF01EB0451294330BD6FEA0404B4
:1002F0001F3C1CDA0C340EDC04F11404C4F120029F
:1003000020FA04F001FA02F340EA030021FA04F3B0
:1003100045EA030130BDC4F10C04C4F1200220FA07
:1003200002F001FA04F340EA0300294630BD21FA45
:1003300004F0294630BD94F0000F83F4801306BF0B
:1003400081F480110134013D4EE77FEA645C18BFFF
:100350007FEA655C29D094EA050F08BF90EA020F96
:1003600005D054EA000C04BF1946104630BD91EA8E
:10037000030F1EBF0021002030BD5FEA545C05D191
:100380004000494128BF41F0004130BD14F58004D0
:100390003CBF01F5801130BD01F0004545F0FE4144
:1003A00041F470014FF0000030BD7FEA645C1ABF79
:1003B000194610467FEA655C1CBF0B46024650EAB0
:1003C000013406BF52EA033591EA030F41F40021DC
:1003D00030BD00BF90F0000F04BF0021704730B562
:1003E0004FF4806404F132044FF000054FF0000137
:1003F00050E700BF90F0000F04BF0021704730B5F8
:100400004FF4806404F1320410F0004548BF4042CC
:100410004FF000013EE700BF42004FEAE2014FEA21
:1004200031014FEA02701FBF12F07F4393F07F4FFC
:1004300081F06051704732F07F4208BF704793F0FF
:100440007F4F04BF41F40021704730B54FF4607412
:1004500001F0004521F000411CE700BF50EA010215
:1004600008BF704730B54FF000050AE050EA0102BE
:1004700008BF704730B511F0004502D5404261EB2E
:1004800041014FF4806404F132045FEA915C3FF46F
:10049000D8AE4FF003025FEADC0C18BF03325FEA0C
:1004A000DC0C18BF033202EBDC02C2F1200300FABD
:1004B00003FC20FA02F001FA03FE40EA0E0021FAE2
:1004C00002F11444BDE600BF70B54FF0FF0C4CF4D0
:1004D000E06C1CEA11541DBF1CEA135594EA0C0F82
:1004E00095EA0C0F00F0DEF82C4481EA030621EABD
:1004F0004C5123EA4C5350EA013518BF52EA0335F8
:1005000041F4801143F4801338D0A0FB02CE4FF0A9
:100510000005E1FB02E506F00042E0FB03E54FF0D9
:100520000006E1FB03569CF0000F18BF4EF0010ED1
:10053000A4F1FF04B6F5007F64F5407404D25FEACD
:100540004E0E6D4146EB060642EAC62141EA555180
:100550004FEAC52040EA5E504FEACE2EB4F1FD0CC2
:1005600088BFBCF5E06F1ED8BEF1004F08BF5FEA40
:10057000500E50F1000041EB045170BD06F00046F2
:1005800046EA010140EA020081EA0301B4EB5C049F
:10059000C2BFD4EB0C0541EA045170BD41F4801197
:1005A0004FF0000E013C00F3AB8014F1360FDEBFBC
:1005B000002001F0004170BDC4F10004203C35DA98
:1005C0000C341BDC04F11404C4F1200500FA05F31B
:1005D00020FA04F001FA05F240EA020001F00042BC
:1005E00021F0004110EBD37021FA04F642EB060132
:1005F0005EEA430E08BF20EAD37070BDC4F10C045C
:10060000C4F1200500FA04F320FA05F001FA04F21F
:1006100040EA020001F0004110EBD37041F100010B
:100620005EEA430E08BF20EAD37070BDC4F1200516
:1006300000FA05F24EEA020E20FA04F301FA05F27E
:1006400043EA020321FA04F001F0004121FA04F226
:1006500020EA020000EBD3705EEA430E08BF20EAF6
:10066000D37070BD94F0000F0FD101F00046400030
:1006700041EB010111F4801F08BF013CF7D041EAB2
:10068000060195F0000F18BF704703F000465200B6
:1006900043EB030313F4801F08BF013DF7D043EA87
:1006A0000603704794EA0C0F0CEA135518BF95EA3D
:1006B0000C0F0CD050EA410618BF52EA4306D1D1C4
:1006C00081EA030101F000414FF0000070BD50EAE3
:1006D000410606BF1046194652EA430619D094EA6D
:1006E0000C0F02D150EA013613D195EA0C0F05D157
:1006F00052EA03361CBF104619460AD181EA0301AB
:1007000001F0004141F0FE4141F470014FF0000062
:1007100070BD41F0FE4141F4780170BD70B54FF0FD
:10072000FF0C4CF4E06C1CEA11541DBF1CEA13557D
:1007300094EA0C0F95EA0C0F00F0A7F8A4EB05045F
:1007400081EA030E52EA03354FEA013100F0888056
:100750004FEA03334FF0805545EA131343EA12631F
:100760004FEA022245EA111545EA10654FEA0026D4
:100770000EF000419D4208BF964244F1FD0404F58D
:10078000407402D25B084FEA3202B61A65EB0305E9
:100790005B084FEA32024FF480104FF4002CB6EBA6
:1007A000020E75EB030E22BFB61A754640EA0C0026
:1007B0005B084FEA3202B6EB020E75EB030E22BF66
:1007C000B61A754640EA5C005B084FEA3202B6EBA7
:1007D000020E75EB030E22BFB61A754640EA9C0066
:1007E0005B084FEA3202B6EB020E75EB030E22BF36
:1007F000B61A754640EADC0055EA060E18D04FEAF4
:10080000051545EA16754FEA06164FEAC30343EA93
:1008100052734FEAC2025FEA1C1CC0D111F4801F60
:100820000BD141EA00014FF000004FF0004CB6E759
:1008300011F4801F04BF01430020B4F1FD0C88BFF8
:10084000BCF5E06F3FF6AFAEB5EB030C04BFB6EB03
:10085000020C5FEA500C50F1000041EB045170BDF6
:100860000EF0004E4EEA113114EB5C04C2BFD4EB23
:100870000C0541EA045170BD41F480114FF0000EA7
:10088000013C90E645EA060E8DE60CEA135594EA23
:100890000C0F08BF95EA0C0F3FF43BAF94EA0C0F26
:1008A0000AD150EA01347FF434AF95EA0C0F7FF49B
:1008B00025AF104619462CE795EA0C0F06D152EAEF
:1008C00003353FF4FDAE1046194622E750EA4106D3
:1008D00018BF52EA43067FF4C5AE50EA41047FF4E4
:1008E0000DAF52EA43057FF4EBAE12E74A0011D296
:1008F00012F5001211D20DD56FF47873B3EB62527A
:100900000ED44FEAC12343F0004343EA505323FA85
:1009100002F070474FF00000704750EA013002D1FA
:100920004FF0FF3070474FF0000070474FEA410230
:10093000B2F1E04324BFB3F5001CDCF1FE5C0DD93D
:1009400001F0004C4FEAC0024CEA5070B2F1004F87
:1009500040EB830008BF20F00100704711F0804F8A
:1009600021D113F13872BCBF01F00040704741F44F
:1009700080114FEA5252C2F11802C2F1200C10FA53
:100980000CF320FA02F018BF40F001004FEAC12337
:100990004FEAD32303FA0CFC40EA0C0023FA02F3DB
:1009A0004FEA4303CCE77FEA625307D150EA0133B1
:1009B0001EBF4FF0FE4040F44000704701F0004081
:1009C00040F0FE4040F40000704700BF80F000405F
:1009D00002E000BF81F0004142001FBF5FEA410317
:1009E00092EA030F7FEA226C7FEA236C6AD04FEA17
:1009F0001262D2EB1363C1BFD2184140484041405C
:100A0000B8BF5B42192B88BF704710F0004F40F40D
:100A1000000020F07F4018BF404211F0004F41F429
:100A2000000121F07F4118BF494292EA030F3FD0F5
:100A3000A2F1010241FA03FC10EB0C00C3F1200308
:100A400001FA03F100F0004302D5494260EB400097
:100A5000B0F5000F13D3B0F1807F06D340084FEA02
:100A6000310102F10102FE2A51D2B1F1004F40EBF7
:100A7000C25008BF20F0010040EA0300704749005F
:100A800040EB000010F4000FA2F10102EDD1B0FA2A
:100A900080FCACF1080CB2EB0C0200FA0CF0AABF1F
:100AA00000EBC25052421843BCBFD04018437047BD
:100AB00092F0000F81F4000106BF80F400000132C3
:100AC000013BB5E74FEA41037FEA226C18BF7FEA9A
:100AD000236C21D092EA030F04D092F0000F08BFDC
:100AE0000846704790EA010F1CBF0020704712F0C3
:100AF0007F4F04D1400028BF40F00040704712F102
:100B000000723CBF00F50000704700F0004343F066
:100B1000FE4040F4000070477FEA226216BF08469C
:100B20007FEA23630146420206BF5FEA412390EA5F
:100B3000010F40F4800070474FF0000304E000BF55
:100B400010F0004348BF40425FEA000C08BF704706
:100B500043F0964301464FF000001CE050EA0102CA
:100B600008BF70474FF000030AE000BF50EA0102DF
:100B700008BF704711F0004302D5404261EB4101CC
:100B80005FEA010C02BF84460146002043F0B643F1
:100B900008BFA3F18053A3F50003BCFA8CF2083A16
:100BA000A3EBC25310DB01FA02FC634400FA02FC1F
:100BB000C2F12002BCF1004F20FA02F243EB020026
:100BC00008BF20F00100704702F1200201FA02FC88
:100BD000C2F1200250EA4C0021FA02F243EB02007B
:100BE00008BF20EADC7070474FF0FF0C1CEAD052BF
:100BF0001EBF1CEAD15392EA0C0F93EA0C0F6FD080
:100C00001A4480EA010C400218BF5FEA41211ED05D
:100C10004FF0006343EA501043EA5111A0FB013149
:100C20000CF00040B1F5000F3EBF490041EAD3711E
:100C30005B0040EA010062F17F02FD2A1DD8B3F19A
:100C4000004F40EBC25008BF20F00100704790F009
:100C5000000F0CF0004C08BF49024CEA502040EA5B
:100C600051207F3AC2BFD2F1FF0340EAC250704721
:100C700040F400004FF00003013A5DDC12F1190F5F
:100C8000DCBF00F000407047C2F10002410021FAD1
:100C900002F1C2F1200200FA02FC5FEA310040F1E9
:100CA000000053EA4C0308BF20EADC70704792F062
:100CB000000F00F0004C02BF400010F4000F013A9A
:100CC000F9D040EA0C0093F0000F01F0004C02BF95
:100CD000490011F4000F013BF9D041EA0C018FE704
:100CE0000CEAD15392EA0C0F18BF93EA0C0F0AD00A
:100CF00030F0004C18BF31F0004CD8D180EA010030
:100D000000F00040704790F0000F17BF90F0004FC8
:100D1000084691F0000F91F0004F14D092EA0C0FAA
:100D200001D142020FD193EA0C0F03D14B0218BF3D
:100D3000084608D180EA010000F0004040F0FE4083
:100D400040F40000704740F0FE4040F4400070471F
:100D50004FF0FF0C1CEAD0521EBF1CEAD15392EA9E
:100D60000C0F93EA0C0F69D0A2EB030280EA010C8E
:100D700049024FEA402037D04FF0805343EA111127
:100D800043EA10130CF000408B4238BF5B0042F185
:100D90007D024FF4000C8B4224BF5B1A40EA0C002A
:100DA000B3EB510F24BFA3EB510340EA5C00B3EB5C
:100DB000910F24BFA3EB910340EA9C00B3EBD10F4A
:100DC00024BFA3EBD10340EADC001B0118BF5FEA9C
:100DD0001C1CE0D1FD2A3FF650AF8B4240EBC250C5
:100DE00008BF20F0010070470CF0004C4CEA502086
:100DF0007F32C2BFD2F1FF0340EAC250704740F4D5
:100E000000004FF00003013A37E792F0000F00F0C6
:100E1000004C02BF400010F4000F013AF9D040EA44
:100E20000C0093F0000F01F0004C02BF490011F4D8
:100E3000000F013BF9D041EA0C0195E70CEAD153D0
:100E400092EA0C0F08D142027FF47DAF93EA0C0FB7
:100E50007FF470AF084676E793EA0C0F04D14B029B
:100E60003FF44CAF08466EE730F0004C18BF31F04D
:100E7000004CCAD130F000427FF45CAF31F0004347
:100E80007FF43CAF5FE700BF4FF0FF3C06E000BFE0
:100E90004FF0010C02E000BF4FF0010C4DF804CD03
:100EA0004FEA40024FEA41037FEA226C18BF7FEA13
:100EB000236C11D001B052EA530C18BF90EA010F15
:100EC00058BFB2EB030088BFC81738BF6FEAE170A4
:100ED00018BF40F0010070477FEA226C02D15FEA40
:100EE000402C05D17FEA236CE4D15FEA412CE1D0AC
:100EF0005DF8040B704700BF844608466146FFE773
:100F00000FB5FFF7C9FF002848BF10F1000F0FBD54
:100F10004DF808EDFFF7F4FF0CBF012000205DF84D
:100F200008FB00BF4DF808EDFFF7EAFF34BF0120D2
:100F300000205DF808FB00BF4DF808EDFFF7E0FF6B
:100F400094BF012000205DF808FB00BF4DF808EDBC
:100F5000FFF7D2FF94BF012000205DF808FB00BF1F
:100F60004DF808EDFFF7C8FF34BF012000205DF801
:100F700008FB00BF4FEA40024FEA41037FEA226CC0
:100F800002D15FEA402C08D17FEA236C02D15FEAEC
:100F9000412C02D14FF0000070474FF00100704724
:100FA0004FEA4002B2F1FE4F0FD34FF09E03B3EB76
:100FB00012620DD94FEA002343F0004310F0004FB6
:100FC00023FA02F018BF404270474FF0000070470C
:100FD00012F1610F01D1420205D110F0004008BFAB
:100FE0006FF0004070474FF000007047034613F861
:100FF000012B002AFBD1181A0138704738B54FF47D
:101000007A730D490D4A09781268B3FBF1F305466E
:10101000B2FBF3F000F06CFC08B90F2D01D90120F0
:1010200038BD0446024629464FF0FF3000F01CFC54
:10103000034B20461D6038BDE9010020F00100206F
:10104000EC010020074A08B51368032043F01003A1
:10105000136000F0F7FB0020FFF7D0FF0CF0CCF896
:10106000002008BD00200240034A044B11681B7891
:101070000B441360704700BF58100020E9010020A6
:10108000014B1868704700BF5810002038B504465F
:10109000FFF7F6FF631C054602D0044B1B781C4487
:1010A000FFF7EEFF401BA042FAD338BDE901002054
:1010B000436A9A6A12F0500F02D01B6A1B6B1847E2
:1010C0009A6A196842F4007210B59A628A6802F44A
:1010D0006022B2F5602F03D0184605F01FFC10BD4A
:1010E0001A7B002AF8D19A6A22F480729A629A6A6C
:1010F000D204F1D49A6A42F001029A62ECE700BF8E
:10110000704700BF08B5406AFFF7FAFF08BD00BF8F
:1011100008B5436A9A6A184642F040029A62DA6A4F
:1011200042F00402DA6205F0CFFC08BD002270B480
:1011300090F8243083B0012B01925FD001234D68D9
:101140000468062D80F824300A6805EB85034FF00B
:101150001F0625D90C2D47D8233B256B9E4025EA39
:10116000060502FA03F32B432363092A8B684FF029
:10117000070602EB420123D91E39E5688E408B40F9
:1011800025EA06010B43E360A2F11003012B22D9EB
:101190000023002280F82420184603B070BC70475A
:1011A000053B656B9E4025EA060502FA03F32B43D7
:1011B000092A63634FF007068B6802EB4201DBD814
:1011C00025698E408B4025EA06010B432361A2F17D
:1011D0001003012BDCD81A4B9C4214D0826A0123E5
:1011E00042F020028262D4E7413BE56A9E4025EA54
:1011F000060502FA03F32B43E362B6E7022318461F
:1012000003B070BC7047A3681B02C1D4A368102A46
:1012100043F40003A360BBD10A4B0B4A1B68A2FB3B
:1012200003239B0C03EB83035B000193019B002BC7
:10123000AED0019B013B0193019B002BF9D1A7E7A5
:1012400000240140F001002083DE1B43002330B561
:10125000026883B001939368D90730D4194B1A4CB4
:101260001B689168A4FB034341F001019B0C916052
:101270000193019B2BB1019B013B0193019B002B2F
:10128000F9D10446FFF7FCFE054623689B68DB079F
:1012900015D4FFF7F5FE401B02282368F6D99A689B
:1012A00012F00102F2D10120A36A84F8242043F055
:1012B0001003A362E36A0343E36203B030BD00207E
:1012C00003B030BDF001002083DE1B4390F82430D2
:1012D000012B38D0012310B580F824300446FFF7E5
:1012E000B5FF60BBA36A226823F44073284923F04A
:1012F000010343F480738A42A36226D0A36A23F4D5
:101300008013A362536859052BD4A36A002113F4F8
:10131000805318BFE36A84F8241018BF23F0060333
:10132000E3626FF002031360936803F46023B3F584
:10133000602F1DD0936843F48013936010BD002389
:1013400084F8243010BD02207047124B596811F404
:10135000702FD3D0A16A41F48011A1625B685B0554
:10136000D3D5A36A23F4405343F48053A362CCE75C
:10137000074B9A4204D0936843F4A003936010BDD6
:10138000A3F580635B6813F4702FD3D1F3E700BF3C
:10139000002801400024014038B503689A68D1074D
:1013A00001D4002038BD9A68044622F001029A60F8
:1013B000FFF766FE054623689B68DB07F1D5FFF75C
:1013C0005FFE401B02282368F6D99A68D207F3D53E
:1013D0000120A36A43F01003A362E36A0343E362BC
:1013E00038BD00BF002857D0F8B5836A0446002BEB
:1013F00045D02046FFF7D0FFA36A13F0100338D181
:10140000002836D1A26AE669616822F48852A5688C
:1014100022F00202277B42F002023143B5F5807FC1
:10142000A26241EA4701267D226837D0012D4FD0C4
:10143000012E52D055683C4B25F469455560054650
:10144000966833400B439360D36A384E23F470039D
:101450002B43D36293681E40B14230D00120A36A6F
:1014600023F0120343F01003A362E36A0343E36231
:10147000F8BDA36A012043F01003A362F8BDC36264
:1014800080F824300BF0DAFE2046FFF785FFA36AD0
:1014900013F01003EDD1B3E701207047012E3FD0C8
:1014A0005568214B25F4694545F48075556095686C
:1014B0002B400B4393602369013B1D05C4E70023C8
:1014C000E362A36A23F0030343F00103A362F8BDC0
:1014D000012E08BF4FF48073E2D1D7B1A66A46F05F
:1014E0002006A662E66A46F00106E66257680E4EDE
:1014F00027F469473B4353609368B5F5807F06EA5C
:10150000030646EA01069660D5D0012DD3D000250A
:101510009AE7A669013E43EA463343F40063E5E7F0
:101520002B46002FDAD1F4E7FDF7E1FFFE0E1FFF97
:1015300090F82430012B13D0012310B580F824300B
:101540000446FFF729FF38B9A36A23F4885323F030
:10155000010343F00103A362002384F8243010BD8B
:1015600002207047002270B590F8243082B0012B21
:1015700001924BD0012380F824300446FFF70CFF82
:10158000054628B10023284684F8243002B070BDF7
:10159000A36A2F4A23F4885323F0020343F0020383
:1015A000A3620220166801F0FBFCB6FBF0F04000DD
:1015B0000190019B2BB1019B013B0193019B002BEF
:1015C000F9D12046FFF742FE2268936843F00803F2
:1015D0009360FFF755FD064623689A68110719D5F1
:1015E000FFF74EFD801B0A282368F6D99A6810077A
:1015F000F3D5012500222846A36A84F8242023F08D
:10160000120343F01003A36202B070BD0225284606
:1016100002B070BD9A6842F004029A60FFF730FD94
:10162000064623689B685B070BD5FFF729FD801BE7
:101630000A282368F6D99A685207DAD49B685B07B0
:10164000F3D4A36A23F0030343F00103A36299E7F1
:10165000F0010020F0B504468DB00E4617466846EE
:10166000302200210CF0E7FA94F82430012B14D03A
:101670000125314A84F824509368009203F46023D2
:10168000B3F5602F0DD00022A36A84F8242043F024
:101690002003A36228460DB0F0BD022528460DB0F8
:1016A000F0BD2046FFF7D2FD054618B1002384F8AF
:1016B0002430EFE76846FFF7C9FD05460028F5D15D
:1016C000A26A1E4B2168134043F48073A3624B68E7
:1016D0005B0505D5A36A23F4405343F48053A3620A
:1016E00000236FF00202206ADFF858C0E36284F83A
:1016F0002430C0F828C0124BDFF84CC04C31C0E990
:101700000BC341F84C2C51F8442C3B4642F48077F3
:1017100041F8447C324600F037F92268936803F4BC
:101720006023B3F5602F93680CBF43F4A00343F428
:1017300080139360AEE700BF00280140FEFCEFFF7E
:1017400011110008B11000080511000870B5044619
:101750008CB06846302200210CF06DFA94F82430E9
:10176000012B1DD00126204684F82460FFF714FECB
:10177000054628B10023284684F824300CB070BDFB
:10178000144B68460093FFF707FE68B184F82450B5
:1017900035462846A36A43F01003A3620CB070BD1F
:1017A000022528460CB070BD2368206A9A6822F48E
:1017B00080729A605A6822F470225A6000F028F908
:1017C000A36A054623F4885323F0010343F0010381
:1017D000A362CFE70028014090F82420012A2AD0F4
:1017E000034601201A6883F824009068C00712D4C9
:1017F0001248806810F001000DD130B4104CA242A4
:1018000012D001209A6A42F020029A62002230BC73
:1018100083F8242070479A6A012042F020029A62DD
:10182000002283F82420704754680D6824F4702146
:1018300029435160EAE70220704700BF00280140B9
:10184000002401404FF6FF01064A0002D36800F46D
:10185000E0600B4043F0BF6343F400330343D360C5
:10186000704700BF00ED00E0184B30B4DB68C3F3F5
:101870000223C3F10705042D03F1040428BF042546
:10188000062C19D94FF0FF34033B9C4022EA040494
:101890004FF0FF32AA4021EA020101FA03F222438B
:1018A00012010028D2B20ADB00F1604000F561406D
:1018B00080F8002330BC704700242346E8E7044B3F
:1018C00000F00F0003441A7630BC704700ED00E0D2
:1018D000FCEC00E0002807DB012300F01F01034AB5
:1018E0008B40400942F82030704700BF00E100E023
:1018F0000138B0F1807F0DD230B4F02500220721ED
:10190000054B064C586084F82350104630BC9A6052
:10191000196070470120704710E000E000ED00E022
:1019200050B30246F0B4D0E9013600240125334318
:10193000D6680068334311491669114F0144334397
:101940005669A7FB017133439669D769334306682B
:101950000909890026F47F563B4326F030061164BE
:1019600008493343D16303602046946382F82040E2
:1019700082F82150F0BC704701207047F8FFFDBF8E
:10198000CDCCCCCC00000240F0B590F82040012C2A
:1019900032D0012490F8215080F82040A54225D172
:1019A00000264FF0020E046886632668076CD0F8A4
:1019B0003CC0BD4026F00106476880F821E0266063
:1019C000CCF804506360C36A102F0BBFA260A16003
:1019D000E160E2609BB1236843F00E0323600023C3
:1019E0002268184642F001022260F0BD0022022364
:1019F00080F820201846F0BD02231846F0BD236869
:101A000023F004032360236843F00A032360E6E71E
:101A100090F821200346022A06D004210022816387
:101A200080F820200120704770B4012600251A6834
:101A30002846116821F00E0111601468196C24F019
:101A400001041460DA6B06FA01F1516083F8216039
:101A500083F8205070BC7047042270B4D0E90F6145
:101A6000346803688A4022421D681FD06A071DD56A
:101A70001A68910603D41A6822F004021A603F4AD9
:101A800093425CD01432934261D01432934268D0B6
:101A9000143293426BD0143293425DD0143293428D
:101AA0000CBF4FF480034FF0806349E002228A406C
:101AB000224222D0AA0720D51A68910606D4012115
:101AC0001A6822F00A021A6080F821102B4A934209
:101AD0002BD01432934242D01432934244D0143269
:101AE000934236D01432934244D0143293420CBF06
:101AF0004FF400134FF0007318E008228A4022428E
:101B00001BD02A0719D5012200251C6802FA01F111
:101B100024F00E041C60036B7160826380F8212046
:101B200080F820504BB170BC184702230021144CA0
:101B3000826A636080F820103AB970BC7047042351
:101B40000F49C26A4B60002AF7D070BC104740238F
:101B5000F6E74FF40053E9E74FF48023F0E7202342
:101B6000E4E74FF48063EBE74FF40073DEE74FF4F4
:101B70008043E5E74FF40033D8E700BF0800024098
:101B8000000002400A68002A00F0DC802DE9F04FD6
:101B90004FF0000A85B05546DFF8D0C1DFF8D0E13C
:101BA0006D4FDFF8D08103E0013532FA05F379D0CB
:101BB0000123AB4002EA0304A342F5D14A68122A8A
:101BC00000F09F8000F28880022A00F09E807DD97C
:101BD000032A6AD0112A02D1CB6803F1040AFF2C30
:101BE00067D881460368AA000F2606FA02FB23EA9B
:101BF0000B030AFA02F21343C9F800304A68D30013
:101C000062D5DCF8189025F0030349F00109CCF8FF
:101C10001890DCF8189003F1804309F00109CDF821
:101C20000C9003F5803305F00309DDF80CB04FEAA2
:101C30008909D3F808B006FA09F62BEA06067045BA
:101C4000019611D0404564D0444EB0427BD0444E02
:101C5000B0420CBF4FF0030B4FF0040B019E0BFA88
:101C600009F946EA09060196019E9E603B68D60383
:101C70004CBF2343A3433B607B6896034CBF234385
:101C8000A3437B60BB68D6024CBF2343A343BB6026
:101C90009202FB6815D51C43FC600A68013532FAD4
:101CA00005F385D105B0BDE8F08FFF2C4FF0000A99
:101CB00097D905F18042083A4368920000F104097F
:101CC00092E723EA0404FC600A686DE7A2B1012AE6
:101CD00085D1D1F80CA082E7224EB2420CD020D997
:101CE000214EB24208D006F58036B24204D0A6F5A5
:101CF0008016B2427FF473AF8A68E2B94FF0040AEB
:101D00006DE7CB6803F10C0A69E7CB6803F1080AB9
:101D100065E74FF0010B0BFA09F946EA090601964F
:101D2000A2E7A6F58016B242E6D006F58036B242AA
:101D30007FF455AFE0E7012A0CBF036143614FF028
:101D4000080A4CE770474FF0020B019E0BFA09F9A5
:101D500046EA0906019687E70004014000100140A9
:101D6000001401400000211000003110001002405A
:101D700000080140000C01408368194214BF012093
:101D80000020704702B90904016170472DE9F04154
:101D90000746164698468DB23C6804E061694A05DC
:101DA00007D4731C1CD1606935EA0000F6D1BDE888
:101DB000F08100226FF480602021236843F40073D7
:101DC000236060613A6387F83D1087F83E203B6CE2
:101DD00087F83C2043F004033B640120BDE8F08118
:101DE000FFF74EF9A0EB0800B04201D8002ED3D186
:101DF000002220233A6387F83D3087F83E203B6C71
:101E000087F83C2043F020033B640120CFE700BF6C
:101E1000F8B506460D461746306804E04469620589
:101E200007D46B1C16D1436913F08003F6D0002051
:101E3000F8BD6FF4806120224161336386F83D2054
:101E400086F83E30326C86F83C3042F00402326450
:101E50000120F8BDFFF714F9C01BA84201D8002DDE
:101E6000DAD100222023326386F83D3086F83E2006
:101E7000336C86F83C2043F0200333640120F8BD26
:101E800070B505460C46164608E05169C9061BD4D4
:101E9000FFF7F6F8801BA04207D834B12A685369CF
:101EA00013F04003F1D0002070BD002220232A63EC
:101EB00085F83D3085F83E202B6C85F83C2043F0BA
:101EC00020032B64012070BD6FF0100020215061B1
:101ED0002B6385F83D1085F83E302A6C85F83C3040
:101EE0002A64012070BD00BF2DE9F8438146904669
:101EF0001E460F0C8CB2D9F8005009E0A96934EAEB
:101F000001030CBF0120002080450BD1731C0CD1B4
:101F1000012FF3D16B6934EA03030CBF01200020C9
:101F20008045F3D00020BDE8F883FFF7A9F8089BAF
:101F3000C01AB04201D8002EDDD100222023C9F8FA
:101F4000302089F83D3089F83E20D9F8403089F8B2
:101F50003C2043F02003C9F840300120E3E700BFF4
:101F60002DE9F047066884B035680D9F45F480750B
:101F7000884691469A4635600C9B009700224FF0A8
:101F800001110446FFF7B0FF70B123681B68DB0541
:101F900003D4032004B0BDE8F0874FF4007303209E
:101FA000236404B0BDE8F087226808F0FE031361E3
:101FB0001B493B460C9A2046FFF7E8FE18B101206A
:101FC00004B0BDE8F0872368039059693A4603914D
:101FD0009B690C9903932046039BFFF719FF88B96F
:101FE000BAF1010F216817D04FEA19230B613A4665
:101FF0000C992046FFF70CFF20B922685FFA89F39D
:102000001361C7E7236C042BD9D122680120136820
:1020100043F400731360BDE75FFA89F30B61B9E71E
:10202000020001002DE9F047046884B026680D9F86
:1020300046F4806626602668884646F48076914697
:102040009A4626600C9B009700224FF0011105462E
:10205000FFF74AFF70B12B681B68DB0503D4032030
:1020600004B0BDE8F0874FF4007303202B6404B084
:10207000BDE8F0872B685FFA88F808F0FE021A6165
:102080002D493B460C9A2846FFF780FE18B10120E7
:1020900004B0BDE8F0872B68039059693A46039174
:1020A0009B690C9903932846039BFFF7B1FE48BB3D
:1020B000BAF1010F2B682FD15FFA89F21A613A4603
:1020C0000C992846FFF7A4FEE0B92C680246216867
:1020D0000C9B41F48071216028464FF0011100975C
:1020E000FFF702FF0028B6D1296848F001020A6113
:1020F0003B4628460C9A1049FFF748FE003018BFAF
:102100000120ADE72B6C042BC1D12A680120136894
:1021100043F400731360A3E74FEA19221A610C9984
:102120003A462846FFF774FE0028EBD12A685FFA8A
:1021300089F31361C3E700BF02000100F8B506464A
:102140000D461746306804E04469620507D46B1CED
:1021500016D1436913F00403F6D00020F8BD6FF4E4
:10216000806120224161336386F83D2086F83E304D
:10217000326C86F83C3042F0040232640120F8BD33
:10218000FEF77EFFC01BA84201D8002DDAD1002245
:102190002023326386F83D3086F83E20336C86F883
:1021A0003C2043F0200333640120F8BD002800F0F8
:1021B0009F80F8B590F83D30044603F0FF02002BF5
:1021C00000F08F802422236884F83D201A6822F0D2
:1021D00001021A601A6842F400421A601A6822F476
:1021E00000421A6000F03AFE62684B4B9A424BD8AC
:1021F0004A4B98427AD9431E5200B3FBF2F2484947
:102200002368A1FB00105968800C21F03F010143B5
:102210005960196A013021F03F0108431862501CCF
:10222000C0F30B00042838BF0420D96921F44F41C2
:1022300021F0FF01002520260843D8611968D4E960
:10224000072021F0C00102430A431A609968D4E9CB
:10225000030221F4034121F0FF0102430A439A6083
:10226000D968D4E9052021F0FF0102430A43DA606E
:102270001A68284642F001021A60256484F83D601D
:10228000256384F83E50F8BD264B98422ED94FF472
:102290009671234D2368A5FB0065AD0C01FB05F18C
:1022A0005E68214F26F03F06A7FB017135435D6054
:1022B0001D6A890925F03F05013129431962D96951
:1022C000A56821F44F41013821F0FF0195B902EBD7
:1022D0004202B0FBF2F00130C0F30B00C0B90120A4
:1022E000A8E780F83C200BF017F86BE70120F8BD59
:1022F0000120704702EB820202EB8202B0FBF2F097
:102300000130C0F30B000028E9D040F4404091E7D1
:1023100040F400408EE700BFA08601007F841E00CD
:1023200083DE1B43FF083D00D34D62102DE9F043CF
:10233000044683B099460E461746BDF82C80FEF73A
:102340009FFE94F83D30202B03D0022003B0BDE85F
:10235000F083054600901923012240492046FFF7EB
:10236000C3FD0028F1D194F83C30012BEDD00123BE
:10237000226884F83C301368D90703D4136843F00B
:10238000010313604FF0400C00204FF0210E116844
:102390004B4621F40061116031460A9E84F83DE00D
:1023A00084F83EC02064A4F82A80B4F82AC066628B
:1023B0000C9EA0F58030019500963A46E062A4F8A4
:1023C00028C02046FFF7CCFD18BB238DC3B12A4699
:1023D0000C992046FFF71CFDC0B9666A206831469B
:1023E00011F8013B278D0361628D7B1E013A92B289
:1023F000628542699BB2520761622385E6D563B963
:102400002A460C992046FFF799FE90B1236C042BC5
:102410001CD0012003B0BDE8F0837278BB1E0261BE
:10242000628D9BB2013A023692B223856662628562
:10243000CCE720212268136843F40073136084F80A
:102440003D1084F83C0084F83E007FE722680120BC
:10245000136843F40073136078E700BF02001000B4
:102460002DE9F0430446002089B099460D461746F1
:102470000390BDF84480FEF703FE94F83D30202B16
:1024800004D00225284609B0BDE8F0830646009036
:10249000192301229B492046FFF726FD0028F0D191
:1024A00094F83C30012BECD00123226884F83C30B6
:1024B0001368D80703D4136843F0010313604FF087
:1024C000220E4FF0400C002011684B4621F40061B1
:1024D00011602946109D84F83DE084F83EC02064D8
:1024E000A4F82A80B4F82AC06562129DA0F5803055
:1024F000009501963A46E062A4F828C02046FFF70E
:1025000091FD0546A8B9238D2268BBB90490536993
:10251000049393690493049B136843F4007313605A
:102520000023202284F83C3084F83D2084F83E309B
:10253000A8E70125284609B0BDE8F083012B48D063
:10254000022B00F0E780116841F480611160079070
:102550005169079192690792079A6B4FDFF8AC9126
:10256000DFF8AC81002BDBD0032B45D8012B00F02A
:10257000AB80022B0096129B4FF00002394620469A
:1025800064D1FFF7B1FC0028D3D172B62368616A29
:102590001A6842F400721A601B690B70638D616ADD
:1025A000228D013B0131013A9BB261622285638534
:1025B00062B62268636A12691A70628D238D616A3D
:1025C000013A013B013192B29BB26162628523857F
:1025D000C8E7136823F48063136072B6236805901C
:1025E0005A6905929A690592059A1A6842F400722E
:1025F0001A6062B6238DB0E7324612992046FFF783
:102600003FFC002895D12268636A12691A70628DB6
:102610002168013A92B2238D62854869626A013B62
:102620009BB202F1010C40072385C4F824C099D560
:102630000B695370238D628D616A013B013A9BB235
:1026400092B201312385628561628BE7FFF74CFC12
:1026500000287FF46EAF2268136823F48063136050
:1026600072B62268636A12691A70D9F80030618DF7
:10267000DB08A8FB0323208D626A1B0A013989B29B
:1026800003EB830361850138C3EBC303511C616213
:102690002085039303E023685969490721D4039BEC
:1026A000013B0393039B002BF5D12022236384F885
:1026B0003D2084F83E30226C42F02002226462B653
:1026C000012584F83C30DDE6324612992046FFF7BA
:1026D000D7FB00287FF42DAF2268636A12691A7055
:1026E000A8E7196841F4007119601B695370638D84
:1026F000616A228D013B9BB20131013A63856162BF
:10270000228555E70200100004000100F0010020BE
:1027100089B5F814136843F40063136072B6236834
:1027200006905A6906929A690692069A1A6822F4E5
:1027300080621A6062B6238D0FE700BF2DE9F04F6B
:10274000044685B01D4689469246FEF799FC94F8EA
:102750003D30202B03D0022005B0BDE8F08F0646A7
:1027600000901923012252492046FFF7BDFB0028A3
:10277000F1D194F83C30012BEDD00123216884F88D
:102780003C300B68D80763D5242000224FF00108A5
:102790000B68DFF81CB123F400630B60454B84F831
:1027A0003D0009F0FE092264E3620A682B4642F408
:1027B00080720A602046002200964FF00111FFF758
:1027C00093FB2368002850D1C3F81090FEF758FC03
:1027D000216806464B694A6994F83D0003F00203FC
:1027E000A02802F4806218D0BBB9B2B9A02701E0DA
:1027F0009BB992B9FEF744FC801BA84200D80DB9E2
:1028000084F83D7021684B694A6994F83D0003F0F3
:102810000203A02802F48062EAD1202784F83D70E8
:102820004B699B0729D46FF480600A68192342F42E
:1028300000720A6048610122594600962046FFF75F
:1028400053FB70B908F10108D04506D22168ACE706
:102850000B6843F001030B6096E784F83D7084F841
:102860003C00012005B0BDE8F08F1B68DA051DD5DE
:102870004FF40073032023646EE700200A681923D5
:1028800042F400720A60039048690122039089694A
:102890002046039100960649039DFFF725FB00287B
:1028A000DFD184F83D7084F83C0055E7032053E7FE
:1028B000020010000000FFFF90F83D00704700BFCD
:1028C000002800F055812DE9F041036882B0DD0752
:1028D000044635D5A8494A6802F00C02042A00F0E3
:1028E00005814A6802F00C02082A00F0FB80636848
:1028F000B3F5803F10D0002B00F02081B3F5A02F5E
:1029000000F078819C4B1A6822F480321A601A68B1
:1029100022F480221A6004E0974A136843F480335B
:102920001360FEF7ADFB944D064605E0FEF7A8FBED
:10293000801B642800F2F5802B689A03F6D5236883
:102940009F074DD41A0722D5A369002B00F0BA8047
:1029500001228A4B884D1A60FEF792FB064605E07D
:10296000FEF78EFB801B022800F2DB806B6A9B0760
:10297000F6D5834B834A1B68A2FB03235B0A0193B2
:1029800000BF019B5A1E0192002BF9D123685D07FD
:1029900069D5794BDA69D00000F1EC800125DA695C
:1029A00042F08052DA61DB6903F080530093009BB0
:1029B000754B1A68D10540F1A380E368012B37D02D
:1029C000002B00F0E780052B6B4B1A6A00F01F818B
:1029D00022F001021A621A6A22F004021A622CE042
:1029E000654A516811F00C0F61D0516801F00C017B
:1029F000082959D02369002B00F0EB800122634B9A
:102A00005D4D1A60FEF73CFB064605E0FEF738FB1D
:102A1000801B022800F285802B689807F6D52B686A
:102A2000626923F0F80343EAC2032B60236889E755
:102A3000514A136A43F001031362FEF721FB4E4E25
:102A4000804641F2883705E0FEF71AFBA0EB08004C
:102A5000B84266D8336A9B07F6D525B1464AD36992
:102A600023F08053D361E069D0B1434D6A6802F02E
:102A70000C02082A00F0D38002284FF00001444ADB
:102A800000F0DE801160FEF7FBFA2C46054604E0FC
:102A9000FEF7F6FA401B022843D823689B01F7D4BF
:102AA000002002B0BDE8F0815268D603A2D4324AB9
:102AB0001268950739D52269012A36D0012002B063
:102AC000BDE8F0812D4A2C4D1360FEF7D9FA064679
:102AD00004E0FEF7D5FA801B022822D86B6A9F0714
:102AE000F7D453E74A68D0037FF501AF224A126852
:102AF00091037FF525AF6268002A7FF421AFDDE7FF
:102B00001A681E4642F480721A60FEF7B9FA074648
:102B10003368DA053FF551AFFEF7B2FAC01B6428FF
:102B2000F6D9032002B0BDE8F081134960690A6854
:102B300022F0F80242EAC0020A6003E703F1804390
:102B400003F504331A681D4622F480321A601A68AD
:102B500022F480221A60FEF793FA064604E0FEF79C
:102B60008FFA801B6428DCD82B689B03F7D4E6E639
:102B70000120704700251BE70010024080044242FC
:102B8000F0010020D34D621000700040000042426E
:102B90006000424203F1804303F504331A6A1E4683
:102BA00022F001021A621A6A41F2883822F0040205
:102BB0001A62FEF765FA074604E0FEF761FAC01BE9
:102BC0004045AED8336A9807F7D4002D3FF44BAF99
:102BD00044E7344A344D1360FEF752FA064604E0E7
:102BE000FEF74EFA801B02289BD82B689907F7D472
:102BF0002368A7E603F18043A3F53C331A6842F447
:102C000080221A601A6842F480321A6089E642F023
:102C100004021A621A6A42F001021A620DE70128E0
:102C20003FF44DAF6B68226A03F4803191427FF428
:102C300045AF606A03F47013181A18BF01203EE70D
:102C40001160FEF71DFA064605E0FEF719FA801B33
:102C500002283FF666AF2B689901F6D4226AB2F5D6
:102C6000803F05D16B68A16823F400330B436B6090
:102C700001250D4B606A5968024321F474110B4819
:102C80000A435A6005601C46FEF7FAF9054605E05E
:102C9000FEF7F6F9401B02283FF643AF23689A017E
:102CA000F6D5FDE6000042420010024060004242BC
:102CB00040F2012286B0154B0DF1180CADF804203E
:102CC0000FCB0CE90F0012494B6803F00C02082AE5
:102CD00002D0104806B07047C3F383426244DB035E
:102CE00012F8102C04D40C4800FB02F006B0704718
:102CF0004B680848C3F3404300FB02F0634413F8F9
:102D0000143CB0FBF3F006B0704700BFC0E400080D
:102D10000010024000127A0000093D0078B14A4AD2
:102D2000136803F007038B420BD2136823F00703E9
:102D30000B431360136803F007038B4201D001209B
:102D4000704703682DE9F0419D0714D55C0704D551
:102D50003E4C626842F4E06262601A0704D53B4C64
:102D6000626842F460526260384C8568626822F0A2
:102D7000F0022A436260DF0704460D4620D5426810
:102D8000324B012A1B6856D0022A59D0990727D501
:102D90002E4E41F28838736823F0030313437360A7
:102DA000FEF76EF9074604E0FEF76AF9C01B4045DE
:102DB00044D87368626803F00C03B3EB820FF3D15D
:102DC000214A136803F00703AB420CD9136823F0C0
:102DD00007032B431360136803F00703AB4202D0D1
:102DE0000120BDE8F08123685A0706D51749E0683D
:102DF0004A6822F4E06202434A601B0712D4FFF7DC
:102E000057FF124B124A5B681249C3F30313D35C9A
:102E1000114A20FA03F308681360FEF7EFF8002068
:102E2000BDE8F081094A2169536823F4605343EAFD
:102E3000C1035360E3E79E03AAD4D1E70320EFE781
:102E40009801A5D4CCE700BF00200240001002404A
:102E5000ACF20008EC010020F0010020044B054911
:102E60005B68054AC3F30223CB5C1068D840704707
:102E700000100240BCF20008F0010020044B05499C
:102E80005B68054AC3F3C223CB5C1068D840704727
:102E900000100240BCF20008F00100202DE9F041D2
:102EA0000446006882B0C5072AD53A4BDA69D100DA
:102EB0003DD5394B00251A68D20546D5354960689D
:102EC0000A6A12F440720FD000F4407393420BD0A0
:102ED000012700260B6A314A23F440701760166000
:102EE0000862D80745D460682A4A136A23F44073FD
:102EF000034313621DB1D36923F08053D36120686B
:102F0000830706D5234AA168536823F440430B4343
:102F1000536010F0100007D000201E4AE16853688B
:102F200023F480030B43536002B0BDE8F081DA69FB
:102F3000012542F08052DA61DB6903F0805301938E
:102F4000019B154B1A68D205B8D41A681E4642F484
:102F500080721A60FEF794F807463368DB05ADD43B
:102F6000FEF78EF8C01B6428F7D9032002B0BDE835
:102F7000F0810E46FEF784F841F288378046336AC6
:102F80009A07B0D4FEF77CF8A0EB0800B842F6D957
:102F9000EBE700BF001002400070004040044242D6
:102FA00010B5044640F2012286B0344B0DF1180CE6
:102FB000022CADF804200FCB0CE90F0042D0102CEE
:102FC0001CD0012C02D0002006B010BD40F202320D
:102FD0002B490B6A1A40B2F5817F4BD003F4407342
:102FE000B3F5007F3AD0B3F5407FECD10B684FF2D8
:102FF000244013F4003F08BF0020E5E7204B596848
:10300000186810F08070DFD006A8C1F38342024434
:1030100012F8100CCA0329D55B6806A9C3F3404314
:103020000B44184A13F8143CB2FBF3F300FB03F013
:10303000134B5B685B02C7D4134B4000A3FB00300B
:103040004008C1E7FFF71AFF0D4B5B68C3F38133FC
:1030500001335B00B0FBF3F006B010BD4B6A49F6DC
:10306000404013F0020F08BF0020ADE7074B03FB01
:1030700000F0DDE74FF40040A6E700BFD0E4000811
:103080000010024000127A00ABAAAAAA00093D0073
:103090002DE9F0411E4682B014460D460746FDF765
:1030A000EFFF2644361AFDF7EBFF8046254B1B68E1
:1030B000C3F3CB3306FB03F30193386801E0631CD1
:1030C00007D1836835EA0303F9D0002002B0BDE8D8
:1030D000F081FDF7D5FFA0EB0800B04208D2019ABD
:1030E000019B002A03F1FF3308BF00260193E4E7A8
:1030F000D7E900315A68B1F5827F22F0E0025A60C8
:1031000014D0BA6AB2F5005F07D00122002387F815
:10311000512087F850300320D8E71A6822F4005273
:103120001A601A6842F400521A60EEE7BA68B2F503
:10313000004F02D0B2F5806FE3D11A6822F040024E
:103140001A60DEE7F001002000284CD0F8B5436A91
:10315000002B42D00023C0E90433002390F8511023
:103160000446836201F0FF0200293ED01A46D4E9EA
:103170000130022701260025E16800F4044003F431
:1031800082730343206901F4006138400B43616995
:103190000343A06931400B4300F400710B43E16924
:1031A00084F85170276A01F038010B4307F080075B
:1031B00021683B4313430A68000C00F0040022F02E
:1031C00040020A600B604860CB69284623F4006324
:1031D000CB61656584F85160F8BD4268B2F5827FC5
:1031E000BBD0C361B9E70120704780F850200AF0D6
:1031F000C5F8A36A03F40052B9E700BF2DE9F04116
:1032000090F8504082B0012C7BD01D46012380F8FD
:103210005030044617468846FDF732FF064694F8BC
:103220005100C0B2012809D002200122002384F8F5
:10323000512084F8503002B0BDE8F081B8F1000FA1
:10324000F3D0002FF1D000230321A26884F851109D
:10325000B2F5004F6365A363A387C4E91033E78623
:10326000C4F83080E387A786236807D11A6822F064
:1032700040021A601A6842F480421A601A685206C4
:1032800043D5E2686168B2F5006F4FD0002941D1A3
:1032900098F800201A73E38E226B013B9BB2013237
:1032A000E3862263E28E92B28AB123689A6892071B
:1032B00033D5226B12781A73E28E216B013A92B2E7
:1032C000E286E28E013192B22163002AEDD13346CB
:1032D0002A4680212046FFF7DBFE20B12022636DC5
:1032E000134363656265A36833B922680193D368A9
:1032F000019393680193019B606D003018BF01201A
:1033000093E7022002B0BDE8F0811A6842F0400263
:103310001A60B6E7012FC5D1BAE7FDF7B1FE801BF1
:10332000A842BFD36B1CBDD003207EE711B3012F91
:1033300020D0E38E9BB2002BC9D023689A689007F7
:1033400010D5226B32F8021BD960E38E2263013B59
:103350009BB2E386E38E9BB2002BB8D023689A68B9
:103360009007EED4FDF78CFE801BA842E1D3691CC8
:10337000DFD0D9E7414631F8022BDA60E38E2163D2
:10338000013B9BB2E386D4E790F85100704700BF41
:10339000026AF0B422F001028D680262036A476893
:1033A00023F0020382692B430D4D0C6822F0730257
:1033B000A84242EA040206D0496847608261F0BC34
:1033C000416303627047CE6823F00803D1E90545E5
:1033D00027F4407733432C4323F004032743EBE7E0
:1033E000002C0140026AF0B422F480728D680262FF
:1033F000036A476823F40073C26943EA05230F4D4B
:103400000C6822F07302A84242EA040206D049681E
:103410004760C261F0BCC16303627047CE6823F4A9
:103420000063D1E9054527F4405743EA06232C43BE
:1034300023F4806347EA0417E9E700BF002C01404A
:10344000026A70B422F480528E680262036A456890
:1034500023F40053C26943EA06330A4E0C6822F48F
:10346000E642B04242EA042204D14C6925F4804588
:1034700045EA841549684560C26170BC0164036215
:10348000704700BF002C0140704700BF59BB90F847
:103490003E30012B33D1022380F83E3001220368F5
:1034A00001F01F01186A02FA01F120EA0100186216
:1034B000186A214A0143934219622AD0B3F1804F1E
:1034C00006D01E4A934203D002F58062934204D193
:1034D0009A6802F00702062A24D01A68002042F0F7
:1034E00001021A60704704290BD008291CD090F8FB
:1034F0004130012B03D1022380F84130CEE7012077
:10350000704790F83F30012BF9D1022380F83F300B
:10351000C4E75A6C42F400425A649A6802F0070207
:10352000062ADAD10020704790F84030012BE6D10E
:10353000022380F84030B1E7002C01400004004035
:1035400081BB90F83E30012B40D10223026880F805
:103550003E301346D26842F00202DA600122186A55
:1035600001F01F0102FA01F120EA01001862186A55
:103570002C4A01439342196237D0B3F1804F06D0F1
:10358000294A934203D002F58062934204D19A689B
:1035900002F00702062A31D01A68002042F0010228
:1035A0001A607047042913D0082929D090F84130B7
:1035B000012B0BD102220368042980F841201A460E
:1035C0000ED00C2929D00029C8D1C2E701207047AC
:1035D00090F83F30012BF9D10222036880F83F2098
:1035E000DA6842F00402DA60B8E75A6C42F400424A
:1035F0005A649A6802F00702062ACDD1002070476B
:1036000090F84030012BE1D10222036880F840207D
:10361000DA6842F00802DA60A0E7DA6842F01002E5
:10362000DA609BE7002C014000040040704700BFB7
:10363000FFF72CBF90F83C30012B5AD00222F0B497
:103640000125036880F83D209A680C6822F47F42C7
:1036500022F07702402C80F83C509A6074D04AD90E
:10366000602C2DD056D9702C1AD0B4F5005F0ED135
:10367000D1E90152CC6899682A4342EA042221F434
:103680007F410A439A609A6842F480429A6000231C
:10369000F0BC012280F83C3080F83D20184670478D
:1036A000D1E90152CC6899682A4342EA042221F404
:1036B0007F410A439A609A6842F077029A60E6E78F
:1036C0001C6A4D6824F01004CE681C6299691A6A5D
:1036D00021F4704122F0A00242EA051241EA0631CB
:1036E00099611A629A6822F0700242F067029A6049
:1036F000CDE702207047102C04D03DD9202C01D0FA
:10370000302CC4D19A6844F0070422F070021443AC
:103710009C60BCE7502CBAD11D6A1E6A4C6826F02A
:103720000106CF681E629A6925F00A0122F0F002B4
:1037300042EA071221439A6119629A6822F07002E4
:1037400042F057029A60A2E71D6A1E6A4C6826F092
:103750000106CF681E629A6925F00A0122F0F00284
:1037600042EA071221439A6119629A6822F07002B4
:1037700042F047029A608AE7002CC3D087E700BF77
:10378000704700BF704700BF704700BF704700BF61
:10379000036810B51A690446910702D5DA689207E2
:1037A0005FD41A69500702D5DA68510746D41A69FE
:1037B000120702D5DA6810072ED41A69D20602D58C
:1037C000DA68D00618D41A69D10702D5DA68D207A8
:1037D0005DD41A69100602D5DA6811065FD41A6939
:1037E000520602D5DA68500661D41A69910602D5EC
:1037F000DA68920643D410BD6FF0100108221961F7
:10380000DB69204613F4407F227764D0FFF7BAFFCC
:10381000002223682277D6E76FF00801042219619D
:10382000DB6920469907227752D103F01DF8204624
:10383000FFF7AAFF002223682277BEE76FF004019A
:10384000022219619B69204613F4407F22773CD104
:1038500003F00AF82046FFF797FF0022236822773B
:10386000A5E76FF00201012219619B6902779B07AE
:1038700025D0FFF787FF00222368227791E76FF0BA
:1038800020022046BDE810401A6100F019BA6FF01E
:10389000010220461A61FFF773FF236899E76FF072
:1038A000800220461A6100F00DFA236897E76FF056
:1038B000400220461A61FFF769FF236895E702F08E
:1038C000D3FF2046FFF760FFD5E7FFF75BFFC4E7B4
:1038D000FFF758FFAEE702F0C7FF2046FFF754FF9F
:1038E00096E700BF70B41C4E0368B0424D698C6807
:1038F0000A681DD0B0F1804F11D0A6F59436B042C1
:103900000DD006F58066B04209D023F080032B432A
:1039100003600123C462826270BC436170474E68D9
:1039200023F070033343C96823F440730B43ECE77F
:103930004E6823F070033343CE6823F4407333435F
:1039400023F080032B430360C46282620B6970BC66
:103950000363012343617047002C014048B390F892
:103960003D3010B503F0FF020446EBB1022320689E
:1039700084F83D30211DFFF7B5FF0123002084F8B6
:10398000463084F83E3084F83F3084F8403084F884
:10399000413084F8423084F8433084F8443084F86D
:1039A000453084F83D3010BD80F83C2009F01AFD08
:1039B000DCE70120704700BF48B390F83D3010B5F8
:1039C00003F0FF020446EBB10223206884F83D3087
:1039D000211DFFF787FF0123002084F8463084F87B
:1039E0003E3084F83F3084F8403084F8413084F829
:1039F000423084F8433084F8443084F8453084F809
:103A00003D3010BD80F83C20FFF73EFDDCE7012093
:103A1000704700BF48B390F83D3010B503F0FF0287
:103A20000446EBB10223206884F83D30211DFFF7E6
:103A300059FF0123002084F8463084F83E3084F892
:103A40003F3084F8403084F8413084F8423084F8C4
:103A5000433084F8443084F8453084F83D3010BD5C
:103A600080F83C20FFF7E2FDDCE70120704700BF53
:103A7000026AF0B422F010028D680262036A47689D
:103A800023F02003826943EA05130F4D0C6822F4EA
:103A9000E642A84242EA042206D0496847608261B1
:103AA000F0BC816303627047CE6823F08003D1E9E4
:103AB000054527F4406743EA06132C4323F04003EF
:103AC00047EA8407E9E700BF002C014090F83C304A
:103AD000012B2BD0012310B5044680F83C300C2A72
:103AE0000BD8DFE802F0070A0A0A150A0A0A1C0ABC
:103AF0000A0A0E000068FFF74BFC002084F83C0027
:103B000010BD0068FFF79CFC002084F83C0010BD4D
:103B10000068FFF7ADFF002084F83C0010BD00688E
:103B2000FFF760FC002084F83C0010BD02207047C5
:103B300038B590F83C30012B61D001230D46044686
:103B400080F83C300C2A18D8DFE802F00717171766
:103B500030171717451717171B000068FFF718FCD9
:103B600023682869996941F008019961996921F0F0
:103B7000040199619A6902439A61002084F83C002B
:103B800038BD0068FFF75CFC23682869D96941F4F7
:103B90000061D961D96921F48061D961DA6942EAA9
:103BA00000220020DA6184F83C00E9E70068FFF7B2
:103BB0005FFF23682869996941F4006199619969F7
:103BC00021F4806199619A6942EA002200209A6199
:103BD00084F83C00D4E70068FFF704FC23682869F8
:103BE000D96941F00801D961D96921F00401D9618D
:103BF000DA6902430020DA6184F83C00C0E7022061
:103C000038BD00BF90F83C30012B29D0022270B49F
:103C10000126036880F83D205A680C68114D22F097
:103C200070022243AB429C6880F83C605A6009D025
:103C3000B3F1804F06D00C4A934203D002F5806264
:103C4000934204D14A6824F0800414439C6000230A
:103C500070BC012280F83C3080F83D201846704747
:103C600002207047002C01400004004090F83C30D6
:103C7000012B22D00246D1E9020310B4002423F420
:103C800040730343486823F480630343086823F4C4
:103C900000630343086923F480530343486923F412
:103CA00000530343C86923F48043116803434B6402
:103CB000204682F83C4010BC70470220704700BF8D
:103CC000704700BF704700BF2DE9F74F0B44DFB2CC
:103CD000531CDBB290F8868000933B4605460C46A9
:103CE0009146DDF830A000F022FD30B180264FF083
:103CF000000BA74204D185F8868003B0BDE8F08FA1
:103D00009AF800301E4212D085F88680CDF800B0B7
:103D100001234A462146284600F06CFC760804F14F
:103D20000104E4B204BF0AF1010A8026E1E795F834
:103D30008520002AF2D1B8FA88F35B0985F886302D
:103D40000092E5E72DE9F3479DF82850DE00F6B232
:103D500015449946EDB273180095DBB28246884649
:103D600014460B9F00F0E3FC60B902B0BDE8F08799
:103D700000972246334641465046FFF7A5FF0134DF
:103D80004F44E4B2A542F3D1EFE72DE9F7439DF8A4
:103D900028501F461544EDB2CB180095DBB2804683
:103DA0000E46144600F0C3FC18B14FF00009A542BE
:103DB00002D103B0BDE8F0832246CDF800903B4627
:103DC00031464046013400F015FCE4B2EFE72DE93E
:103DD000F74305460026036890F83C9090F83D7044
:103DE00093F811802B68B1B21B7CF4B2D800414328
:103DF000A86B89B201443A1901340091D2B2002172
:103E00002846E4B201F0E7F8A14504D90136BB1910
:103E1000DBB29845E6D803B0BDE8F0830368002123
:103E20001A7C90F83C30806BDB005A4309F003BFEA
:103E300010B50446FFF7CBFF2046BDE8104001F067
:103E4000F3B810B50446436B80F83D101B689847E3
:103E5000636B2046BDE810405B68184710B590F8CA
:103E6000873004460BB1FFF7D9FF2046BDE810406C
:103E70000021FFF7E6BF38B50446FFF7A8FF94F826
:103E80003D5094F83C1023680D445B7CEDB2AB428E
:103E900004D8204601F0C8F8002038BD94F88730D7
:103EA00013B12046FFF7BAFF20462946FFF7C9FFA6
:103EB0000120F2E72DE9F0479DF82490804619F0A3
:103EC000010F0C4616461D469DF8207010D0531C5D
:103ED0006918BA1ADBB2D2B2C9B200F0FAFB631C9D
:103EE0003A1BA919DBB2D2B2C9B2404600F0F1FBCD
:103EF00019F0020F11D0731CBA1B291BDBB2D2B20E
:103F0000C9B2404600F0E5FB631C3A1BA91BDBB2BB
:103F1000D2B2C9B2404600F0DCFB19F0080F0FD056
:103F2000731C2919DBB23A46C9B2404600F0D1FBF6
:103F3000631CA919DBB23A46C9B2404600F0C9FB7E
:103F400019F0040F11D0731C291B3A464046DBB20E
:103F5000C9B200F0BEFB631CA91B3A464046BDE84F
:103F6000F047DBB2C9B200F0B4BBBDE8F0872DE981
:103F7000F74F91461C4609F10105013325440B44D6
:103F80008846121B091BEDB20095DBB2D2B2C9B252
:103F900082469DF830B000F0CAFB88B1CDE9009BA5
:103FA0004346224600215046FFF784FF0026C4EB1B
:103FB000C417C4F101057F006DB27FB2B44202D8CC
:103FC00003B0BDE8F08F002D06DB0237FBB2013CE9
:103FD0001D44E4B25FB26DB20136F6B205EB4605A0
:103FE0000135CDE9009B43462246314650466DB22D
:103FF000FFF760FFE2E710B50446FFF72FFF20460A
:10400000FFF739FF01460028F9D12046BDE81040EE
:10401000FFF717BF0823037000487047490C0020C2
:1040200030B585B00D46009309491346094A044648
:1040300001F01EF80DF10F00FFF7ECFF9DF80F20C7
:1040400001460095044B204600F044FE05B030BD0B
:10405000054F0008134E0008534800084218435CFF
:10406000507800EB032080B27047012B07D003D3B8
:10407000022B06D0401A00E01044C0B2704708443A
:10408000FBE7801AF9E7012B07D003D3022B06D0F8
:10409000104400E00844C0B27047801AFBE7401AA1
:1040A000F9E70020704738B50B780D4603704B7860
:1040B000044643708B788370CB78C3700B7903719F
:1040C0004B7943718B798371CB79C3710B7A03720E
:1040D0004B7A43728B7A8372CB7AC3720B7B0373F6
:1040E0004B7B43738B7B8373CB7BC3730B7C112123
:1040F00003742846FFF7B2FF132160822846FFF7BA
:10410000ADFF1521A0822846FFF7A8FFE08238BD49
:1041100070B5847A066862183378D2B2072A43FAF7
:1041200004F507D8EBB282724FF0FF30884023EAE3
:10413000000070BD731C03607378C4F10804E4B21E
:10414000A3402B43083ADBB2D2B2ECE738B50023E8
:1041500000F15805044680F86230816590F86C10D3
:104160002846FFF7D5FF94F86D1084F860002846C4
:10417000FFF7CEFF94F8863084F8610084F864304D
:10418000B3FA83F35B0984F8653038BD10B5FFF7E7
:10419000BFFF01234C1EE4B2A340C01A40B210BDC1
:1041A0002DE9F04F04460E4687B090F85E8090F8F7
:1041B0005F70059294F860503346A5EB0805EDB2A8
:1041C000AE4228BF2B4694F86690029394F85D3077
:1041D0004FFA88FA4FFA87FB5A46049351464B46EA
:1041E00094F85C00FFF74FFF03900498FFF73DFF42
:1041F000059B02469BB194F8643084F88630CDF874
:104200000090DDE90231204600F0F4F9AE420DD312
:10421000761B0137F6B2FFB24FF00008CAE794F8F8
:104220006330002BF2D194F86530E6E7464484F819
:104230005E6084F85FB007B0BDE8F08F2DE9F04F05
:10424000044685B000F15809FFF780FF94F961300A
:1042500094F86E1048460293FFF798FF94F86F1099
:1042600083464846FFF792FF94F870108046484610
:10427000FFF78CFF94F960600390002E52DD9DF8EB
:10428000085094F866A0A844C8F100084FFA88F8CE
:1042900053464246594694F85C00FFF7F4FE84F812
:1042A0005C00074694F85D00FFF7DFFE84F85D00D0
:1042B000BAF1030F58D8DFE80AF00239424EBB19B1
:1042C0000544DBB2E9B2009102463946204600F0CF
:1042D0002EFA38B30023A4F85E3094F86A104846EA
:1042E000FFF716FF94F86B1006464846FFF710FFDD
:1042F0000546002231462046FFF752FF2946204658
:104300000122FFF74DFF01214846FFF701FF00287A
:10431000EFD194F95F30029A9342DEDB94F8643077
:1043200084F88630039805B0BDE8F08FC5F101052B
:104330007A1906440137FBB2F1B2D7B2C3E7C6F12E
:104340000106C5F10105411CBA1905440137FBB24C
:10435000C9B2E8B2F1E7C6F10106411CEB19064407
:10436000DBB2C9B2F0B2AEE701463B46ABE7036D44
:10437000FF2970B503F117030D4612D8602909D93A
:10438000B0F87C201344587818B11A78AA4206D1A4
:10439000981C70BD4029F6D9B0F87A20F2E70344A2
:1043A000F1E7B0F87E401C44264600213046FFF776
:1043B00055FE022104443046FFF750FE854206F1C7
:1043C0000406F2D8208840BA80B20028E1D08542A5
:1043D00001D1E01CDDE7A3781C44F3E738B50446BF
:1043E000FFF7C5FF0146B8B104F158052046FFF7B5
:1043F000ADFE94F86E102846FFF7C8FE94F86F10D3
:1044000084F884002846FFF7C1FE94F8701028460F
:10441000BDE83840FFF7BABE38BD2DE9F8430025A6
:104420000F4680F8605006462C4600F07BFC4FF6A5
:10443000FF784FF6FE79013F17F8011F7368304689
:1044400098474045014608D04845F5D03046FFF72B
:10445000C5FFC5B22C44E4B2EEE796F9602032B154
:1044600096F8843013441C44641B04F0FF04204677
:10447000BDE8F883F8B51F4690F8663004460E464E
:104480001546032B07D8DFE803F002151A1E436D0B
:1044900098470544EDB284F85C6084F85D50394675
:1044A0002046FFF764FF20B101462046FFF7C6FE15
:1044B000C0B2F8BD436D9847361AF6B2EBE7436DCC
:1044C00098472D1AE6E7436D98470644F5E72DE92E
:1044D000F0471E4607460C4615464FF0000A00F00E
:1044E00021FC4FF6FF784FF6FE79013E7B6816F807
:1044F000011F38469847404503461BD04845F5D034
:104500002A4621463846FFF7B5FF97F86630032B59
:1045100005D8DFE803F002080B0D0444E4B2504470
:104520005FFA80FAE2E70544EDB2F8E7241AF5E70E
:104530002D1AF9E75046BDE8F087000010B4024C90
:10454000446010BCFFF7C3BF154D0008036D10B5E4
:10455000C3B190F9754090F9761090F8813080F8E9
:10456000824080F883106BB1012B0CD190F9773029
:104570009C42B8BF80F8823090F97830994201DDD2
:1045800080F8833010BD90F9742090F97230134494
:104590009C42B8BF80F882309142C8BF80F8832027
:1045A000F0E70000014B4365704700BFA3400008DF
:1045B000026D10B58A42044608D021656830FFF7C5
:1045C00072FD2046BDE81040FFF7C0BF10BD0000DF
:1045D000014B4360FFF721BF154D000870B490F800
:1045E00040409DF80C60121B046B0396A44670BCFF
:1045F000D2B2604770B490F880409DF80C50002C07
:104600003AD0002B38D0012B04D9022D2BD1013107
:10461000C91AC9B215F0010530D190F8474094424B
:104620002AD890F84840944226D90B44DBB28B42FA
:1046300090F8456090F846401CD28C4219D9631E10
:10464000DBB29E4218D2B14238BF31469C4294BF81
:10465000C1EB0404C1EB0304E3B2446B0395A4680B
:10466000A44670BC6047032D02BF0132D21AD2B2F9
:10467000D0E731468C42E4D870BC704790F8454092
:104680008C42F9D890F846408C42F5D91344DBB2FD
:10469000934290F8476090F8484010D294420DD968
:1046A000631EDBB29E42E7D2B24238BF32469C4222
:1046B00094BFC2EB0404C2EB0304CDE7324694423C
:1046C000DAD9EFE713B500240094FFF793FF02B0A7
:1046D00010BD13B501240094FFF78CFF02B010BD8C
:1046E00073B590F84760964210D890F848609642AB
:1046F0000CD990F845508D4208D890F846308B423E
:1047000004D9002300930123FFF774FF02B070BDAA
:104710008A4206D2834208D89A4294BF00200120E0
:1047200070478342F8D8002070470120704770B569
:1047300004460D461E4690F848109DF8103090F83B
:104740004700FFF7E5FF48B133462A4694F8461084
:1047500094F84500BDE87040FFF7DABF70BD2DE961
:10476000F74F1D469DF83030A9428CBF4F1B6F1A82
:104770009A4201900C461646FFB20AD9A2EB0308F2
:104780005FFA88F8474524D3A9424AD84FF0000978
:104790000FE0A3EB02085FFA88F847454CD23A468F
:1047A000474690462A4634461D460E4613464FF06D
:1047B00001099E4234BF4FF0010A4FF0FF3A47F320
:1047C000470BFF2D08BFFE25A5420BD203B0BDE865
:1047D000F08F3A464746904632461C462E460B46D8
:1047E0001546E4E7B9F1000F18D132462146ABEB8C
:1047F000080B0198FFF774FF5FFA8BF24FFA82FB08
:10480000BBF1000FBCBF564402EB070B04F10104DF
:10481000BCBFF6B24FFA8BFBE4B2D5E72246314675
:10482000E5E71E46234647F3470B2C464FF00009A9
:104830001D464FF0010AC4E7A942A7D91E462346E8
:1048400047F3470B2C464FF000091D464FF0FF3A47
:10485000B7E7F0B5012490F8865002F00706B4409F
:10486000012D9DF81470E4B217D8254617D002F038
:10487000F80C026892F810E0826B0EFB0C111144E8
:104880007FB9013BDBB201330B440A782A43624013
:1048900001F8012B9942F8D1F0BD0025E7E700248B
:1048A000E5E70A7801362A436240013B16F0070625
:1048B0000A70DBB20CD190F83E20114490F88620AB
:1048C000012A0AD80BD001242546002BE9D1E3E7C1
:1048D0006D006400EDB2E4B2F7E70124F5E7154698
:1048E000F3E7B0F90810B0F90A3010B58B4216DDC5
:1048F00082898388C4881A44C38992B223449BB2B4
:104900001CB2002C8281C48105DD0488224482818E
:1049100042889B1AC38101310181012010BD002012
:10492000FCE7007E0131C9B288428CBF08460020F6
:104930007047037E0139C9B28B429CBF03F1FF313E
:10494000C9B20846704700002DE9F84318254543D1
:104950001D4EAC19217DA6F11C0909EB8103B3F9A9
:1049600002804846236939F92170984709EB800392
:10497000B3F902C039F92030ACEB0802DB1B9BB263
:1049800019B292B22075002910B26080A4F80AC052
:10499000A4F80880A7810EDB0123AB530023E38139
:1049A0000B4693FBF0F291FBF0F100FB1233A18078
:1049B000E380BDE8F8834FF6FF775B42C2F1010266
:1049C000AF531BB2E281ECE778100020F8B5182451
:1049D0000A4D06462F4604FB015494F83010E36A52
:1049E0003846984705EB8003B3F902300146B342DD
:1049F00002D184F83000F2E7F8BD00BF5C1000205F
:104A000000222DE9F041504B504C06466364504B58
:104A10000121E362B4F9023017461D4694F818E00C
:104A200084F830205FFA81FCF44561D30AB184F840
:104A300030705B1B1BB26383002B6DD094F8303059
:104A40000121284684F84830FFF7C0FF002128469E
:104A5000FFF7BCFF012394F83020637694F84830C8
:104A600034F9222034F923309A424FD00023637660
:104A70000020B4F91A50FFF767FF0120FFF764FF29
:104A8000637E2BB13348FFF72CFF3348FFF729FF34
:104A9000304F07F11808B4F93C20002A1BDB96F8C8
:104AA00044309A4217DAB4F92830B4F9400083420E
:104AB00034DA00280FDB96F843108B420BDA23EA36
:104AC000E3738142D8BF08B2D9B2431ADBB2D2B283
:104AD0003046FFF7F7FD3846FFF703FF68B340465F
:104AE000FFF7FFFE60B3013D2DB2002DD3DC13E0D4
:104AF00004EB8100B0F9020001318342B8BF0346E4
:104B0000A842BEBF6746054601228BE7638B013B87
:104B10001BB26383002BABD1BDE8F081002BDADB45
:104B200096F843108842D6DA0028B8BF002399428D
:104B3000D8BF0BB2C1B25B1AC8E7FFF705FFCAE7DF
:104B40000120FFF701FFCAE7234900085C1000209D
:104B5000334900087810002090100020F0B4094C70
:104B6000BDF91070A3800323BDF91460BDF918507E
:104B700021806280E780268165812376F0BCFFF783
:104B80003FBF00BF5C10002070B590F83C4001684A
:104B9000E30080F83F300A7C90F83D501F2A28BF80
:104BA0001F22EB00DBB2D20080F8403080F83E20BC
:104BB0004A7C66199642C4BF541BE4B280F8413067
:104BC00003EBC40380F84230F02380F843308B8A33
:104BD000F02B98BF80F84330CB8A80F8443070BD0A
:104BE00030B490F844409DF80850A21A90F8434021
:104BF000D2B2611AC9B23DB9013AC91AD2B2C9B228
:104C0000029530BCFFF7EABC012D01BF01F1FF3175
:104C1000D21AC9B2D2B2F3E737B590F84C5090F837
:104C20004A3090F84B2090F8491000950446FFF761
:104C30007EFD18B984F8800003B030BD012394F8DC
:104C4000452084F8803094F849309A4238BF84F87F
:104C5000453094F8462094F84A309A4288BF84F848
:104C6000463094F8472094F84B309A4238BF84F885
:104C7000473094F8482094F84C309A4288BF84F822
:104C80004830D9E7002390F8432080F8473080F877
:104C9000453080F8462090F8443090F84220934206
:104CA00024BF9A1A80F8472090F841209B1A80F878
:104CB0004830FFF7B1BFFFF767BF002280F84920F7
:104CC00080F84B20FF22436B80F84A2080F84C206C
:104CD0005B68184770B50025036301230446049EF2
:104CE00080F83C2080F83D5080F8635080F8855073
:104CF00080F8863080F887308163336805654663C5
:104D000098472046FFF7D9FF2046FFF74BFC84F871
:104D1000665070BD19B10A2901D088B270474FF6AC
:104D2000FF707047002380F82730704710B4046983
:104D30000A46A4460023202110BC604710B4046931
:104D40001346A4460A4610BC1721604707B502AABD
:104D500002F8011D0121FFF7F1FF03B05DF804FB2C
:104D600010B4C4680A46A4460023152110BC60474D
:104D700010B4C4680A46A4460023162110BC60473C
:104D800010B4C4681346A4460A4610BC17216047F5
:104D9000002310B4C4681A46A446182110BC60470A
:104DA000002310B4C4681A46A446192110BC6047F9
:104DB00073B505460C462178172919D003D8152953
:104DC0000DD202B070BD19291CD9FE29F9D1627823
:104DD000292128468DF8072000F02EF906E0627898
:104DE000EE688DF8072000232846B0470234E2E73A
:104DF00063780DF10702012128468DF80730FFF78F
:104E0000BFFFF3E70023EE681A4628460134B04797
:104E1000D1E72DE9F0411646A1F1140204460D46F2
:104E20009846052A1AD8DFE802F01003030D101087
:104E30000021FFF77BFF31462046FFF787FF012067
:104E4000BDE8F0810121FFF771FF27694346324633
:104E500029462046BC46BDE8F04160470020EFE708
:104E60000E29F8B5044615461F4639D00F2907D03C
:104E70000B2940D192BB2149FFF79AFF0120F8BDD1
:104E8000FFF786FF7B7994F82260402106EBC3068A
:104E900006F0FF062046FFF763FF310941F01001DD
:104EA0002046FFF75DFF06F00F012046FFF760FF89
:104EB000B979204641F0B001FFF75AFF39793A68D5
:104EC000C90001F0F8012046013DFFF759FF15F038
:104ED000FF05F3D12046FFF763FFCFE70849CBE793
:104EE000FFF756FF81212046FFF73AFF294620466B
:104EF000FFF73EFFEEE70020C1E700BF9FED00088F
:104F0000A4ED000870B504460D461646FFF7A8FF4D
:104F100098B90A2D1AD00D2D06D0092D0ED10F49A2
:104F2000204600F023F808E04EB90D492046FFF76F
:104F30003FFF23689B7C84F82230012070BD094923
:104F40002046FFF735FF2368DB7CF4E7204600F0BE
:104F500012F805492046FFF72BFFEEE7ACED0008FD
:104F600054ED00085FED00086AED000801608B7CDD
:104F700080F82230704738B5002345691A46282149
:104F80000446A8470023E5681A4614212046A8478E
:104F9000204601224B2100F04FF8236820461A7961
:104FA000292100F049F8204600224B2100F044F866
:104FB000236820461A79292100F03EF82046012274
:104FC0004B2100F039F8236820465A792921BDE8A1
:104FD000384000F031B813B58DF80620049A8DF8EA
:104FE000043002AB8DF8051043F8082D84680122C7
:104FF0000F21A04702B010BD002310B484681A46E8
:10500000A446092110BC6047002310B484681A46E6
:10501000A4460A2110BC604710B484680A46A4461E
:1050200000230B2110BC6047002310B484681A468B
:10503000A446102110BC604710B444690023A44664
:1050400010BC6047002070470023036080F82330C5
:10505000C3848361FF23054A80F82430C0E902221B
:10506000C0E9042280F82930704700BF455000088D
:10507000F8B5069D17461E46FFF7E6FFC0E9021782
:10508000C0E90465BDE8F840FFF7B6BF0121002282
:10509000014B01701A64704700080040037803B99F
:1050A00070478E2340F21B1210B5044CA020E26220
:1050B0002364FBF7EBFF0023236410BD00080040CE
:1050C000F8B5037803B9F8BD40F21B178E2600250A
:1050D000084CA020E7622664FBF7D8FF6420256413
:1050E000FBF7D4FFE762A0202664FBF7CFFF25641F
:1050F000F8BD00BF00080040037803B9704740F2D4
:105100008C5340F6173210B5044CA020E2622364A1
:10511000FBF7BCFF0023236410BD00BF0008004064
:1051200038B5037803B938BD40F21B128E23002531
:10513000104CA020E2622364FBF7A8FF3220256414
:10514000FBF7A4FF40F6173240F28C53E2623C209A
:105150002364FBF79BFF32202564FBF797FF40F2A7
:105160008B5240F2C623E262A0202364FBF78EFF3D
:10517000256438BD00080040037E22B1A2F102037D
:10518000B3FA83F35B0900EB41000BB9408B704726
:10519000408C7047D0F8A030002B52D0F0B5B1FA57
:1051A00081F513F8112085B0FF2A04464FEA551502
:1051B00029D0694603F0AEFC28BB9DF808309A0759
:1051C00041D5BDF80010BDF8022091423BD2BDF898
:1051D0000400824237D2BDF80670B84233D2AE0026
:1051E00035449DF80E6004EB4504A4F87800A4F85B
:1051F0007410A4F87620A4F87A7084F87C3084F8CF
:105200007D6001201BE040F20A50AB002B4404EB10
:1052100043044FF42A774FF471764FF4C8610122AA
:10522000A4F878000020174BA4F874701B78A4F839
:105230007660A4F87A1084F87D3084F87C2005B07C
:10524000F0BD18467047012340F20A50AA001544E9
:1052500004EB45044FF42A774FF471764FF4C8619C
:10526000A4F878001846074AA4F874701278A4F8D5
:105270007660A4F87A1084F87D2084F87C3005B03C
:10528000F0BD00BFF0E8000890F88C3013B990F83A
:10529000510070470020704770B590F88C3082B094
:1052A00004460D46DBB9B0F88E6032462946B4F8A4
:1052B0004C0008F001FA94F88C30A4F84C0003EB91
:1052C000830304EB4304B4F8743032460093294658
:1052D000002380B208F0B2F980B202B070BDB0F81D
:1052E0009660E2E770B50B8905460C888888E2B9BC
:1052F000A5F84640A5F84800A5F84A3005F1340461
:105300002146284603F09AFB6E6BA86BE96B2A6C6A
:105310006E65A865E9652A666E6CA86CE96C2A6DF5
:105320006E66A866E9662A6770BDA5F84040A5F8D4
:105330004200A5F84430E1E74FF6FF7310B584B0A2
:10534000144643850A46694603F0E4FB68B90DF14B
:10535000090104F1090304F10E0211F8014B13F8DD
:10536000010B844204D19342F7D1012004B010BD57
:10537000002004B010BD00BF2DE9F0430646002513
:105380004FF0010885B000F13407384604F0D0F939
:10539000ECB284424FEA440921DAD6F8A030013554
:1053A00013F814204B44FF2AEFD05B7803F003037B
:1053B000032BEAD122466946304603F0ABFB0028B6
:1053C000E3D1D6F8A0308DF808804B44224683F80C
:1053D00001806946304603F0CFFB0028D5D005B0E8
:1053E000BDE8F0832DE9F84F04464FF0EB0B03F0D6
:1053F000CBFA4FF4967A4FF0320E4FF440734FF4DD
:10540000966940F6FC0840F2DF2CC8274026C325E9
:10541000002005214FF48072A4F84C00A4F84E102F
:10542000A4F83AB0A4F83CA0A4F83E90A4F84080B8
:10543000A4F842E0A4F844C0A4F84670A4F8486078
:10544000A4F84A50A4F85020A4F8523004F13401D2
:10545000204603F0F3FA2046BDE8F84FFFF78CBF73
:105460002DE9F043002485B007460D46A1464FF0D4
:10547000FF0800F1340603E005F8138082F801907C
:10548000304604F055F9E3B2834204F1010405EB20
:105490004302F1DB0024A146384603F03BFAA04268
:1054A0005FFA84F807DD42466946384603F032FB6E
:1054B00030B1012819D15FFA89F005B0BDE8F08359
:1054C0000DF10901304604F03FF900280DDB9DF88D
:1054D000083005EB400243B115F81010FF2904D144
:1054E00005F8108009F1010953700134D4E700BFB9
:1054F00038B534300C461146154604F01BF9E0B1BE
:1055000015B103784E2B08D101460522204608F03C
:1055100083FC00236371204638BD23460A4A0146B6
:1055200010681279206003F8042F1846052208F04D
:1055300073FC00236372204638BD044B03CB20600C
:105540006160204638BD00BFC4ED0008CCED000806
:1055500090F88C3023B990F851200349FFF7C8BF69
:1055600000220149FFF7C4BF780200202DE9F0476F
:10557000D0F8A070164699469DF820A0002F6ED056
:105580004C1E002C80460D467BDD6000BAF1000FFA
:1055900058D03B185B78DB0754D46FF0030107EB5E
:1055A0004503C91B04E013F8032C023BD70749D479
:1055B000013C01EB0300F6D108F134071EE0DDB138
:1055C0004FEA450CBAF1000F05D0D8F8A0006044AE
:1055D0004078C00710D506F82250D8F8A000013452
:1055E000604490F801C02A46404683F801C0E4B206
:1055F000FFF77EFF4C4522D20135EDB2384604F06C
:1056000097F804EB440206EB8203854203F10201A2
:10561000D5DB4C4513D2002009F1FF331B1BDBB255
:10562000234403EB430206F10C0104EB440301EBBA
:10563000820206EB830398700C339342FBD1204621
:10564000BDE8F087E2B23270D8F8A030B11C18443F
:10565000437840467370FFF74BFF0124ACE76BB112
:105660003B4609F1FF32D2B202EB420906F10C02CD
:1056700002EB8902B3700C36B242FBD10020BDE8C8
:10568000F087002498E700BFC288C38C9A4201D0FB
:10569000002070470289038D9A42F9D14289438DD7
:1056A0009A42F5D1028B038F9A42F1D1827E90F813
:1056B0003A309A42ECD1427F90F83D309A42E7D19D
:1056C000827F90F83E309A42E2D1C27F90F83F301C
:1056D0009A42DDD1C27E90F83B309A42D8D1037F06
:1056E00090F83C001B1A58425841704770B500F1C1
:1056F000340405462046FFF7C7FF00B170BD2146C0
:10570000284603F09BF96E6BA86BE96B2A6C6E65FB
:10571000A865E9652A666E6CA86CE96C2A6D6E66F0
:10572000A866E9662A6770BD38B504460D46FFF7DE
:1057300031FD00B938BD84F851502046BDE83840ED
:10574000FFF7D4BF2DE9F04106464FF0000800F105
:105750003407304603F0DEF85FFA88F585424FF0F3
:10576000000406DB10E0D6F8A02012F81330AB429C
:1057700023D0384603F0DCFFE3B2834204F1010496
:10578000F1DB2846BDE8F081384603F0D1FFE5B2F1
:10579000854215DAD6F8A030013413F8152003EB52
:1057A0004503FF2AF0D05A7812F00102ECD1FF2114
:1057B0005A7019702846BDE8F08108F10108C8E761
:1057C000FF252846BDE8F081D0F8A030002B3DD061
:1057D000F0B513F8115085B0FF2D06460C464FEA80
:1057E000410707D069462A4603F094F980B30020A8
:1057F00005B0F0BDFFF7A6FFFF280546F7D021460C
:1058000006F1340003F096FF0028F0D0014605228F
:105810000DF1090008F000FB012369462A463046D5
:105820008DF8083003F0A8F90028E0D16A4629462F
:105830003046FFF781FD0028D9D0D6F8A03003F814
:1058400014509DF808203B445A70D1E7002070475F
:105850009DF808302A4683F00103694630468DF8EA
:10586000083003F089F90028C1D1D6F8A0309DF89E
:1058700008201F4401207A70BAE700BF2DE9F041EB
:105880001E4605465388D0F8A00084B04FEA410870
:10589000B2F800C000EB0804ADF8023090889DF922
:1058A0002830D288ADF804008DF80860ADF800C04B
:1058B000ADF806208DF80E3005F1340066700F4605
:1058C00003F038FF18B3BDF80230BDF800209A424B
:1058D0001DD2BDF80420934219D2BDF80630934280
:1058E00015D9014605220DF1090008F095FAD5F801
:1058F000A03005F19E0413F81720FF2A0ED0284689
:10590000694603F039F928B92046FFF7C7FB04B010
:10591000BDE8F0812046FFF703FCF8E72846FFF7D3
:1059200011FFFF280246F5D0D5F8A030984403F8BF
:10593000170088F80160E2E7F8B5CB7F0C46DA077C
:105940000746CE880D892AD51E4B1F4A1988304636
:10595000128807F0B1FE1D4B1D4A198806461288B1
:10596000284607F0A9FEE37F0546DB0720D5B6B23F
:1059700085B2A37F25811E2B88BF1E23E68088BFAA
:10598000A3773846657F03F0D3FE8542C4BF012369
:105990006377E37E3C2B84BF3C23E376F8BD30B2D3
:1059A00007F0A0FE86B228B207F09CFE85B2CBE7D6
:1059B00030B207F089FE86B228B207F085FE85B2C4
:1059C000D7E700BFF8E80008F6E80008F4E80008A8
:1059D000F2E800082DE9F84F00236849684A098871
:1059E000128800F134050446A0F88810A0F88A2037
:1059F00080F88C30284603F09BFE400008F000F948
:105A0000C4F8A000204602F01BFF04F15406002851
:105A100068D0D4F8A010002958D02046FFF720FD08
:105A2000B0FA80F7294620467F0902F077FF002868
:105A300053D14021A4F848104FF0C3014FF0EB0BB5
:105A40004FF4967A4FF4966940F6FC084FF0320E08
:105A500040F2DF2C4FF480724FF44073A4F84C00F6
:105A6000A4F84A104FF0C8004FF00501A4F83AB06E
:105A7000A4F83CA0A4F83E90A4F84080A4F842E02A
:105A8000A4F844C0A4F84600A4F84E10A4F850208E
:105A9000A4F8523000212046FFF77CFB94F8511007
:105AA0002046FFF777FB28686968AA68EB6860659D
:105AB0007160B260F36028696969AA69EB69306155
:105AC0007161B261F3613846BDE8F88F294620461E
:105AD000012702F023FF0028ABD029462846FFF714
