:020000040800F2
:10000000005000203DD80008ADD60008B1D6000849
:10001000B5D60008B9D60008BDD60008000000001B
:10002000000000000000000000000000C1D6000831
:10003000C5D6000800000000C9D60008CDD60008CB
:1000400085D8000885D8000885D8000885D800081C
:1000500085D8000885D80008216D000885D80008DB
:1000600085D8000885D8000885D80008D1D60008B2
:1000700085D8000885D8000885D8000885D80008EC
:1000800085D8000885D8000885D8000885D80008DC
:1000900085D8000885D8000885D8000885D80008CC
:1000A00085D8000885D8000885D80008DDD6000866
:1000B000E9D6000885D8000885D8000885D800084A
:1000C00085D8000885D8000885D8000885D800089C
:1000D00085D8000885D8000885D8000885D800088C
:1000E00085D8000885D8000885D8000800000000E1
:1000F0000000000000000000000000000000000000
:0C01000000000000000000005FF808F1A3
:1001100010B5054C237833B9044B13B10448AFF341
:1001200000800123237010BD5C020020000000004D
:1001300060E5000808B5034B1BB103490348AFF362
:10014000008008BD000000006002002060E500089B
:10015000034613F8012B002AFBD1181A0138704707
:1001600081F0004102E000BF83F0004330B54FEA68
:1001700041044FEA430594EA050F08BF90EA020FD5
:100180001FBF54EA000C55EA020C7FEA645C7FEA68
:10019000655C00F0E2804FEA5454D4EB5555B8BF8B
:1001A0006D420CDD2C4480EA020281EA030382EAFC
:1001B000000083EA010180EA020281EA0303362D8E
:1001C00088BF30BD11F0004F4FEA01314FF4801C61
:1001D0004CEA113102D0404261EB410113F0004F73
:1001E0004FEA03334CEA133302D0524263EB43032A
:1001F00094EA050F00F0A780A4F10104D5F1200EC8
:100200000DDB02FA0EFC22FA05F2801841F1000122
:1002100003FA0EF2801843FA05F359410EE0A5F1F6
:1002200020050EF1200E012A03FA0EFC28BF4CF027
:10023000020C43FA05F3C01851EBE37101F00045DD
:1002400007D54FF0000EDCF1000C7EEB00006EEBEA
:100250000101B1F5801F1BD3B1F5001F0CD3490874
:100260005FEA30004FEA3C0C04F101044FEA4452CB
:1002700012F5800F80F09A80BCF1004F08BF5FEA52
:10028000500C50F1000041EB045141EA050130BD32
:100290005FEA4C0C404141EB0101013C28BFB1F544
:1002A000801FE9D291F0000F04BF01460020B1FA8F
:1002B00081F308BF2033A3F10B03B3F120020CDA62
:1002C0000C3208DD02F1140CC2F10C0201FA0CF040
:1002D00021FA02F10CE002F11402D8BFC2F1200CA5
:1002E00001FA02F120FA0CFCDCBF41EA0C0190405B
:1002F000E41AA2BF01EB0451294330BD6FEA0404A4
:100300001F3C1CDA0C340EDC04F11404C4F120028E
:1003100020FA04F001FA02F340EA030021FA04F3A0
:1003200045EA030130BDC4F10C04C4F1200220FAF7
:1003300002F001FA04F340EA0300294630BD21FA35
:1003400004F0294630BD94F0000F83F4801306BFFB
:1003500081F480110134013D4EE77FEA645C18BFEF
:100360007FEA655C29D094EA050F08BF90EA020F86
:1003700005D054EA000C04BF1946104630BD91EA7E
:10038000030F1EBF0021002030BD5FEA545C05D181
:100390004000494128BF41F0004130BD14F58004C0
:1003A0003CBF01F5801130BD01F0004545F0FE4134
:1003B00041F470014FF0000030BD7FEA645C1ABF69
:1003C000194610467FEA655C1CBF0B46024650EAA0
:1003D000013406BF52EA033591EA030F41F40021CC
:1003E00030BD00BF90F0000F04BF0021704730B552
:1003F0004FF4806404F132044FF000054FF0000127
:1004000050E700BF90F0000F04BF0021704730B5E7
:100410004FF4806404F1320410F0004548BF4042BC
:100420004FF000013EE700BF42004FEAE2014FEA11
:1004300031014FEA02701FBF12F07F4393F07F4FEC
:1004400081F06051704732F07F4208BF704793F0EF
:100450007F4F04BF41F40021704730B54FF4607402
:1004600001F0004521F000411CE700BF50EA010205
:1004700008BF704730B54FF000050AE050EA0102AE
:1004800008BF704730B511F0004502D5404261EB1E
:1004900041014FF4806404F132045FEA915C3FF45F
:1004A000D8AE4FF003025FEADC0C18BF03325FEAFC
:1004B000DC0C18BF033202EBDC02C2F1200300FAAD
:1004C00003FC20FA02F001FA03FE40EA0E0021FAD2
:1004D00002F11444BDE600BF70B54FF0FF0C4CF4C0
:1004E000E06C1CEA11541DBF1CEA135594EA0C0F72
:1004F00095EA0C0F00F0DEF82C4481EA030621EAAD
:100500004C5123EA4C5350EA013518BF52EA0335E7
:1005100041F4801143F4801338D0A0FB02CE4FF099
:100520000005E1FB02E506F00042E0FB03E54FF0C9
:100530000006E1FB03569CF0000F18BF4EF0010EC1
:10054000A4F1FF04B6F5007F64F5407404D25FEABD
:100550004E0E6D4146EB060642EAC62141EA555170
:100560004FEAC52040EA5E504FEACE2EB4F1FD0CB2
:1005700088BFBCF5E06F1ED8BEF1004F08BF5FEA30
:10058000500E50F1000041EB045170BD06F00046E2
:1005900046EA010140EA020081EA0301B4EB5C048F
:1005A000C2BFD4EB0C0541EA045170BD41F4801187
:1005B0004FF0000E013C00F3AB8014F1360FDEBFAC
:1005C000002001F0004170BDC4F10004203C35DA88
:1005D0000C341BDC04F11404C4F1200500FA05F30B
:1005E00020FA04F001FA05F240EA020001F00042AC
:1005F00021F0004110EBD37021FA04F642EB060122
:100600005EEA430E08BF20EAD37070BDC4F10C044B
:10061000C4F1200500FA04F320FA05F001FA04F20F
:1006200040EA020001F0004110EBD37041F10001FB
:100630005EEA430E08BF20EAD37070BDC4F1200506
:1006400000FA05F24EEA020E20FA04F301FA05F26E
:1006500043EA020321FA04F001F0004121FA04F216
:1006600020EA020000EBD3705EEA430E08BF20EAE6
:10067000D37070BD94F0000F0FD101F00046400020
:1006800041EB010111F4801F08BF013CF7D041EAA2
:10069000060195F0000F18BF704703F000465200A6
:1006A00043EB030313F4801F08BF013DF7D043EA77
:1006B0000603704794EA0C0F0CEA135518BF95EA2D
:1006C0000C0F0CD050EA410618BF52EA4306D1D1B4
:1006D00081EA030101F000414FF0000070BD50EAD3
:1006E000410606BF1046194652EA430619D094EA5D
:1006F0000C0F02D150EA013613D195EA0C0F05D147
:1007000052EA03361CBF104619460AD181EA03019A
:1007100001F0004141F0FE4141F470014FF0000052
:1007200070BD41F0FE4141F4780170BD70B54FF0ED
:10073000FF0C4CF4E06C1CEA11541DBF1CEA13556D
:1007400094EA0C0F95EA0C0F00F0A7F8A4EB05044F
:1007500081EA030E52EA03354FEA013100F0888046
:100760004FEA03334FF0805545EA131343EA12630F
:100770004FEA022245EA111545EA10654FEA0026C4
:100780000EF000419D4208BF964244F1FD0404F57D
:10079000407402D25B084FEA3202B61A65EB0305D9
:1007A0005B084FEA32024FF480104FF4002CB6EB96
:1007B000020E75EB030E22BFB61A754640EA0C0016
:1007C0005B084FEA3202B6EB020E75EB030E22BF56
:1007D000B61A754640EA5C005B084FEA3202B6EB97
:1007E000020E75EB030E22BFB61A754640EA9C0056
:1007F0005B084FEA3202B6EB020E75EB030E22BF26
:10080000B61A754640EADC0055EA060E18D04FEAE3
:10081000051545EA16754FEA06164FEAC30343EA83
:1008200052734FEAC2025FEA1C1CC0D111F4801F50
:100830000BD141EA00014FF000004FF0004CB6E749
:1008400011F4801F04BF01430020B4F1FD0C88BFE8
:10085000BCF5E06F3FF6AFAEB5EB030C04BFB6EBF3
:10086000020C5FEA500C50F1000041EB045170BDE6
:100870000EF0004E4EEA113114EB5C04C2BFD4EB13
:100880000C0541EA045170BD41F480114FF0000E97
:10089000013C90E645EA060E8DE60CEA135594EA13
:1008A0000C0F08BF95EA0C0F3FF43BAF94EA0C0F16
:1008B0000AD150EA01347FF434AF95EA0C0F7FF48B
:1008C00025AF104619462CE795EA0C0F06D152EADF
:1008D00003353FF4FDAE1046194622E750EA4106C3
:1008E00018BF52EA43067FF4C5AE50EA41047FF4D4
:1008F0000DAF52EA43057FF4EBAE12E74A0011D286
:1009000012F5001211D20DD56FF47873B3EB625269
:100910000ED44FEAC12343F0004343EA505323FA75
:1009200002F070474FF00000704750EA013002D1EA
:100930004FF0FF3070474FF0000070474FEA410220
:10094000B2F1E04324BFB3F5001CDCF1FE5C0DD92D
:1009500001F0004C4FEAC0024CEA5070B2F1004F77
:1009600040EB830008BF20F00100704711F0804F7A
:1009700021D113F13872BCBF01F00040704741F43F
:1009800080114FEA5252C2F11802C2F1200C10FA43
:100990000CF320FA02F018BF40F001004FEAC12327
:1009A0004FEAD32303FA0CFC40EA0C0023FA02F3CB
:1009B0004FEA4303CCE77FEA625307D150EA0133A1
:1009C0001EBF4FF0FE4040F44000704701F0004071
:1009D00040F0FE4040F40000704700BF80F000404F
:1009E00002E000BF81F0004142001FBF5FEA410307
:1009F00092EA030F7FEA226C7FEA236C6AD04FEA07
:100A00001262D2EB1363C1BFD2184140484041404B
:100A1000B8BF5B42192B88BF704710F0004F40F4FD
:100A2000000020F07F4018BF404211F0004F41F419
:100A3000000121F07F4118BF494292EA030F3FD0E5
:100A4000A2F1010241FA03FC10EB0C00C3F12003F8
:100A500001FA03F100F0004302D5494260EB400087
:100A6000B0F5000F13D3B0F1807F06D340084FEAF2
:100A7000310102F10102FE2A51D2B1F1004F40EBE7
:100A8000C25008BF20F0010040EA0300704749004F
:100A900040EB0000013A28BFB0F5000FEDD2B0FAEC
:100AA00080FCACF1080CB2EB0C0200FA0CF0AABF0F
:100AB00000EBC25052421843BCBFD04018437047AD
:100AC00092F0000F81F4000106BF80F400000132B3
:100AD000013BB5E74FEA41037FEA226C18BF7FEA8A
:100AE000236C21D092EA030F04D092F0000F08BFCC
:100AF0000846704790EA010F1CBF0020704712F0B3
:100B00007F4F04D1400028BF40F00040704712F1F1
:100B100000723CBF00F50000704700F0004343F056
:100B2000FE4040F4000070477FEA226216BF08468C
:100B30007FEA23630146420206BF5FEA412390EA4F
:100B4000010F40F4800070474FF0000304E000BF45
:100B500010F0004348BF40425FEA000C08BF7047F6
:100B600043F0964301464FF000001CE050EA0102BA
:100B700008BF70474FF000030AE000BF50EA0102CF
:100B800008BF704711F0004302D5404261EB4101BC
:100B90005FEA010C02BF84460146002043F0B643E1
:100BA00008BFA3F18053A3F50003BCFA8CF2083A06
:100BB000A3EBC25310DB01FA02FC634400FA02FC0F
:100BC000C2F12002BCF1004F20FA02F243EB020016
:100BD00008BF20F00100704702F1200201FA02FC78
:100BE000C2F1200250EA4C0021FA02F243EB02006B
:100BF00008BF20EADC7070474FF0FF0C1CEAD052AF
:100C00001EBF1CEAD15392EA0C0F93EA0C0F6FD06F
:100C10001A4480EA010C400218BF5FEA41211ED04D
:100C20004FF0006343EA501043EA5111A0FB013139
:100C30000CF00040B1F5000F3EBF490041EAD3710E
:100C40005B0040EA010062F17F02FD2A1DD8B3F18A
:100C5000004F40EBC25008BF20F00100704790F0F9
:100C6000000F0CF0004C08BF49024CEA502040EA4B
:100C700051207F3AC2BFD2F1FF0340EAC250704711
:100C800040F400004FF00003013A5DDC12F1190F4F
:100C9000DCBF00F000407047C2F10002410021FAC1
:100CA00002F1C2F1200200FA02FC5FEA310040F1D9
:100CB000000053EA4C0308BF20EADC70704792F052
:100CC000000F00F0004C02BF400010F4000F013A8A
:100CD000F9D040EA0C0093F0000F01F0004C02BF85
:100CE000490011F4000F013BF9D041EA0C018FE7F4
:100CF0000CEAD15392EA0C0F18BF93EA0C0F0AD0FA
:100D000030F0004C18BF31F0004CD8D180EA01001F
:100D100000F00040704790F0000F17BF90F0004FB8
:100D2000084691F0000F91F0004F14D092EA0C0F9A
:100D300001D142020FD193EA0C0F03D14B0218BF2D
:100D4000084608D180EA010000F0004040F0FE4073
:100D500040F40000704740F0FE4040F4400070470F
:100D60004FF0FF0C1CEAD0521EBF1CEAD15392EA8E
:100D70000C0F93EA0C0F69D0A2EB030280EA010C7E
:100D800049024FEA402037D04FF0805343EA111117
:100D900043EA10130CF000408B4238BF5B0042F175
:100DA0007D024FF4000C8B4224BF5B1A40EA0C001A
:100DB000B3EB510F24BFA3EB510340EA5C00B3EB4C
:100DC000910F24BFA3EB910340EA9C00B3EBD10F3A
:100DD00024BFA3EBD10340EADC001B0118BF5FEA8C
:100DE0001C1CE0D1FD2A3FF650AF8B4240EBC250B5
:100DF00008BF20F0010070470CF0004C4CEA502076
:100E00007F32C2BFD2F1FF0340EAC250704740F4C4
:100E100000004FF00003013A37E792F0000F00F0B6
:100E2000004C02BF400010F4000F013AF9D040EA34
:100E30000C0093F0000F01F0004C02BF490011F4C8
:100E4000000F013BF9D041EA0C0195E70CEAD153C0
:100E500092EA0C0F08D142027FF47DAF93EA0C0FA7
:100E60007FF470AF084676E793EA0C0F04D14B028B
:100E70003FF44CAF08466EE730F0004C18BF31F03D
:100E8000004CCAD130F000427FF45CAF31F0004337
:100E90007FF43CAF5FE700BF4FF0FF3C06E000BFD0
:100EA0004FF0010C02E000BF4FF0010C4DF804CDF3
:100EB0004FEA40024FEA41037FEA226C18BF7FEA03
:100EC000236C11D001B052EA530C18BF90EA010F05
:100ED00058BFB2EB030088BFC81738BF6FEAE17094
:100EE00018BF40F0010070477FEA226C02D15FEA30
:100EF000402C05D17FEA236CE4D15FEA412CE1D09C
:100F00005DF8040B704700BF844608466146FFE762
:100F10000FB5FFF7C9FF002848BF10F1000F0FBD44
:100F20004DF808EDFFF7F4FF0CBF012000205DF83D
:100F300008FB00BF4DF808EDFFF7EAFF34BF0120C2
:100F400000205DF808FB00BF4DF808EDFFF7E0FF5B
:100F500094BF012000205DF808FB00BF4DF808EDAC
:100F6000FFF7D2FF94BF012000205DF808FB00BF0F
:100F70004DF808EDFFF7C8FF34BF012000205DF8F1
:100F800008FB00BF4FEA40024FEA41037FEA226CB0
:100F900002D15FEA402C08D17FEA236C02D15FEADC
:100FA000412C02D14FF0000070474FF00100704714
:100FB0004FEA4002B2F1FE4F0FD34FF09E03B3EB66
:100FC00012620DD94FEA002343F0004310F0004FA6
:100FD00023FA02F018BF404270474FF000007047FC
:100FE00012F1610F01D1420205D110F0004008BF9B
:100FF0006FF0004070474FF00000704738B54FF475
:101000007A730D4A054611780C4AB3FBF1F3126866
:10101000B2FBF3F000F06CFC08B90F2D01D90120F0
:1010200038BD0446024629464FF0FF3000F01AFC56
:10103000034B20461D6038BDEA010020F00100206E
:10104000EC010020074A08B51368032043F01003A1
:10105000136000F0F5FB0020FFF7D0FF0CF068F9FB
:10106000002008BD00200240034A044B11681B7891
:101070000B441360704700BF58100020EA010020A5
:10108000014B1868704700BF5810002038B504465F
:10109000FFF7F6FF631C054602D0044B1B781C4487
:1010A000FFF7EEFF401BA042FAD338BDEA01002053
:1010B000436A9A6A12F0500F0FD19A6A196842F483
:1010C000007210B59A628A6802F46022B2F5602F4D
:1010D00006D0184605F038FD10BD1B6A1B6B18477B
:1010E0001A7B002AF5D19A6A22F480729A629A6A6F
:1010F000D204EED49A6A42F001029A62E9E700BF94
:10110000704700BF08B5406AFFF7FAFF08BD00BF8F
:10111000406A08B5836A43F040038362C36A43F0C0
:101120000403C36205F0FAFD08BD00BF02460020BB
:1011300070B492F8243083B0012B01905BD001236E
:1011400082F824304B681F26062B14682DD90C2BEF
:1011500003EB830344D8256B0868233B9E4025EAB4
:10116000060500FA03F32B43236309282BD907262E
:1011700000EB40038D681E3BE1689E409D4021EAE4
:101180000603A0F110012B430129E36026D82A4B66
:101190009C4234D00120936A43F0200393620023E1
:1011A00082F8243003B070BC704703EB83030868F7
:1011B000656B053B9E4025EA060500FA03F32B43C9
:1011C00009286363D3D8072500EB400089682369A9
:1011D0008540814023EA0500084320610020DEE7C6
:1011E000E56A0868413B9E4025EA060500FA03F3DC
:1011F0002B43E362B9E7022003B070BC7047A368D9
:101200001B02EBD4A368102843F40003A360E5D1CC
:101210000A4B0B491B68A1FB03139B0C03EB8303D5
:101220005B000193019B002BD8D0019B013B0193F4
:10123000019B002BF9D1D1E700240140F0010020EF
:1012400083DE1B43002330B5026883B001939368AB
:10125000D90727D41B4B04461B681B489168A0FB89
:10126000030341F001019B0C91600193019B2BB1A1
:10127000019B013B0193019B002BF9D1FFF700FF7C
:10128000236805469B68DA070CD4FFF7F9FE431B79
:10129000022B236803D99A6812F0010205D09B68DB
:1012A000DB07F2D5002003B030BD0120A36A84F82B
:1012B000242043F01003A362E36A0343E36203B014
:1012C00030BD00BFF001002083DE1B4390F82430C6
:1012D000012B38D0012310B580F824300446FFF7E5
:1012E000B1FF60BBA36A2268294923F4407323F04D
:1012F000010343F480738A42A36226D0A36A23F4D5
:101300008013A362536859052BD4A36A002113F4F8
:10131000805318BFE36A84F8241018BF23F0060333
:10132000E3626FF002031360936803F46023B3F584
:10133000602F1DD0936843F48013936010BD002389
:1013400084F8243010BD02207047124B596811F404
:10135000702FD3D0A16A41F48011A1625B685B0554
:10136000D3D5A36A23F4405343F48053A362CCE75C
:10137000074B9A4204D0936843F4A003936010BDD6
:10138000A3F580635B6813F4702FD3D1F3E700BF3C
:10139000002801400024014038B503689A68D4074A
:1013A00001D4002038BD9A68044622F001029A60F8
:1013B000FFF766FE054623689B68D907F1D5FFF75E
:1013C0005FFE431B022B2368F6D99A68D207F3D538
:1013D0000120A36A43F01003A362E36A0343E362BC
:1013E00038BD00BF002869D0F8B5836A0446002BD9
:1013F0004CD02046FFF7D0FFA36A13F010033FD173
:1014000000283DD1A26AE569616822F48852294327
:10141000A568267B22F0020242F00202B5F5807F29
:10142000A26241EA4601227D36D0012D0CBF4FF465
:10143000807C4FF0000C012A4CD02268364E576851
:1014400027F4694747EA0C07576097683E400E4308
:101450009660012D2ED0D56A304E25F470052B43B1
:10146000D36293681E40B1422AD00120A36A23F0C0
:10147000120343F01003A362E36A0343E362F8BD7F
:10148000A36A012043F01003A362F8BDC36280F891
:1014900024300BF06FFFACE7012A1AD022681E4BF4
:1014A000556825F4694545F48075556095682B406D
:1014B0000B4393602369013B1B05CCE70120704778
:1014C0000023E362A36A23F0030343F00103A36252
:1014D000F8BDAC46CEB1A26A42F02002A262E26A36
:1014E00042F00102E26222680B4E5768B5F5807F38
:1014F00027F4694747EA0C075760976806EA07062A
:1015000046EA01069660A4D1D4E7A269571E4CEAC8
:10151000473747F4006CE6E7FDF7E1FFFE0E1FFFDB
:1015200090F82430012B13D0012310B580F824301B
:101530000446FFF731FF38B9A36A23F4885323F038
:10154000010343F00103A362002384F8243010BD9B
:1015500002207047002270B590F8243082B0012B31
:10156000019262D0012380F824300446FFF714FF73
:10157000054628B10023284684F8243002B070BD07
:10158000A36A2F4A23F4885323F0020343F0020393
:10159000A3620220166801F039FDB6FBF0F6760072
:1015A0000196019B2BB1019B013B0193019B002BF9
:1015B000F9D12046FFF746FE2268936843F00803FE
:1015C0009360FFF75DFD236806469A6811070BD507
:1015D000FFF756FD831B0A2B236802D99A6812076E
:1015E00016D49A681007F3D49A6842F004029A60FD
:1015F000FFF746FD064623689B68590719D5FFF794
:101600003FFD831B0A2B2368F6D99A685207F3D54E
:10161000012500222846A36A84F8242023F012031F
:1016200043F01003A36202B070BD0225284602B049
:1016300070BDA36A23F0030343F00103A36299E79B
:10164000F00100202DE9F04104468CB00F46904691
:101650006846302200210CF029FB94F82430012B3D
:1016600062D00125334E84F82450B368009603F409
:101670006023B3F5602F0AD000222846A36A84F8BD
:10168000242043F02003A3620CB0BDE8F081204683
:10169000FFF7D8FD054630B10023284684F82430F2
:1016A0000CB0BDE8F0816846FFF7CCFD0546002888
:1016B000F2D1A26A204B2168134043F48073A362E5
:1016C0004B685B0505D5A36A23F4405343F480536C
:1016D000A36200236FF00202206A184E84F82430BF
:1016E000E3628662164B174E4C31C0E90B6341F83A
:1016F0004C2C51F8446C434646F480763A4641F807
:10170000446C00F03FF9284623689A6802F460228E
:10171000B2F5602F9A680CBF42F4A00242F4801226
:101720009A600CB0BDE8F081022528460CB0BDE8F7
:10173000F08100BF00280140FEFCEFFFB11000085F
:10174000111100080511000870B504468CB06846F8
:10175000302200210CF0AAFA94F82430012B1DD07D
:101760000126204684F82460FFF716FE054628B1BE
:101770000023284684F824300CB070BD144B684612
:101780000093FFF709FE68B184F8245035462846D7
:10179000A36A43F01003A3620CB070BD0225284673
:1017A0000CB070BD2368206A9A6822F480729A6037
:1017B0005A6822F470225A6000F026F9A36A05469E
:1017C00023F4885323F0010343F00103A362CFE71E
:1017D0000028014090F82420012A2AD00346012045
:1017E0001A6883F824009068C00712D412488068F1
:1017F00010F001000DD130B4104CA24212D00120E3
:101800009A6A42F020029A62002283F8242030BCB7
:1018100070479A6A012042F020029A62002283F8FF
:101820002420704754680D6824F4702129435160C6
:10183000EAE70220704700BF002801400024014071
:101840004FF6FF01064A0302D06803F4E063084044
:10185000034343F0BF6343F40033D360704700BFDA
:1018600000ED00E0194B30B4DB68C3F30223C3F191
:101870000705042D03F1040428BF0425062C19D9FB
:101880004FF0FF34033B9C4022EA04024FF0FF3448
:10189000AC4021EA04019940002841EA02010CDB36
:1018A000090100F16040C9B200F5614080F8001301
:1018B00030BC704700221346E8E7054B00F00F00EC
:1018C0000901C9B20344197630BC704700ED00E04D
:1018D000FCEC00E0002807DB012300F01F01034AB5
:1018E0008B40400942F82030704700BF00E100E023
:1018F0000138B0F1807F0DD230B4F02500220721ED
:10190000054B064C586084F82350104630BC9A6052
:10191000196070470120704710E000E000ED00E022
:1019200040B30346F0B4D0E901264FF4807500249B
:101930003243DE68006832430F491E690F4F01448D
:1019400032435E69A7FB017132439E69DF6932430E
:1019500006680909890026F47F563A4326F03006C6
:10196000196407493243D96302601D8420469C6391
:10197000F0BC704701207047F8FFFDBFCDCCCCCC48
:1019800000000240F0B4044690F82000012838D04E
:10199000012594F8210084F82050A84205D00023A6
:1019A00084F820300220F0BC70470227002625680A
:1019B00084F82170A663276C2E68B84026F00106D3
:1019C000E76B2E60666878606B60E36A102E0BBF71
:1019D000AA60A960E960EA6053B12B6843F00E0386
:1019E0002B602B68002043F001032B60F0BC704794
:1019F0002B6823F004032B602B6843F00A032B6051
:101A0000EFE70220F0BC704790F821200346022A3D
:101A100006D004210022816380F820200120704735
:101A2000012170B44FF480751A681E6C1468B140BF
:101A300024F00E0414601468002024F001041460E3
:101A4000DA6B51601D8470BC704700BF042270B413
:101A5000D0E90F61346803688A4022421D681FD0B4
:101A60006A071DD51A68910603D41A6822F0040289
:101A70001A603E4A93425AD0143293425FD01432D5
:101A8000934266D01432934269D0143293425BD0B1
:101A9000143293420CBF4FF480034FF0806347E051
:101AA00002228A40224222D0AA0720D51A68910633
:101AB00006D401211A6822F00A021A6080F8211067
:101AC0002A4A934229D01432934240D0143293428E
:101AD00042D01432934234D01432934242D0143262
:101AE00093420CBF4FF400134FF0007316E008222E
:101AF0008A40224219D02A0717D501244FF4807555
:101B00001A6804FA01F122F00E021A60036B716088
:101B1000846305844BB170BC184702230021144C28
:101B2000826A636080F820103AB970BC7047042361
:101B30000F49C26A4B60002AF7D070BC104740239F
:101B4000F6E74FF40053E9E74FF48023F0E7202352
:101B5000E4E74FF48063EBE74FF40073DEE74FF404
:101B60008043E5E74FF40033D8E700BF08000240A8
:101B7000000002402DE9F04F0C6885B0002C00F009
:101B8000A1800026DFF8FCC13346794FDFF8F881E9
:101B9000DFF8F8E1009004E0013334FA03F200F0DA
:101BA000918001229A4032EA040002EA0405F3D14E
:101BB0004C68122C00F28980122C0CD8DFE804F05B
:101BC0008EC3C00A0B0B0B0B0B0B0B0B0B0B0B0B76
:101BD0000BBDBA000026FF2D00F28780DDF80090D3
:101BE0004FEA830A0F24D9F8002004FA0AFB22EAFC
:101BF0000B0206FA0AFA42EA0A02C9F80020D1F8F2
:101C0000049019F0805F00F09380DCF818A023F0B6
:101C100003024AF0010ACCF818A0DCF818A002F17F
:101C200080420AF0010ACDF80CA002F5803203F0E0
:101C3000030ADDF80CB04FEA8A0AD2F808B004FAB9
:101C40000AF42BEA04000190009C4A48844216D012
:101C500000F58060844200F081804748009C844207
:101C600073D04648009C84420CBF4FF0030B4FF0EA
:101C7000040B01980BFA0AFA40EA0A000190019855
:101C800019F4803F90603A6814BF2A43AA433A602F
:101C90007A6819F4003F14BF2A43AA437A60BA68ED
:101CA00019F4801F14BF2A43AA43BA6019F4001F15
:101CB000FA683AD01543FD600C68013334FA03F238
:101CC0007FF46FAF05B0BDE8F08F444506D014D95E
:101CD000744503D02A4884427FF47DAF8C68E4B910
:101CE000FF2D4FF004067FF679AF009A4FEA830A82
:101CF000AAF1200A02F1040974E7DFF894904C4538
:101D0000ECD009F570294C45E8D0A9F580194C456F
:101D10007FF461AF8C68002CE2D00098012C4FF06A
:101D200008060CBF0261426155E722EA0505FD6025
:101D30000C6831E7CE680C364DE7CE6804364AE7CA
:101D4000CE68083647E7CE6845E74FF0020B0198AA
:101D50000BFA0AFA40EA0A00019090E74FF0010BF3
:101D600001980BFA0AFA40EA0A00019087E700BFDF
:101D7000000401400008014000100140001401402F
:101D8000000032100010024000002210000031104C
:101D9000000012108368194214BF01200020704710
:101DA00002B90904016170472DE9F84381460E46E6
:101DB00017469846D9F8004004E065696A0509D4D9
:101DC0007B1C21D1606926EA000080B20028F4D192
:101DD000BDE8F88300226FF480602021236843F47B
:101DE000007323606061C9F8302089F83D1089F8DC
:101DF0003E20D9F8403089F83C2043F0040301200C
:101E0000C9F84030BDE8F883FFF73AF9A0EB0800C5
:101E1000B84201D8002FCDD100222023C9F83020AC
:101E200089F83D3089F83E20D9F84030012043F050
:101E3000200389F83C20C9F84030C9E730B5044692
:101E400083B02068436913F0800330D145696D0584
:101E50001BD44B1CF6D0CDE90012FFF711F9019A03
:101E60000099801A884201D80029EAD10022202353
:101E7000226384F83D3084F83E20236C012043F037
:101E8000200384F83C2023640FE06FF4806120225B
:101E900041610120236384F83D2084F83E30226CA8
:101EA00084F83C3042F00402226403B030BD0020CC
:101EB00003B030BDF8B506460D46174608E0626926
:101EC000D2061BD4FFF7DCF8C01BA84207D835B1F7
:101ED0003468636913F04003F1D00020F8BD00229C
:101EE0002023326386F83D3086F83E20336C86F836
:101EF0003C2043F0200301203364F8BD6FF0100153
:101F000020226161336386F83D2086F83E30326CD2
:101F100086F83C3001203264F8BD00BF2DE9F8435B
:101F20000D46814617461E464FEA1148D9F8003043
:101F300001E0721C0FD1B8F1010F0CBF5C699C6904
:101F400025EA0404A4B2B4FA84F46409BC42F0D0D3
:101F50000020BDE8F883FFF793F8089BC01AB04251
:101F600001D8002EE2D100222023C9F8302089F8C0
:101F70003D3089F83E20D9F84030012043F020035D
:101F800089F83C20C9F84030E3E700BF2DE9F04371
:101F90009046026885B0994613680C9E0D9F43F4E5
:101FA000807313600D46334600224FF001110097F5
:101FB0000446FFF7B3FF236820BB05F0FE051D6153
:101FC00032463B4620462349FFF7EEFE18B101207A
:101FD00005B0BDE8F0832368039059693A46039140
:101FE0009B69314603932046039BFFF727FF30BBD5
:101FF000B9F1010F14D123685FFA88F21A6105B0B4
:10200000BDE8F0831B68DB0506D54FF400730320A1
:10201000236405B0BDE8F083032005B0BDE8F0837C
:1020200020684FEA182303613A4631462046FFF7FD
:1020300005FF20B922685FFA88F31361C8E7236CB3
:10204000042BC4D122680120136843F40073136089
:10205000BEE700BF020001002DE9F041174602680B
:10206000984613680D4643F480631360116884B08A
:1020700041F4807111600A9E0B9933460091002251
:102080004FF001110446FFF749FF2368002845D1AE
:1020900005F0FE021A61204632460B9B3149FFF7DC
:1020A00083FEEDB218B1012004B0BDE8F0812368D1
:1020B00003905969204603919B69314603930B9A1B
:1020C000039BFFF7BBFE002832D1B8F1010F236854
:1020D0003CD1FFB21F610B9A31462046FFF7AEFE9E
:1020E000024628BB20683346016841F480710160D4
:1020F0000B984FF0011100902046FFF70FFF236867
:1021000060B945F001051D61324620460B9B15491B
:10211000FFF74AFE003818BF0120C5E71B68DB0542
:1021200010D54FF400730320236404B0BDE8F081A0
:10213000236C042BB7D122680120136843F4007389
:102140001360B1E7032004B0BDE8F0813A0A1A61D8
:10215000314620460B9AFFF771FE0028E8D123682C
:10216000B7E700BF0200010030B5044683B0206825
:10217000436913F0040330D145696D051BD44B1C32
:10218000F6D0CDE90012FEF77BFF019A0099801A84
:10219000884201D80029EAD100222023226384F852
:1021A0003D3084F83E20236C012043F0200384F866
:1021B0003C2023640FE06FF4806120224161012004
:1021C000236384F83D2084F83E30226C84F83C3050
:1021D00042F00402226403B030BD002003B030BDE1
:1021E000002800F0B580F8B590F83D30044603F0C3
:1021F000FF02002B00F094802422236884F83D2005
:102200001A6822F001021A601A6842F400421A6049
:102210001A6822F400421A6000F058FE65684D4BBF
:102220009D424CD84C4B984278D9421E6D00B2FB6F
:10223000F5F240F6FC7649492368A1FB0010596885
:10224000013221F03F0141EA90415960196A800C46
:1022500021F03F01013008431862D969324221F46C
:102260004F4121F0FF0160D10422002520260A43BE
:10227000DA611968D4E9072021F0C00102430A435A
:102280001A609968D4E9030221F4034121F0FF01A7
:1022900002430A439A60D968D4E9052021F0FF017E
:1022A00002430A43DA601A68284642F001021A60C3
:1022B000256484F83D60256384F83E50F8BD284BC2
:1022C00098422BD94FF49671244E2368A6FB002622
:1022D000B20C01FB02F1234F5A68A7FB017122F0F7
:1022E0003F0242EA96425A601A6A8909013122F095
:1022F0003F0211431962D969A66821F44F4121F0C8
:10230000FF01AEB9013805EB4502B0FBF2F2013234
:10231000C2F30B02D2B142F40042A6E70120F8BD9D
:1023200080F83C200BF096F866E7C2F30B029CE7BE
:1023300005EB850202EB8205421EB2FBF5F201328B
:10234000C2F30B0212B142F440428EE701228CE745
:1023500001207047A08601007F841E0083DE1B439E
:10236000FF083D00D34D62102DE9F047044682B0CE
:1023700099460F469046BDF82CA00C9EFEF780FEB5
:1023800094F83D30202B03D0022002B0BDE8F08746
:10239000054600901923012220464349FFF7BEFD60
:1023A0000028F1D194F83C30012BEDD001232268B4
:1023B00084F83C301368DB0766D54FF0400C0020F2
:1023C0004FF0210E11684B4621F40061116084F832
:1023D0003DE084F83EC02064A4F82AA0B4F82AC0E6
:1023E00039460A9FA0F5803067624246CDE9006514
:1023F000E062A4F828C02046FFF7C8FD00283FD1BE
:10240000238D53B32A4631462046FFF717FD002897
:102410003FD1676A2068394611F8013BB4F828C0FB
:102420000361638D0CF1FF32013B9BB26385D0F8F1
:1024300014E093B21EF0040F61622385E1D063B112
:102440007A78ACF102030261628D9BB2013A0237E5
:1024500092B2238567626285D3E72A4631462046D9
:10246000FFF782FEA8B920212268136843F40073A5
:10247000136084F83D1084F83C0084F83E0084E743
:10248000012002B0BDE8F087136843F00103136038
:1024900093E7236C042BF3D122680120136843F4E3
:1024A0000073136071E700BF020010002DE9F047D0
:1024B0000446002588B099460E469046BDF844A0D3
:1024C000129F0395FEF7DCFD94F83D30202B04D0DD
:1024D0000226304608B0BDE8F08705460090192373
:1024E00001222046A049FFF719FD0028F0D194F8F9
:1024F0003C30012BECD00123226884F83C30136877
:10250000D9073AD54FF0220E4FF0400C0020116849
:102510004B4621F40061116084F83DE084F83EC030
:102520002064A4F82AA0B4F82AC03146109EA0F571
:10253000803066624246CDE90075E062A4F828C0AA
:102540002046FFF789FD0646002840F09480238D41
:10255000C3B9236804905A6904929A690492049A50
:102560001A6842F400721A600023202284F83C307A
:1025700084F83D2084F83E30ABE7136843F0010354
:102580001360BFE7012B226800F0F680022B77D0A2
:10259000116841F480611160079051690791926957
:1025A0000792079A032BDFF8C481DFF8C4A1DFF894
:1025B000C49135D8012B00F0B980022B4FF00002F6
:1025C0003B4641462046009570D1FFF7A7FC002806
:1025D00051D172B62368616A1A6842F400721A60B7
:1025E0001B690B70638D616A228D013B0131013AD9
:1025F0009BB261622285638562B62268636A126952
:102600001A70628D238D616A013A013B013192B2E9
:102610009BB2616262852385002BA5D0032BC9D9AB
:102620002A4639462046FFF745FC20BB2268636AEC
:1026300012691A70628D2168013A92B2238D628507
:102640004869626A013B9BB202F1010C4007238595
:10265000C4F824C0E0D50B695370238D628D616A84
:10266000013B013A9BB292B20131238562856162DE
:10267000002BD3D178E70126304608B0BDE8F087BB
:10268000136843F40063136072B6236806905A69B6
:1026900006929A690692069A1A6822F480621A6073
:1026A00062B6238D002B7FF47DAF5DE7FFF736FC2C
:1026B0000028E0D12268136823F48063136072B6A7
:1026C0002268636A12691A70DAF80030628DDB08DA
:1026D000A9FB0313208D616A1B0A013A92B203EB36
:1026E000830362850138C3EBC3034A1C6262208501
:1026F000039303E023685A69520723D4039B013BE9
:102700000393039B002BF5D12022236384F83D2003
:1027100084F83E30226C42F02002226462B6012628
:10272000304684F83C3008B0BDE8F0872A46394688
:102730002046FFF7BFFB00289DD12268636A12691B
:102740001A708AE71A6842F400721A601B694B70AB
:10275000638D616A228D013B9BB20131013A638531
:102760006162228548E700BF0200100004000100FA
:10277000F001002089B5F814136823F48063136016
:1027800072B6236805905A6905929A690592059A6E
:102790001A6842F400721A6062B682E72DE9F04FBF
:1027A000044685B01D4689469246FEF769FC94F8BA
:1027B0003D30202B03D0022005B0BDE8F08F064647
:1027C00000901923012220465149FFF7A7FB00285A
:1027D000F1D194F83C30012BEDD00123206884F82E
:1027E0003C300368D9076BD5242100224FF0010843
:1027F0000368DFF81CB123F400630360454B84F8E1
:102800003D1009F0FE092264E36202682B4642F49F
:10281000807202604FF00111002220460096FFF7FF
:102820007DFB2368002850D1C3F81090FEF728FCE8
:10283000216806464A694B6994F83D0002F002029D
:10284000A02803F4806318D0134316D1A02701E019
:10285000134312D1FEF714FC801BA84200D80DB917
:1028600084F83D7021684A694B6994F83D0002F094
:102870000202A02803F48063EAD1202784F83D7087
:102880004B699B0729D46FF480600A68192342F4CE
:1028900000720A6048610122594620460096FFF7FF
:1028A0003DFB48B908F10108D04501D22068ACE7EA
:1028B00084F83D7084F83C00012005B0BDE8F08F3D
:1028C000036843F0010303608EE71B68DA051DD53A
:1028D0004FF40073032023646EE700200A68192375
:1028E00042F400720A6003904869012203908969EA
:1028F0002046039100960649039DFFF70FFB002831
:10290000DAD184F83D7084F83C0055E7032053E7A2
:10291000020010000000FFFF90F83D00704700BF6C
:10292000002800F0C3812DE9F04103680446DD076B
:1029300082B035D5A6494A6802F00C02042A00F09C
:10294000EF804A6802F00C02082A00F0E580636814
:10295000B3F5803F10D0002B00F00D81B3F5A02F10
:1029600000F08F819A4B1A6822F480321A601A683C
:1029700022F480221A6004E0954A136843F48033FD
:102980001360FEF77DFB924E054605E0FEF778FBEF
:10299000401B642800F2EB8033689A03F6D5236865
:1029A0009F0728D58A4A516811F00C0F00F08E80DD
:1029B000516801F00C01082900F084802369002B84
:1029C00000F025810122834B814E1A60FEF758FBEF
:1029D000054605E0FEF754FB401B022800F2C780C5
:1029E00033689807F6D53368626923F0F80343EA41
:1029F000C203336023681A071FD45D0741D5744BA7
:102A0000DA69D0007DD50025734B1A68D10540F1F5
:102A10009D80E368012B00F00B81002B00F0C58046
:102A2000052B6B4B1A6A00F0398122F001021A6201
:102A30001A6A22F004021A62FFE0A369002B50D048
:102A40000122664B624E1A60FEF71AFB054605E04E
:102A5000FEF716FB401B022800F28980736A9B0771
:102A6000F6D55F4B5F4A1B68A2FB03235B0A019309
:102A700000BF019B5A1E0192002BF9D123685D070C
:102A8000BDD4E069D0B1524D6A6802F00C02082A48
:102A900000F0E68002284FF00001534A00F0088160
:102AA0001160FEF7EDFA2C46054604E0FEF7E8FA61
:102AB000401B02285BD823689B01F7D4002002B09A
:102AC000BDE8F0815268D6033FF578AF404A1268FE
:102AD00095072FD52269012A2CD0012002B0BDE82C
:102AE000F0813E4A3A4E1360FEF7CAFA054604E00A
:102AF000FEF7C6FA401B022839D8736A9F07F7D43D
:102B0000BCE7DA69012542F08052DA61DB6903F043
:102B100080530093009B77E74A68D0037FF517AF97
:102B20002B4A126891037FF53BAF6268002A7FF45D
:102B300037AFD2E7264960690A6822F0F80242EA14
:102B4000C0020A601A077FF558AF76E71A681F4679
:102B500042F480721A60FEF793FA06463B68DA0583
:102B60003FF557AFFEF78CFA801B6428F6D9032097
:102B700002B0BDE8F08103F1804303F504331A6825
:102B80001E4622F480321A601A6822F480221A60EB
:102B9000FEF776FA054604E0FEF772FA401B642859
:102BA000E5D833689B03F7D4F9E603F1804303F5D6
:102BB00004331A6A1F4622F001021A621A6A41F2AD
:102BC000883822F004021A62FEF75AFA064612E02A
:102BD0000010024000004242007000408004424267
:102BE000F0010020D34D621060004242FEF748FA27
:102BF000801B4045BBD83B6A9807F7D4002D3FF4B3
:102C000040AF444AD36923F08053D36139E7424A45
:102C1000404E1360FEF734FA054604E0FEF730FA42
:102C2000401B0228A3D833689907F7D42368E2E64B
:102C3000384A136A43F001031362FEF721FA41F2A6
:102C400088380646334F04E0FEF71AFA801B4045E9
:102C50008DD83B6A9B07F7D5002D3FF412AFD0E724
:102C600001283FF42CAF6B68226A03F48031914253
:102C70007FF433AF606A03F47013181A18BF012091
:102C80001DE703F18043A3F53C331A6842F4802228
:102C90001A601A6842F480321A6072E642F0040246
:102CA0001A621A6A42F001021A62C6E701207047EE
:102CB0001160FEF7E5F9064605E0FEF7E1F9801B35
:102CC00002283FF654AF2B689901F6D4236AB3F576
:102CD000803F05D16A68A16822F400320A436A6025
:102CE00001200C4D616A6A680B4322F474120B498F
:102CF00013436B600860FEF7C3F92C46054605E0F8
:102D0000FEF7BEF9401B02283FF631AF23689A0157
:102D1000F6D5D3E600100240000042426000424275
:102D200040F2012286B0154B0DF1180CADF80420CD
:102D30000FCB0CE90F00124A536803F00C0108296D
:102D400002D0104806B07047C3F383416144DB03EF
:102D500011F8101C0CD553680A48C3F3404300FB1C
:102D600001F0634413F8143CB0FBF3F006B0704775
:102D7000054800FB01F006B0704700BF98E9000865
:102D80000010024000127A0000093D00002800F007
:102D90008C80494A2DE9F0411368044603F007038B
:102DA0008B420D460CD2136823F007030B431360CC
:102DB000136803F007038B4202D00120BDE8F081C5
:102DC0002368980714D5590704D53C494A6842F44A
:102DD000E0624A601A0704D538494A6842F46052F2
:102DE0004A603649A0684A6822F0F00202434A600D
:102DF000DF0720D56268314B012A1B6857D0022AB1
:102E000050D09907D9D52D4E41F28838736823F0F8
:102E1000030313437360FEF733F9074604E0FEF73C
:102E20002FF9C01B404545D87368626803F00C0356
:102E3000B3EB820FF3D1204A136803F00703AB42D0
:102E400009D9136823F007032B431360136803F0B9
:102E50000703AB42B1D123685A0706D51749E0688A
:102E60004A6822F4E06202434A601B0707D5134A0E
:102E70002169536823F4605343EAC1035360FFF7A9
:102E80004FFF0E4B0E4A5B680E49C3F30313D35C2E
:102E90000D4A20FA03F308681360FEF7AFF800202C
:102EA000BDE8F0819801AED487E7012070479E030A
:102EB000A9D482E7032081E70020024000100240ED
:102EC0005CF30008EC010020F0010020044B0549F0
:102ED0005B68054AC3F30223CB5C1068D840704797
:102EE000001002406CF30008F0010020044B05497B
:102EF0005B68054AC3F3C223CB5C1068D8407047B7
:102F0000001002406CF30008F00100202DE9F041B0
:102F10000446006882B0C3072AD5394BDA69D70066
:102F20003DD5384B00251A68D60546D5344E336A50
:102F300013F440730FD0616801F440729A420BD0D1
:102F400001270020336A304A23F440711760106073
:102F50003162D90745D46168294A136A23F4407362
:102F60000B4313621DB1D36923F08053D3612068F2
:102F7000830706D52249A3684A6822F440421A43CF
:102F80004A6010F0100007D000201D4AE168536825
:102F900023F480030B43536002B0BDE8F081DA698B
:102FA000012542F08052DA61DB6903F0805301931E
:102FB000019B144B1A68D605B8D41A681F4642F410
:102FC00080721A60FEF75CF806463B68D805ADD4FF
:102FD000FEF756F8831B642BF7D9032002B0BDE837
:102FE000F081FEF74DF841F28838074604E0FEF71D
:102FF00047F8C01B4045F0D8336A9A07F7D5AAE7CF
:1030000000100240007000404004424210B50446E7
:1030100040F2012286B0344B0DF1180C022CADF8B1
:1030200004200FCB0CE90F0006D0102C28D0012C67
:103030000ED0002006B010BDFFF758FF2B4B5B6889
:10304000C3F3813301335B00B0FBF3F006B010BD76
:1030500040F2023225490B6A1A40B2F5817F33D023
:1030600003F44073B3F5007F31D0B3F5407FE0D176
:103070004FF22443086810F4003018BF1846D9E70F
:103080001A4B5A68186810F08070D3D0C2F383418D
:1030900006A80144D20311F8100C20D55B6806A9DC
:1030A000C3F340430B44124A13F8143CB2FBF3F34E
:1030B00000FB03F00D4B5B685B02BBD40D4B400083
:1030C000A3FB00304008B5E74FF40040B2E749F6F3
:1030D0004043486A10F0020018BF1846AAE7064BA2
:1030E00003FB00F0E6E700BF98E90008001002408B
:1030F00000127A00ABAAAAAA00093D002DE9F0410E
:103100001E46144682B00D460746FDF7B9FF264419
:10311000361AFDF7B5FF8046254B1B68C3F3CB334A
:1031200006FB03F301933A6801E0631C07D193683F
:1031300035EA0303F9D0002002B0BDE8F081FDF7C5
:103140009FFFA0EB0800B04208D2019A019B002A21
:1031500003F1FF3308BF00260193E4E7D7E900310C
:103160005A68B1F5827F22F0E0025A6014D0BA6A40
:10317000B2F5005F07D001220023032087F8512019
:1031800087F85030D8E71A6822F400521A601A689B
:1031900042F400521A60EEE7BA68B2F5004F02D06E
:1031A000B2F5806FE3D11A6822F040021A60DEE7C0
:1031B000F0010020002855D0F8B5436A0446002BE2
:1031C00041D00023C0E90433002394F85110A362D6
:1031D00001F0FF0200293CD01A46D4E90130022751
:1031E00001260025E16800F4044003F482730343E0
:1031F000206901F4006138400B4361690343A06911
:1032000031400B4300F400710B43E16984F85170C5
:10321000276A01F038010B4307F0800721683B4320
:1032200013430A68000C00F0040022F040020A6018
:103230000B604860CB69284623F40063CB61656569
:1032400084F85160F8BD4268B2F5827FBCD0C3619A
:10325000BAE784F8502020460AF02EF9A36A03F456
:103260000052BAE7012070472DE9F041044690F87A
:10327000500082B001285ED01D46012384F85030F2
:1032800088461746FDF7FCFE94F851300646012BA0
:10329000D8B209D002200122002384F8512084F8FA
:1032A000503002B0BDE8F081B8F1000FF3D0002F2C
:1032B000F1D00322002384F85120A2686365B2F59F
:1032C000004FC4E91033A363A387E786C4F83080B6
:1032D000E387A786236859D01A68520603D41A6870
:1032E00042F040021A60E268B2F5006F626826D0D0
:1032F000002A54D0012F52D0E38E9BB273B959E00B
:10330000226B12781A73E28E236B013A92B2013368
:10331000E2862363E28E92B2002A4BD023689A6839
:103320009207EDD4FDF7ACFE801BA842F2D36B1CD4
:10333000F0D00320AFE7022002B0BDE8F081002A00
:103340004DD1414631F8022BDA60E28E2163013A19
:1033500092B2E286E28E92B26AB92BE0226B32F828
:10336000021BD960E38E2263013B9BB2E386E38EAE
:103370009BB2FBB123689A689007EFD4FDF780FEFB
:10338000801BA842F3D3691CF1D0D2E71A6822F05F
:1033900040021A601A6842F480421A609CE798F86A
:1033A00000201A73E38E226B013B9BB20132E3864D
:1033B0002263A1E733462A4680212046FFF79EFE7E
:1033C00080B9A36833B922680193D36801939368E5
:1033D0000193019B606D003818BF01205BE7012F4E
:1033E000B8D1AEE72022636D134363656265E8E7F9
:1033F00090F85100704700BF026AF0B422F0010259
:103400008D680262036A476823F0020382692B43D6
:103410000D4D0C6822F07302A84242EA040206D065
:10342000496847608261F0BC416303627047CE68BF
:1034300023F0080327F440773343D1E905452C43B3
:1034400023F004032743EBE7002C0140026AF0B4A9
:1034500022F480728D680262036A476823F4007365
:10346000C26943EA05230F4D0C6822F07302A8429B
:1034700042EA040206D049684760C261F0BCC163F9
:1034800003627047CE6823F4006327F4405743EA91
:103490000623D1E905452C4323F4806347EA04174A
:1034A000E9E700BF002C0140026A70B422F48052A8
:1034B0008E680262036A456823F40053C26943EAD6
:1034C00006330A4E0C6822F4E642B04242EA042275
:1034D00006D049684560C26170BC016403627047F0
:1034E0004C6925F4804545EA8415F2E7002C01403B
:1034F000704700BF31BB90F83E30012B2ED1022324
:1035000080F83E300122036801F01F01186A02FAB8
:1035100001F120EA01001862186A1F4A0143934230
:1035200019621DD0B3F1804F1ED01C4A93421BD0AC
:1035300002F58062934217D01A68002042F001021F
:103540001A607047042916D008291CD090F8413021
:10355000012B03D1022380F84130D3E701207047CB
:103560005A6C42F400425A649A6802F00702062A32
:10357000E2D10020704790F83F30012BEED10223BA
:1035800080F83F30BEE790F84030012BE6D10223AF
:1035900080F84030B6E700BF002C01400004004036
:1035A00051BB90F83E30012B50D1022380F83E30C1
:1035B0000368DA6842F00202DA600122186A01F058
:1035C0001F0102FA01F120EA01001862186A374A65
:1035D0000143934219623BD0B3F1804F3CD0344A4F
:1035E000934239D002F58062934235D01A680020A8
:1035F00042F001021A607047042936D0082947D0EA
:1036000090F84130012B21D1022380F841300C2960
:1036100029D801A353F821F0B13500086736000816
:1036200067360008673600087936000867360008F4
:1036300067360008673600086736000867360008F6
:103640006736000867360008853600080120704795
:103650005A6C42F400425A649A6802F00702062A41
:10366000C4D1002070470368A7E790F83F30012BD2
:10367000ECD1022380F83F300368DA6842F004029C
:10368000DA609AE70368DA6842F01002DA6094E7D9
:1036900090F84030012BD9D10222036880F84020F5
:1036A000DA6842F00802DA6087E700BF002C0140C8
:1036B00000040040704700BFFFF71CBF90F83C308B
:1036C000012B74D0F0B402230124026880F83C403E
:1036D00080F83D3094680B6824F47F4424F077042C
:1036E000602B946065D031D8402B48D021D9502B25
:1036F00016D1156A166A4C6826F00106CF68166264
:10370000936925F00A0123F0F00343EA07132143EC
:1037100093611162936823F0700343F05703936041
:103720000023012280F83C3080F83D20F0BC184690
:103730007047202B02D01ED9302BF1D1916821F097
:1037400070010B4343F007039360E9E7702B49D006
:10375000B3F5005FE4D1D1E90153CC6891682B4304
:1037600043EA042321F47F410B439360936843F4BD
:1037700080439360D4E733F01001D1D1DEE7156ABE
:10378000166A4C6826F00106CF681662936925F028
:103790000A0123F0F00343EA071321439361116206
:1037A000936823F0700343F047039360B8E7022067
:1037B0007047146A4D6824F01004CE681462916951
:1037C000136A21F4704123F0A00343EA051341EA90
:1037D000063191611362936823F0700343F067032D
:1037E00093609DE7CC68D1E9015391682B4343EA8C
:1037F000042321F47F410B439360936843F07703E4
:1038000093608DE7704700BF704700BF704700BFEF
:10381000704700BF036810B51A690446910702D5C6
:10382000DA6892075FD41A69500702D5DA6851073F
:1038300046D41A69120702D5DA6810072ED41A691D
:10384000D20602D5DA68D00618D41A69D10702D593
:10385000DA68D2075DD41A69100602D5DA68110653
:103860005FD41A69520602D5DA68500661D41A6923
:10387000910602D5DA68920643D410BD6FF01001AC
:10388000082219612277DB69204613F4407F64D057
:10389000FFF7BAFF002223682277D6E76FF008010E
:1038A000042219612277DB692046990752D103F07F
:1038B000F1F82046FFF7AAFF002223682277BEE72F
:1038C0006FF004010222196122779B69204613F4EC
:1038D000407F3CD103F0DEF82046FFF797FF00223F
:1038E00023682277A5E76FF00201012219610277B0
:1038F0009B699B0725D0FFF787FF0022236822776B
:1039000091E76FF020022046BDE810401A6100F0F8
:1039100019BA6FF0010220461A61FFF773FF23689E
:1039200099E76FF0800220461A6100F00DFA2368D3
:1039300097E76FF0400220461A61FFF769FF23689E
:1039400095E703F0A7F82046FFF760FFD5E7FFF7FC
:103950005BFFC4E7FFF758FFAEE703F09BF8204694
:10396000FFF754FF96E700BF1D4A0368904221D03D
:10397000B0F1804F30B414D0A2F59432904210D000
:1039800002F5806290420CD04D6923F080032B43F6
:103990008C680A6803600123C462826230BC4361A0
:1039A00070474A6823F070031343CA6823F44073D6
:1039B0001343E9E74A6823F070031343CA6823F40A
:1039C000407313434A6923F08003134303608B68F9
:1039D000C3620B6883620B69036301234361704711
:1039E000002C014050B310B590F83D30044603F070
:1039F000FF02F3B10223214684F83D3051F8040B55
:103A0000FFF7B2FF012384F8463084F83E3084F893
:103A10003F3084F8403084F8413084F8423084F8F4
:103A2000433084F8443084F8453084F83D30002039
:103A300010BD80F83C2009F073FDDBE701207047E2
:103A400050B310B590F83D30044603F0FF02F3B1D7
:103A50000223214684F83D3051F8040BFFF784FF20
:103A6000012384F8463084F83E3084F83F3084F8EF
:103A7000403084F8413084F8423084F8433084F890
:103A8000443084F8453084F83D30002010BD80F883
:103A90003C20FFF72DFDDBE70120704750B310B548
:103AA00090F83D30044603F0FF02F3B102232146B3
:103AB00084F83D3051F8040BFFF756FF012384F8DA
:103AC000463084F83E3084F83F3084F8403084F843
:103AD000413084F8423084F8433084F8443084F82C
:103AE000453084F83D30002010BD80F83C20FFF7C1
:103AF000E1FDDBE701207047026AF0B422F010021A
:103B00008D680262036A476823F02003826943EAF2
:103B100005130F4D0C6822F4E642A84242EA042243
:103B200006D0496847608261F0BC816303627047D8
:103B3000CE6823F0800327F4406743EA0613D1E9F7
:103B400005452C4323F0400347EA8407E9E700BF1B
:103B5000002C014090F83C30012B2BD0012310B5F4
:103B6000044680F83C300C2A0BD8DFE802F0070A44
:103B70000A0A150A0A0A1C0A0A0A0E000068FFF758
:103B80003BFC002084F83C0010BD0068FFF78CFC73
:103B9000002084F83C0010BD0068FFF7ADFF002056
:103BA00084F83C0010BD0068FFF750FC002084F84A
:103BB0003C0010BD0220704738B590F83C30012B16
:103BC00061D0012304460D4680F83C300C2A18D8F9
:103BD000DFE802F0071717173017171745171717E1
:103BE0001B000068FFF708FC23682869996941F009
:103BF00008019961996921F0040199619A69024368
:103C00009A61002084F83C0038BD0068FFF74CFC46
:103C100023682869D96941F40061D961D96921F41F
:103C20008061D961DA6942EA00220020DA6184F811
:103C30003C00E9E70068FFF75FFF2368286999699E
:103C400041F400619961996921F4806199619A69EF
:103C500042EA002200209A6184F83C00D4E7006820
:103C6000FFF7F4FB23682869D96941F00801D9619D
:103C7000D96921F00401D961DA6902430020DA61CF
:103C800084F83C00C0E7022038BD00BF90F83C300B
:103C9000012B26D00222036830B480F83D205A68F8
:103CA0000C68114D22F070022243AB429C685A60AE
:103CB00009D0B3F1804F06D00C4A934203D002F5ED
:103CC0008062934204D14A6824F0800414439C60CB
:103CD0000023012280F83C3080F83D2030BC18469B
:103CE00070470220704700BF002C014000040040D4
:103CF00090F83C30012B22D00246D1E9020310B4E7
:103D0000002423F440730343486823F4806303438F
:103D1000086823F400630343086923F480530343D2
:103D2000486923F400530343C86923F480431168AE
:103D300003434B6482F83C40204610BC704702208D
:103D4000704700BF704700BF704700BF2DE9F04FBC
:103D500001EB0308571C83B0FFB25FFA88F80097A5
:103D60001D4643460C469146064690F886A00C9F99
:103D700000F00AFE20B30DB3BAFA8AFB80254FEAA1
:103D80005B1B0AE096F88530ABB101346D08E4B2F4
:103D900004BF80250137A04510D03B781D42F1D0EB
:103DA000002386F886A000934A4601232146304628
:103DB00000F0A8FDE9E786F886B0F4E786F886A06B
:103DC00003B0BDE8F08F00BF2DE9F04F83B09DF840
:103DD00030B0DF00FFB202EB0B069946F6B27B185B
:103DE000DBB200961446884682460D9D00F0CCFD5D
:103DF00070B1BBF1000F0BD02246013400953B4659
:103E000041465046E4B2FFF7A1FFA6424D44F3D12C
:103E100003B0BDE8F08F00BF2DE9F04383B09DF8FB
:103E200028901F4602EB0905CB18EDB20095DBB2D6
:103E300014460E46804600F0A7FD80B1B9F1000F90
:103E40000DD04FF00009224601343B463146404632
:103E5000CDF80090E4B200F055FDA542F3D103B0D7
:103E6000BDE8F0832DE9F04303680646002490F88E
:103E70003C7093F8118090F83D9083B002E0C84503
:103E800016D933681B7CB56B04FB03F189B2C900FA
:103E900089B229444A46009130460021013401F09C
:103EA00029FAE3B209F101099F425FFA89F9E6D8DC
:103EB00003B0BDE8F08300BF036890F83C201B7C92
:103EC000002102FB03F2806BD20009F0EFBE00BFBD
:103ED00010B50446FFF7C6FF2046BDE8104001F0CC
:103EE00033BA00BF10B50446436B80F83D101B6821
:103EF0009847636B2046BDE810405B68184700BFD9
:103F000010B590F8873004462BB92046BDE8104024
:103F10000021FFF7E7BF036890F83C201B7C0021DD
:103F200002FB03F2806BD20009F0C0FE2046BDE820
:103F300010400021FFF7D6BF38B50446FFF792FFC7
:103F400094F83D5094F83C2023681544597CEDB218
:103F5000A94211D994F8871029B920462946FFF7BC
:103F6000C1FF012038BD1B7C002102FB03F2A06BC6
:103F7000D20009F09BFEF0E7204601F0E5F90020B1
:103F800038BD00BF2DE9F0479DF824900C4619F08C
:103F9000010F90461D4606469DF820700AD119F083
:103FA000020F1CD119F0080F31D119F0040F43D1C1
:103FB000BDE8F087531C6918BA1ADBB2D2B2C9B295
:103FC00000F0BAFC631C3A1B05EB08013046DBB27B
:103FD000D2B2C9B200F0B0FC19F0020FE2D008F181
:103FE0000103A7EB0802291B3046DBB2D2B2C9B2EB
:103FF00000F0A2FC631C3A1BA5EB08013046DBB2C3
:10400000D2B2C9B200F098FC19F0080FCDD008F177
:10401000010329193A463046DBB2C9B200F08CFCE4
:10402000631C05EB08013A463046DBB2C9B200F02A
:1040300083FC19F0040FBBD008F10103291B3A4699
:104040003046DBB2C9B200F077FC631CA5EB080177
:104050003A463046BDE8F047DBB2C9B200F06CBC6E
:104060002DE9F04F1D46541C1C44013383B00B4412
:1040700090460F46E4B2521B491B0094DBB2D2B209
:10408000C9B281469DF830A000F07EFC10B903B0A3
:10409000BDE8F08FC5EBC5167600C5F101043B46BF
:1040A0002A4600214846CDE9008A76B264B2FFF77D
:1040B00069FF002DEBD04FF0000B18E002363444BE
:1040C000013D04F0FF0476B2EDB20BF1010B5FFA93
:1040D0008BFB59463B462A464846CDE9008A04EB0D
:1040E0004B04FFF74FFF0134AB4564B2CFD2002C35
:1040F000E4DAE4B2E9E700BF10B50446FFF700FFD9
:104100002046FFF719FF0028FAD101462046BDE8F6
:104110001040FFF7E7BE00BF0346082201481A70AF
:10412000704700BF4C0C002030B585B00D460093A1
:1041300009491346094A044601F014F90DF10F002C
:10414000FFF7EAFF064B01469DF80F202046009539
:1041500000F032FF05B030BD495200081951000887
:10416000E94A000843185B78405C03EB002080B20A
:10417000704700BF012B05D0022B09D02BB1401A8C
:10418000C0B270470844C0B270471044C0B2704714
:10419000801AC0B2704700BF012B05D0022B09D096
:1041A0002BB11044C0B27047801AC0B270470844A7
:1041B000C0B27047401AC0B2704700BF002370B44D
:1041C00090F86C50816580F86230072D0A782BD901
:1041D0000131A5F108038165DBB24FF0FF3490F89F
:1041E0006D60AC4022EA040280F8623080F8602002
:1041F000F4180D78E4B2072C45FA03F516D8EBB2A3
:1042000090F886504FF0FF31B5FA85F2B14052096F
:1042100023EA010380F8624080F8645080F865204A
:1042200080F8613070BC70472B46D6E74A1C826527
:104230004A78C3F10803DBB202FA03F3083C2B43CC
:10424000E4B2DBB2DCE700BF00207047024610B5E5
:104250000C460B78084613704B7811215370A378E5
:104260009370E378D3702379137163795371A379D1
:104270009371E379D371237A1372637A5372A37AB9
:104280009372E37AD372237B1373637B5373A37BA1
:104290009373E37BD373237C1374FFF763FF1321C2
:1042A00050822046FFF75EFF152190822046FFF7DF
:1042B00059FFD08210BD00BF70B4827A06688C1896
:1042C0003378E4B2072C43FA02F50FD8EBB24FF083
:1042D000FF3601258E400139CAB205FA02F223EAFF
:1042E00006018472891A48B270BC7047731C03605F
:1042F0007378C2F10802D2B29340083C2B43E4B277
:10430000DBB2E4E72DE9F04F85B004460F4690F8A4
:104310005E8090F85F60039210E094F863000028DC
:1043200043D007EB0803AF42A3EB0B0B06F10106EA
:1043300033D34FF000080BF0FF07F6B24FFA86FABE
:1043400052464FFA88F194F8663094F85C00FFF713
:1043500023FF814694F85D00FFF70CFF94F860B0EE
:104360000246ABEB0805EDB20398AF42394628BFD1
:1043700029460028D1D094F8640000930B4684F8B5
:1043800086004946204600F0BDFA07EB0803AF421D
:10439000A3EB0B0B06F10106CBD2474484F85E7009
:1043A00084F85FA005B0BDE8F08F94F86500E4E7FD
:1043B0002DE9F047044600F1580582B0FFF7FEFEF4
:1043C000284694F86E1094F96180FFF775FF94F811
:1043D0006F1006462846FFF76FFF034694F87010EB
:1043E00028461D46FFF768FF94F960708146002F4C
:1043F00025DD5FFA88FA0AEB0502524252B23146D5
:1044000094F8663094F85C00FFF7C6FE84F85C0010
:10441000054694F85D00FFF7ADFE024684F85D00A6
:10442000032B00F2A880DFE803F07D838C0E94F963
:104430005F2042451EDB94F8643084F8863048469D
:1044400002B0BDE8F087C7F1010101440AEB0503A2
:104450000130CAB2DBB2C1B200912046294600F059
:1044600093FA0028EBD000224FF0FF3794F8623027
:10447000A4F85E2094F86AC0A06D0CEB03020678E5
:10448000D2B2072A46FA03F568D80146EEB294F88C
:104490006B0084F8622083180D78DBB207FA0CFCFD
:1044A000072B26EA0C0645FA02F50CD901F1010C9E
:1044B000C4F858C04978C2F10802D2B201FA02F237
:1044C000083B1543DBB2EDB207FA00F025EA000520
:1044D00084F8623005E05FFA8CF2D20784F862302B
:1044E000A5D5002231462046FFF70CFF01222946C0
:1044F0002046FFF707FF94F86210A06D4B1C02786E
:10450000DBB2072B42FA01FCE5D9431CA3654278D4
:10451000C1F10803DBB29A4042EA0C02CB1FD2B2CF
:10452000DBB2DAE7EB190AEB0001DBB2C9B293E7C1
:10453000CAF101006B1C2844D119C5B2DBB2C9B263
:104540008AE7C7F10106CAF101006B1C511C2E4419
:104550001044F5B2DBB2C2B2C9B27DE7411CA1651D
:104560004078C3F10806F6B200FA06F6083A2E4380
:10457000D2B2F6B28BE701462B466DE7026DFF29FA
:1045800038B502F117020C460ED8602930D9B0F8C0
:104590007C301A44507830B11378A3422ED00244B4
:1045A00050780028F8D138BDB0F87E000244154696
:1045B00000212846FFF7D6FD0346022128461A446B
:1045C000FFF7D0FD844205F10405F1D8108840BA08
:1045D00080B20028E7D0844208D093781A4410882B
:1045E00040BA80B20028DED08442F6D1D01C38BD5B
:1045F0004029D5D9B0F87A301A44D1E7901C38BD9B
:1046000038B50446FFF7BAFFC0B104F158050146BA
:104610002046FFF7D3FD94F86E102846FFF74CFEB6
:1046200094F86F1084F884002846FFF745FE28466A
:1046300094F87010BDE83840FFF73EBE38BD00BFAB
:104640002DE9F84300231F460D4680F860300446EC
:104650003E4600F0E1FC4FF6FF784FF6FE79013D53
:104660002046636815F8011F9847404509D0484522
:10467000F6D001462046FFF7C3FFC7B23E44F6B26C
:10468000EEE794F9602032B194F8843013441E446C
:10469000F61B06F0FF063046BDE8F8832DE9F04131
:1046A00090F8666004460F4615469846032E07D8D4
:1046B000DFE806F0161B2002436D98470744FFB25F
:1046C0004146204684F85C7084F85D50FFF756FF41
:1046D00020B101462046FFF76BFEC0B2BDE8F08175
:1046E000436D98470544EDB2EAE7436D98473F1A9A
:1046F000FFB2E5E7436D98472D1AEDB2E0E700BF42
:104700002DE9F0471D460F46164604464FF00009B6
:1047100000F082FC4FF6FF784FF6FE7A013D20460E
:10472000636815F8011F984740451ED05045F6D0E4
:104730000346324639462046FFF7B0FF94F866300C
:10474000032B05D8DFE803F00B080E02361AF6B289
:1047500081445FFA89F9E2E70644F6B2F8E70744D4
:10476000FFB2F5E73F1AFFB2F2E74846BDE8F0872F
:1047700010B4024C446010BCFFF7C2BF09500008DF
:10478000036DE3B190F9752090F9763090F88110BF
:1047900080F8822080F8833089B1012910D010B4CC
:1047A00090F9721090F9744021448A42B8BF80F8A1
:1047B0008210A342C8BF80F8834010BC7047704786
:1047C00090F977108A4290F97820B8BF80F882106B
:1047D0009342F4DD80F88320704700BF014B4365AE
:1047E000704700BF49420008026D8A420AD010B5E6
:1047F000044601656830FFF729FD2046BDE81040FA
:10480000FFF7BEBF704700BF014B4360FFF718BF03
:104810000950000830B4012B9DF8084003D9022C40
:1048200028D0032C4BD0E40727D590F845408C4284
:1048300043D890F846408C423FD91344DBB29342B0
:1048400090F8475090F8484041D3944235D99D4262
:1048500033D2AA4238BF2A469C4294BFC2EB04031B
:10486000C2EB03030125DBB2446B0295A468A446A6
:1048700030BC60470131C91AC9B290F84740944230
:104880001BD890F84840944217D90B44DBB28B42B6
:1048900090F8455090F846401ED38C420DD99D4269
:1048A0000BD2A94238BF29469C4294BFC1EB0403F6
:1048B000C1EB03030025DBB2D6E730BC704790F8AC
:1048C00045400132D21A8C42D2B2B2D9F5E79442B5
:1048D00007D9631EDBB2BAE78C4204D9631EDBB290
:1048E000DDE72A46B1E72946D7E700BF70B490F864
:1048F00040609DF80C50046B921BA4460395D2B205
:1049000070BC604770B490F880509DF80C6025B181
:104910001BB1039670BCFFF77DBF70BC704700BF32
:1049200030B590F8805083B025B11BB100240094BD
:10493000FFF770FF03B030BD30B590F8805083B002
:1049400025B11BB101240094FFF764FF03B030BD13
:1049500070B590F8476082B0964213D890F84860DE
:1049600096420FD990F845408C420BD890F84640BB
:104970008C4207D990F8803023B1002401230094A1
:10498000FFF748FF02B070BD70B490F8486090F82F
:10499000475096429DF80C4016D9A54201D3A24239
:1049A0000FD990F8464090F845208C4207D99A429A
:1049B0000FD370BC994294BF0020012070479A42E7
:1049C000F7D3002070BC7047A542FAD2A242E8D8C3
:1049D000F7E70120F6E700BF2DE9F04F83B09DF81F
:1049E000309099428CBFA1EB0308A3EB01084A4524
:1049F0000C46824616465FFA88F80ED9A2EB090BE0
:104A00005FFA8BFBD84559D2114622464C46914657
:104A100001221E4601920B460DE0A9EB020B5FFA44
:104A20008BFBD84532D2224619463446164601221F
:104A30004B46894601924E4534BF4FF001094FF075
:104A4000FF394BF34705FE2B28BFFE23DFB2BC42E4
:104A500013D930E0324621465046FFF779FFA5EBE7
:104A600008035DB20134002DE4B2DBB203DA5B442B
:104A70004E445DB2F6B2A7421DD3019B002BE9D094
:104A8000224631465046FFF763FFE8E7994225D9B1
:104A900021461C460B46FE2B28BFFE234246002122
:104AA000DFB2BC424E4648F347054FF0FF39D846C7
:104AB00001919346E1D903B0BDE8F08F99420DD939
:104AC000214642461C460B4600214E4648F3470508
:104AD0004FF00109D84601919346B4E75A460021A8
:104AE000C34601919046A6E7F0B5012490F88650A0
:104AF00002F00706B440012D9DF81470E4B238D9D5
:104B0000002502F0F80C026892F810E00EFB0C127F
:104B1000816B0A447FB9591EC9B20131114413781F
:104B20002B43634002F8013B8A42F8D1F0BD24D107
:104B30000D46002BFAD01178013629436140013B24
:104B400016F007061170DBB24FEA45074FEA440141
:104B50000AD190F8861090F83E7001293A44E6D9BF
:104B60000124002BE7D1E1E7FDB2CCB2002BE2D16A
:104B7000DCE72546C5D10024C3E701242546002BE8
:104B8000D9D1D3E7B0F90810B0F90A308B4218DD5B
:104B900030B4C389C4888289858823441CB22A44DE
:104BA00092B2002C8281C4819BB205DD05884488C5
:104BB0002A441B1B8281C3810131018130BC012049
:104BC00070470020704700BF037E0131C8B28342A6
:104BD00098BF0020704700BF037E0139C8B28342EE
:104BE0009CBF03F1FF30C0B2704700BF2DE9F8430E
:104BF000234E00EB400306EBC304217DA6F11C0706
:104C000007EB810C3846226937F92180BCF9029004
:104C1000DD00904737F9202007EB8003B3F902301D
:104C200097B21FFA88F21FFA83FE1FFA89FC63818C
:104C3000BB1AAEEB0C011BB209B2002BA4F8089012
:104C4000A4F80C80207561800EDB01220020AA539D
:104C50001A46E08192FBF1F093FBF1F301FB102285
:104C6000A380E280BDE8F8834FF6FF700CF1010CE1
:104C7000ACEB0E0CD21BA85312B2A4F80EC0E9E79D
:104C8000781000202DE9F0412F4F80460020B7F921
:104C90001A60FFF7ABFF0120FFF7A8FF7B7E002B18
:104CA00048D12A4DB7F93C20002A1EDB98F8443041
:104CB0009A421ADAB7F92830B7F940108B4229DA4C
:104CC000002912DB98F8430083420EDA884223EA77
:104CD000E373C8BFC8B2D9B2431ADBB24046D2B2FE
:104CE000FFF71EFE01E0FFF781FF2846FFF74AFFAE
:104CF0000028F8D0164C02E00120FFF777FF20468D
:104D0000FFF740FF0028F7D0013E36B2002EC9DC85
:104D1000BDE8F081002BE8DB98F843008142E4DA3B
:104D20000029B6BF00241C462346A042C8BFD8B203
:104D3000C9B2D1E707F11C00FFF724FF07F13400E7
:104D4000FFF720FFADE700BF5C10002078100020C7
:104D500090100020F8B50C4D01EB410105EBC101AD
:104D60000C4606462F4691F8301001E084F83000DA
:104D7000E36A3846984705EB8003B3F902300146F1
:104D8000B342F3D0F8BD00BF5C1000200020F8B59E
:104D9000264C274A277E274B012FB4F9021084F8AE
:104DA00030006264E36298BF608335D90123864690
:104DB0001D460E4604F1020C3CF9232001339142BA
:104DC000B8BF1146B24202DAAE4616460120DDB245
:104DD000AF42F1D808B184F830E0891B08B2608393
:104DE000D0B194F830300121304684F84830FFF7D4
:104DF000B1FF00213046FFF7ADFF012194F83020CC
:104E000094F8483034F9222034F9233061769A42FC
:104E100003D0002308466376F8BD618B013909B2DF
:104E2000081E18BF01206183F8BD00BF5C10002080
:104E3000C94B0008D94B0008F8B503260B4CBDF947
:104E400018706280A380BDF91C20BDF92030054692
:104E50002180E780228163812676FFF797FF00B9E2
:104E6000F8BD2846BDE8F840FFF70CBF5C100020F5
:104E700070B490F83C500468EB00DBB280F83F302F
:104E8000217C90F83D601F2928BF1F21F200C90036
:104E9000D2B280F83E1080F84020617C35448D42CB
:104EA00002DD8B1BDB00DBB2F021134480F84310E2
:104EB00080F8423080F84120A38A8B4288BF0B469D
:104EC00080F84330E38A70BC80F84430704700BFFC
:104ED00030B490F8445090F84340AA1A9DF8085016
:104EE000611AD2B2C9B23DB9013AC91AD2B2C9B235
:104EF000029530BCFFF7FABC012DF9D10139D21A65
:104F00000295C9B2D2B230BCFFF7F0BC10B590F830
:104F10004C2082B090F84A30009290F84B2090F8E4
:104F200049100446FFF730FD18B984F8800002B03C
:104F300010BD012194F8493094F8452084F8801080
:104F40009A4238BF84F8453094F8462094F84A30A5
:104F50009A4288BF84F8463094F8472094F84B3042
:104F60009A4238BF84F8473094F8482094F84C307F
:104F70009A4288BF84F8483002B010BD002190F8F2
:104F8000422090F8443080F84710934224BF9A1A88
:104F900080F8472090F8412010B490F843409B1AC5
:104FA00080F8464080F8451010BC80F84830FFF784
:104FB000ADBF00BFFFF75CBF70B5002540F2011622
:104FC00080F83C20049AA0F8866080F83D5080F874
:104FD000635080F88550044681630363426313681D
:104FE00005659847FF23626B84F84950A4F84A305E
:104FF00084F84C302046536898472046FFF7EEFB74
:1050000084F8665070BD00BF19B10A2901D088B27A
:1050100070474FF6FF707047002380F827307047C5
:1050200010B404690A46A4460023202110BC60473E
:1050300010B404691346A4460A4610BC1721604701
:105040000B4600B583B001210DF107028DF8073042
:10505000FFF7EEFF03B05DF804FB00BF10B4C468B7
:105060000A46A4460023152110BC604710B4C4684A
:105070000A46A4460023162110BC604710B4C46839
:105080001346A4460A4610BC17216047002310B4FB
:10509000C4681A46A446182110BC6047002310B407
:1050A000C4681A46A446192110BC604770B505466D
:1050B0000C4682B0217819290FD8172925D817D185
:1050C0006378012128460DF1070202348DF807307C
:1050D000FFF7D4FF21781929EFD9FE290AD1627888
:1050E000292128468DF80720023400F035F9E1E740
:1050F000142901D802B070BD627800232846EE68FA
:105100008DF807200234B047D4E7002328461A461A
:10511000EE680134B047CDE72DE9F0410D46143972
:10512000044616461F4605291AD8DFE801F0060F87
:105130000F0306060121FFF773FF294625693B4649
:1051400032462046AC46BDE8F04160470021FFF7FB
:1051500067FF31462046FFF773FF0120BDE8F0816D
:105160000020FBE70B39F8B5064615461C46042916
:1051700052D8DFE801F0415147320300FFF786FFC4
:10518000637996F82270402107EBC30707F0FF0709
:105190003046FFF763FF390941F010013046FFF751
:1051A0005DFF07F00F013046FFF760FFA179304641
:1051B00041F0B001FFF75AFF21792268C90030465B
:1051C00001F0F801FFF75AFF6A1E12F0FF05F3D154
:1051D0003046FFF763FF0120F8BDFFF757FF81213D
:1051E0003046FFF73BFF29463046FFF73FFF30468A
:1051F000FFF754FF0120F8BDCAB90F49FFF756FF6A
:105200000120F8BD52B90D49FFF750FF3368012066
:105210009B7C86F82230F8BD0020F8BD0849FFF7D6
:1052200045FF33680120DB7C86F82230F8BD054954
:10523000FFF73CFF0120F8BD48EE000800EE000833
:1052400008EE000850EE000838B505460C46FFF79A
:1052500089FF98B9092C0BD00A2C00D038BD2846FC
:1052600000F018F828460649FFF720FF012038BD56
:105270002846044900F008F8012038BD012038BD57
:1052800010EE000858EE000801608B7C80F8223098
:10529000704700BF38B5002328211A4645690446E7
:1052A000A847002320461A461421E568A84720464F
:1052B00001224B2100F050F8236820461A79292159
:1052C00000F04AF8204600224B2100F045F8236800
:1052D00020461A79292100F03FF8204601224B216F
:1052E00000F03AF8236820465A792921BDE8384071
:1052F00000F032B830B583B0069D8DF805108DF8FA
:1053000006208DF8043001226B460F218468009539
:10531000A04703B030BD00BF002310B484681A4614
:10532000A446092110BC6047002310B484681A46C3
:10533000A4460A2110BC604710B484680A46A446FB
:1053400000230B2110BC6047002310B484681A4668
:10535000A446102110BC604710B444690023A44641
:1053600010BC604770B40025FF26C0E90212039A02
:10537000056080F82350C584856180F8246080F83A
:105380002960C0E9043270BCFFF7C6BF01210022CA
:10539000014B01701A64704700080040037803B99C
:1053A00070478E2340F21B1210B5044CA020E2621D
:1053B0002364FBF76BFE0023236410BD000800404C
:1053C000F8B5037803B9F8BD40F21B178E26002507
:1053D000084CA020E7622664FBF758FE6420256491
:1053E000FBF754FEE762A0202664FBF74FFE25641E
:1053F000F8BD00BF00080040037803B9704740F2D1
:105400008C5340F6173210B5044CA020E26223649E
:10541000FBF73CFE0023236410BD00BF00080040E2
:1054200038B5037803B938BD40F21B128E2300252E
:10543000104CA020E2622364FBF728FE3220256492
:10544000FBF724FE40F6173240F28C53E2623C2018
:105450002364FBF71BFE32202564FBF717FE40F2A6
:105460008B5240F2C623E262A0202364FBF70EFEBB
:10547000256438BD00080040037E22B1A2F102037A
:10548000B3FA83F35B0900EB41000BB1408C70472A
:10549000408B7047D0F8A030002B00F09080F0B522
:1054A00013F811200546FF2A0C4685B003D0694643
:1054B00003F022FBF0B1002C0CBF0A2100214FF4B5
:1054C000C8606C184FF42A7C4FF4717740F20A568A
:1054D0000123A4F87A0000203A4AA4F874C0127894
:1054E000A4F87670A4F8786084F87D2084F87C3085
:1054F00005B0F0BD9DF808309A0722D5BDF8000030
:10550000BDF8022090423BD2BDF80460B24237D2CF
:10551000BDF806108E4233D2002C0CBF0A240024A2
:105520009DF80E702C44A4F87400A4F87620012095
:10553000A4F87860A4F87A1084F87C3084F87D7040
:10554000D6E7002C0CBF0A240024012340F20A50A5
:105550002C444FF42A774FF471764FF4C861A4F8C5
:1055600078001846174AA4F874701278A4F8766088
:10557000A4F87A1084F87D2084F87C3005B0F0BD62
:10558000002C0CBF0A21002101234FF4C8606C18C5
:105590004FF42A7C4FF4717740F20A56A4F87A004F
:1055A0001846084AA4F874C01278A4F87670A4F8D3
:1055B000786084F87D2084F87C3005B0F0BD184612
:1055C000704700BF88E9000890F88C3013B990F854
:1055D000510070470020704770B590F88C30044639
:1055E0000D4682B0DBB1B0F8966032462946B4F879
:1055F0004C0008F001F994F88C30A4F84C0003EB4F
:10560000830304EB4304B4F8743032460093294614
:10561000002380B208F0B4F880B202B070BDB0F8D8
:105620008E60E2E738B504460868F2B1D1E901239B
:10563000A4F84000A4F84220A4F8443004F1340552
:105640002946204603F0ECF9606BA16BE26B236CFA
:105650006065A165606CA16CE2652366E26C236DF8
:105660006066A166E266236738BDD1E90123A4F82C
:105670004600A4F84820A4F84A30DFE710B54FF6FA
:10568000FF74134684B00A46448569461C4603F0FD
:1056900033FA68B90DF1090104F1090304F10E02AE
:1056A00011F8014B13F8010B844204D19342F7D156
:1056B000012004B010BD002004B010BD2DE9F0435E
:1056C000064600254FF0010885B000F13407384642
:1056D00004F00CF8ECB284424FEA440922DAD6F81E
:1056E000A030013513F8142003EB4403FF2AEED059
:1056F0005B7803F00303032BE9D122466946304669
:1057000003F0FAF90028E2D1D6F8A0308DF808802D
:105710004B4422466946304683F8018003F01EFA66
:105720000028D4D005B0BDE8F08300BF38B50446EA
:1057300003F01CF9EB214FF4A0220B4B6187E363CC
:105740000A4D0B4B0B480C49C4E91050C4E9121226
:105750002046236504F1340103F062F92046BDE8D8
:105760003840FFF7ABBF00BF2C01B004FC0832008B
:1057700000010003DF02C8004000C3002DE9F04330
:10578000002407460D46A1464FF0FF0885B000F102
:10579000340603E005F8138082F80190304603F0E8
:1057A000A5FFE3B2834204F1010405EB4302F1DB00
:1057B0000024A146384603F09FF8A0425FFA84F81F
:1057C00007DD42466946384603F096F930B10128B4
:1057D00019D15FFA89F005B0BDE8F08330460DF1CC
:1057E000090103F08FFF00280DDB9DF8083005EB61
:1057F000400243B115F81010FF2904D105F81080BC
:1058000009F1010953700134D4E700BF38B53430D1
:105810000C461146154603F06BFFD8B1014615B191
:1058200003784E2B07D10522204608F02FFB0023DA
:105830006371204638BD2346094A106812792060FA
:1058400003F8042F1846052208F020FB002363729A
:10585000204638BD034B03CB20606160204638BD35
:1058600070EE000878EE000890F88C3023B990F8BC
:1058700051200349FFF7CABF00220149FFF7C6BF05
:10588000780200202DE9F0470746D0F8A000164620
:1058900098469DF82090002860D00C4601390029D8
:1058A0006EDDB9F1000F6DD0431C01E0013911D05C
:1058B00013F81150480015F00105F7D0CAB2327044
:1058C000D7F8A030B11C03445B7838467370FFF7FB
:1058D0009DFF012507F1340A20E0ECB1B9F1000F7A
:1058E00006D0D7F8A03003EB44035B78DB0713D571
:1058F00005EB450306F82340D7F8A02006EB830309
:105900000A44527801355A7038462246991CEDB245
:10591000FFF77CFF45451ED20134E4B2504603F048
:10592000E5FE84424FEA4401D7DB454513D200200F
:1059300008F1FF335B1BDBB22B4403EB430206F1A0
:105940000C0105EB450301EB820206EB8303987023
:105950000C339342FBD12846BDE8F0876BB1134668
:1059600008F1FF32D2B202EB420806F10C0202EB60
:10597000880298700C339A42FBD10020BDE8F08772
:105980000025A7E7480099E7C288C38C9A4203D153
:105990000289038D9A4201D0002070474289438DCD
:1059A0009A42F9D1028B038F9A42F5D1827E90F808
:1059B0003A309A42F0D1427F90F83D309A42EBD192
:1059C000827F90F83E309A42E6D1C27F90F83F3015
:1059D0009A42E1D1C27E90F83B309A42DCD1037FFB
:1059E00090F83C00181AB0FA80F04009704700BFE8
:1059F00038B500F1340504462846FFF7C5FF00B16D
:105A000038BD2946204603F00BF8606BA16BE26BB2
:105A1000236C6065A165606CA16CE2652366E26C35
:105A2000236D6066A166E266236738BD38B504461B
:105A30000D46FFF72FFD00B938BD84F851502046C0
:105A4000BDE83840FFF7D4BF2DE9F04106464FF0DE
:105A5000000800F13407304602F04EFF5FFA88F587
:105A600085424FF0000406DB10E0D6F8A02012F8C3
:105A70001330AB4228D0384603F038FEE3B28342FD
:105A800004F10104F1DB2846BDE8F081384603F05B
:105A90002DFEE5B285424FEA450118DAD6F8A0306E
:105AA000013413F8152003EB4503FF2AEED05A7892
:105AB00012F00102EAD1FF201870D6F8A030284673
:105AC00019444A70BDE8F08108F10108C3E7FF25D9
:105AD0002846BDE8F08100BFD0F8A030002B54D09C
